{
  "contractName": "Farmer",
  "abi": [
    {
      "inputs": [],
      "payable": false,
      "stateMutability": "nonpayable",
      "type": "constructor"
    },
    {
      "constant": true,
      "inputs": [],
      "name": "getFarmersList",
      "outputs": [
        {
          "internalType": "address[]",
          "name": "",
          "type": "address[]"
        }
      ],
      "payable": false,
      "stateMutability": "view",
      "type": "function"
    },
    {
      "constant": true,
      "inputs": [
        {
          "internalType": "address",
          "name": "id",
          "type": "address"
        }
      ],
      "name": "getFarmer",
      "outputs": [
        {
          "components": [
            {
              "internalType": "address",
              "name": "id",
              "type": "address"
            },
            {
              "internalType": "string",
              "name": "name",
              "type": "string"
            },
            {
              "internalType": "string",
              "name": "region",
              "type": "string"
            },
            {
              "internalType": "bool",
              "name": "isVerified",
              "type": "bool"
            },
            {
              "internalType": "bool",
              "name": "isValue",
              "type": "bool"
            },
            {
              "internalType": "string[]",
              "name": "rawProducts",
              "type": "string[]"
            }
          ],
          "internalType": "struct Farmer.Farmer",
          "name": "",
          "type": "tuple"
        }
      ],
      "payable": false,
      "stateMutability": "view",
      "type": "function"
    },
    {
      "constant": false,
      "inputs": [
        {
          "internalType": "string",
          "name": "name",
          "type": "string"
        },
        {
          "internalType": "string",
          "name": "region",
          "type": "string"
        },
        {
          "internalType": "string[]",
          "name": "rawProducts",
          "type": "string[]"
        }
      ],
      "name": "addFarmer",
      "outputs": [],
      "payable": false,
      "stateMutability": "nonpayable",
      "type": "function"
    },
    {
      "constant": false,
      "inputs": [
        {
          "internalType": "address",
          "name": "id",
          "type": "address"
        }
      ],
      "name": "verifyFarmer",
      "outputs": [],
      "payable": false,
      "stateMutability": "nonpayable",
      "type": "function"
    }
  ],
  "bytecode": "0x608060405234801561001057600080fd5b50336000806101000a81548173ffffffffffffffffffffffffffffffffffffffff021916908373ffffffffffffffffffffffffffffffffffffffff160217905550610fe0806100606000396000f3fe608060405234801561001057600080fd5b506004361061004c5760003560e01c8063235db9f5146100515780633eace98f1461006d5780636480727c1461008b578063e7609c16146100a7575b600080fd5b61006b60048036036100669190810190610a32565b6100d7565b005b6100756101c4565b6040516100829190610d45565b60405180910390f35b6100a560048036036100a09190810190610a5b565b610252565b005b6100c160048036036100bc9190810190610a32565b610426565b6040516100ce9190610d87565b60405180910390f35b6000809054906101000a900473ffffffffffffffffffffffffffffffffffffffff1673ffffffffffffffffffffffffffffffffffffffff163373ffffffffffffffffffffffffffffffffffffffff1614610166576040517f08c379a000000000000000000000000000000000000000000000000000000000815260040161015d90610d67565b60405180910390fd5b6001600260008373ffffffffffffffffffffffffffffffffffffffff1673ffffffffffffffffffffffffffffffffffffffff16815260200190815260200160002060030160006101000a81548160ff02191690831515021790555050565b6060600180548060200260200160405190810160405280929190818152602001828054801561024857602002820191906000526020600020905b8160009054906101000a900473ffffffffffffffffffffffffffffffffffffffff1673ffffffffffffffffffffffffffffffffffffffff16815260200190600101908083116101fe575b5050505050905090565b6040518060c001604052803373ffffffffffffffffffffffffffffffffffffffff16815260200184815260200183815260200160001515815260200160011515815260200182815250600260003373ffffffffffffffffffffffffffffffffffffffff1673ffffffffffffffffffffffffffffffffffffffff16815260200190815260200160002060008201518160000160006101000a81548173ffffffffffffffffffffffffffffffffffffffff021916908373ffffffffffffffffffffffffffffffffffffffff160217905550602082015181600101908051906020019061033d929190610738565b50604082015181600201908051906020019061035a929190610738565b5060608201518160030160006101000a81548160ff02191690831515021790555060808201518160030160016101000a81548160ff02191690831515021790555060a08201518160040190805190602001906103b79291906107b8565b5090505060013390806001815401808255809150509060018203906000526020600020016000909192909190916101000a81548173ffffffffffffffffffffffffffffffffffffffff021916908373ffffffffffffffffffffffffffffffffffffffff16021790555050505050565b61042e610818565b600260008373ffffffffffffffffffffffffffffffffffffffff1673ffffffffffffffffffffffffffffffffffffffff1681526020019081526020016000206040518060c00160405290816000820160009054906101000a900473ffffffffffffffffffffffffffffffffffffffff1673ffffffffffffffffffffffffffffffffffffffff1673ffffffffffffffffffffffffffffffffffffffff168152602001600182018054600181600116156101000203166002900480601f0160208091040260200160405190810160405280929190818152602001828054600181600116156101000203166002900480156105675780601f1061053c57610100808354040283529160200191610567565b820191906000526020600020905b81548152906001019060200180831161054a57829003601f168201915b50505050508152602001600282018054600181600116156101000203166002900480601f0160208091040260200160405190810160405280929190818152602001828054600181600116156101000203166002900480156106095780601f106105de57610100808354040283529160200191610609565b820191906000526020600020905b8154815290600101906020018083116105ec57829003601f168201915b505050505081526020016003820160009054906101000a900460ff161515151581526020016003820160019054906101000a900460ff1615151515815260200160048201805480602002602001604051908101604052809291908181526020016000905b82821015610729578382906000526020600020018054600181600116156101000203166002900480601f0160208091040260200160405190810160405280929190818152602001828054600181600116156101000203166002900480156107155780601f106106ea57610100808354040283529160200191610715565b820191906000526020600020905b8154815290600101906020018083116106f857829003601f168201915b50505050508152602001906001019061066d565b50505050815250509050919050565b828054600181600116156101000203166002900490600052602060002090601f016020900481019282601f1061077957805160ff19168380011785556107a7565b828001600101855582156107a7579182015b828111156107a657825182559160200191906001019061078b565b5b5090506107b49190610868565b5090565b828054828255906000526020600020908101928215610807579160200282015b828111156108065782518290805190602001906107f6929190610738565b50916020019190600101906107d8565b5b509050610814919061088d565b5090565b6040518060c00160405280600073ffffffffffffffffffffffffffffffffffffffff1681526020016060815260200160608152602001600015158152602001600015158152602001606081525090565b61088a91905b8082111561088657600081600090555060010161086e565b5090565b90565b6108b691905b808211156108b257600081816108a991906108b9565b50600101610893565b5090565b90565b50805460018160011615610100020316600290046000825580601f106108df57506108fe565b601f0160209004906000526020600020908101906108fd9190610868565b5b50565b60008135905061091081610f86565b92915050565b600082601f83011261092757600080fd5b813561093a61093582610dd6565b610da9565b9150818183526020840193506020810190508360005b838110156109805781358601610966888261098a565b845260208401935060208301925050600181019050610950565b5050505092915050565b600082601f83011261099b57600080fd5b81356109ae6109a982610dfe565b610da9565b915080825260208301602083018583830111156109ca57600080fd5b6109d5838284610f33565b50505092915050565b600082601f8301126109ef57600080fd5b8135610a026109fd82610e2a565b610da9565b91508082526020830160208301858383011115610a1e57600080fd5b610a29838284610f33565b50505092915050565b600060208284031215610a4457600080fd5b6000610a5284828501610901565b91505092915050565b600080600060608486031215610a7057600080fd5b600084013567ffffffffffffffff811115610a8a57600080fd5b610a96868287016109de565b935050602084013567ffffffffffffffff811115610ab357600080fd5b610abf868287016109de565b925050604084013567ffffffffffffffff811115610adc57600080fd5b610ae886828701610916565b9150509250925092565b6000610afe8383610b1e565b60208301905092915050565b6000610b168383610c0f565b905092915050565b610b2781610ef5565b82525050565b6000610b3882610e76565b610b428185610eb1565b9350610b4d83610e56565b8060005b83811015610b7e578151610b658882610af2565b9750610b7083610e97565b925050600181019050610b51565b5085935050505092915050565b6000610b9682610e81565b610ba08185610ec2565b935083602082028501610bb285610e66565b8060005b85811015610bee5784840389528151610bcf8582610b0a565b9450610bda83610ea4565b925060208a01995050600181019050610bb6565b50829750879550505050505092915050565b610c0981610f07565b82525050565b6000610c1a82610e8c565b610c248185610ed3565b9350610c34818560208601610f42565b610c3d81610f75565b840191505092915050565b6000610c55603183610ee4565b91507f4661726d65723a3a7665726966793a204f6e6c792061646d696e2063616e207660008301527f657269667920616e206964656e746974790000000000000000000000000000006020830152604082019050919050565b600060c083016000830151610cc66000860182610b1e565b5060208301518482036020860152610cde8282610c0f565b91505060408301518482036040860152610cf88282610c0f565b9150506060830151610d0d6060860182610c00565b506080830151610d206080860182610c00565b5060a083015184820360a0860152610d388282610b8b565b9150508091505092915050565b60006020820190508181036000830152610d5f8184610b2d565b905092915050565b60006020820190508181036000830152610d8081610c48565b9050919050565b60006020820190508181036000830152610da18184610cae565b905092915050565b6000604051905081810181811067ffffffffffffffff82111715610dcc57600080fd5b8060405250919050565b600067ffffffffffffffff821115610ded57600080fd5b602082029050602081019050919050565b600067ffffffffffffffff821115610e1557600080fd5b601f19601f8301169050602081019050919050565b600067ffffffffffffffff821115610e4157600080fd5b601f19601f8301169050602081019050919050565b6000819050602082019050919050565b6000819050602082019050919050565b600081519050919050565b600081519050919050565b600081519050919050565b6000602082019050919050565b6000602082019050919050565b600082825260208201905092915050565b600082825260208201905092915050565b600082825260208201905092915050565b600082825260208201905092915050565b6000610f0082610f13565b9050919050565b60008115159050919050565b600073ffffffffffffffffffffffffffffffffffffffff82169050919050565b82818337600083830152505050565b60005b83811015610f60578082015181840152602081019050610f45565b83811115610f6f576000848401525b50505050565b6000601f19601f8301169050919050565b610f8f81610ef5565b8114610f9a57600080fd5b5056fea365627a7a72315820d0de914ed2914bc20459298187571426c809d67c2787e30d5ab9c15b1f4e1f5b6c6578706572696d656e74616cf564736f6c63430005100040",
  "source": "pragma solidity >=0.4.22 <0.9.0;\npragma experimental ABIEncoderV2;\ncontract Farmer {\n    struct Farmer{\n        address id;\n        string name;\n        string region;\n        bool isVerified;\n        bool isValue; //to verify value exists in mapping or not\n        string [] rawProducts;         \n    }\n    address private adminAddress;\n    address [] private farmersList;\n    mapping(address => Farmer) private farmers;    \n\n    constructor() public {\n        adminAddress = msg.sender;\n    }\n\n    //get list of ids of all farmers\n    function getFarmersList() public view returns(address[] memory){\n        return farmersList;\n    }\n\n    //get farmer by id\n    function getFarmer(address id) public view returns(Farmer memory){\n        return farmers[id];\n    }\n\n    //Adding new farmer\n    function addFarmer(\n        string memory name,\n        string memory region,\n        string[] memory rawProducts\n    ) public {\n        farmers[msg.sender] = Farmer(msg.sender,name,region,false,true,rawProducts);\n        farmersList.push(msg.sender);\n    }\n\n    //Verify farmer\n    function verifyFarmer(address id) public {\n        require(msg.sender == adminAddress, \"Farmer::verify: Only admin can verify an identity\");\n        farmers[id].isVerified = true;\n    }\n}",
  "sourcePath": "/home/lakshya/Desktop/Projects/Blockchain/SupplyChain/supply-chain/src/Contracts/Farmer.sol",
  "compiler": {
    "name": "solc",
    "version": "0.5.16+commit.9c3226ce.Emscripten.clang"
  },
  "schemaVersion": "3.4.4",
  "updatedAt": "2022-01-13T18:39:13.627Z",
  "networkType": "ethereum",
  "devdoc": {
    "methods": {}
  },
  "userdoc": {
    "methods": {}
  }
}