{
  "contractName": "Main",
  "abi": [
    {
      "inputs": [
        {
          "internalType": "contract Farmer",
          "name": "_farmer",
          "type": "address"
        },
        {
          "internalType": "contract Manufacturer",
          "name": "_manufacturer",
          "type": "address"
        },
        {
          "internalType": "contract StakeHolder",
          "name": "_stakeHolder",
          "type": "address"
        },
        {
          "internalType": "contract Product",
          "name": "_product",
          "type": "address"
        }
      ],
      "payable": false,
      "stateMutability": "nonpayable",
      "type": "constructor"
    },
    {
      "constant": true,
      "inputs": [],
      "name": "farmer",
      "outputs": [
        {
          "internalType": "contract Farmer",
          "name": "",
          "type": "address"
        }
      ],
      "payable": false,
      "stateMutability": "view",
      "type": "function"
    },
    {
      "constant": true,
      "inputs": [],
      "name": "manufacturer",
      "outputs": [
        {
          "internalType": "contract Manufacturer",
          "name": "",
          "type": "address"
        }
      ],
      "payable": false,
      "stateMutability": "view",
      "type": "function"
    },
    {
      "constant": true,
      "inputs": [],
      "name": "product",
      "outputs": [
        {
          "internalType": "contract Product",
          "name": "",
          "type": "address"
        }
      ],
      "payable": false,
      "stateMutability": "view",
      "type": "function"
    },
    {
      "constant": true,
      "inputs": [],
      "name": "stakeHolder",
      "outputs": [
        {
          "internalType": "contract StakeHolder",
          "name": "",
          "type": "address"
        }
      ],
      "payable": false,
      "stateMutability": "view",
      "type": "function"
    }
  ],
  "bytecode": "0x608060405234801561001057600080fd5b506040516103bd3803806103bd8339818101604052608081101561003357600080fd5b8101908080519060200190929190805190602001909291908051906020019092919080519060200190929190505050836000806101000a81548173ffffffffffffffffffffffffffffffffffffffff021916908373ffffffffffffffffffffffffffffffffffffffff16021790555082600160006101000a81548173ffffffffffffffffffffffffffffffffffffffff021916908373ffffffffffffffffffffffffffffffffffffffff16021790555081600260006101000a81548173ffffffffffffffffffffffffffffffffffffffff021916908373ffffffffffffffffffffffffffffffffffffffff16021790555080600360006101000a81548173ffffffffffffffffffffffffffffffffffffffff021916908373ffffffffffffffffffffffffffffffffffffffff16021790555050505050610245806101786000396000f3fe608060405234801561001057600080fd5b506004361061004c5760003560e01c80630de621b814610051578063747542821461009b578063bf9ce952146100e5578063d811fcf01461012f575b600080fd5b610059610179565b604051808273ffffffffffffffffffffffffffffffffffffffff1673ffffffffffffffffffffffffffffffffffffffff16815260200191505060405180910390f35b6100a361019f565b604051808273ffffffffffffffffffffffffffffffffffffffff1673ffffffffffffffffffffffffffffffffffffffff16815260200191505060405180910390f35b6100ed6101c5565b604051808273ffffffffffffffffffffffffffffffffffffffff1673ffffffffffffffffffffffffffffffffffffffff16815260200191505060405180910390f35b6101376101eb565b604051808273ffffffffffffffffffffffffffffffffffffffff1673ffffffffffffffffffffffffffffffffffffffff16815260200191505060405180910390f35b600260009054906101000a900473ffffffffffffffffffffffffffffffffffffffff1681565b600160009054906101000a900473ffffffffffffffffffffffffffffffffffffffff1681565b600360009054906101000a900473ffffffffffffffffffffffffffffffffffffffff1681565b6000809054906101000a900473ffffffffffffffffffffffffffffffffffffffff168156fea265627a7a72315820eb96669f5d7c70d790eda709a3825e408f3fff421a0d6ce471480231c7a51b0a64736f6c63430005100032",
  "source": "pragma solidity >=0.4.22 <0.9.0;\r\n\r\nimport './Farmer.sol';\r\nimport './Manufacturer.sol';\r\nimport './StakeHolder.sol';\r\nimport './Product.sol';\r\n\r\ncontract Main{\r\n\r\n    Farmer public farmer;\r\n    Manufacturer public manufacturer;\r\n    StakeHolder public stakeHolder;\r\n    Product public product;\r\n\r\n    constructor(Farmer _farmer, Manufacturer _manufacturer, StakeHolder _stakeHolder, Product _product) public {\r\n        farmer = _farmer;\r\n        manufacturer = _manufacturer;\r\n        stakeHolder = _stakeHolder;\r\n        product = _product;\r\n    }\r\n}",
  "sourcePath": "D:\\Blockchain\\supply-chain\\src\\Contracts\\Main.sol",
  "compiler": {
    "name": "solc",
    "version": "0.5.16+commit.9c3226ce.Emscripten.clang"
  },
  "schemaVersion": "3.4.3",
  "updatedAt": "2021-12-21T12:15:37.528Z",
  "networkType": "ethereum",
  "devdoc": {
    "methods": {}
  },
  "userdoc": {
    "methods": {}
  }
}