{
  "contractName": "Main",
  "abi": [
    {
      "inputs": [
        {
          "internalType": "contract Farmer",
          "name": "_farmer",
          "type": "address"
        },
        {
          "internalType": "contract Manufacturer",
          "name": "_manufacturer",
          "type": "address"
        },
        {
          "internalType": "contract StakeHolder",
          "name": "_stakeHolder",
          "type": "address"
        },
        {
          "internalType": "contract Product",
          "name": "_product",
          "type": "address"
        }
      ],
      "payable": false,
      "stateMutability": "nonpayable",
      "type": "constructor"
    },
    {
      "constant": true,
      "inputs": [],
      "name": "adminAddress",
      "outputs": [
        {
          "internalType": "address",
          "name": "",
          "type": "address"
        }
      ],
      "payable": false,
      "stateMutability": "view",
      "type": "function"
    },
    {
      "constant": true,
      "inputs": [],
      "name": "farmer",
      "outputs": [
        {
          "internalType": "contract Farmer",
          "name": "",
          "type": "address"
        }
      ],
      "payable": false,
      "stateMutability": "view",
      "type": "function"
    },
    {
      "constant": true,
      "inputs": [],
      "name": "manufacturer",
      "outputs": [
        {
          "internalType": "contract Manufacturer",
          "name": "",
          "type": "address"
        }
      ],
      "payable": false,
      "stateMutability": "view",
      "type": "function"
    },
    {
      "constant": true,
      "inputs": [],
      "name": "product",
      "outputs": [
        {
          "internalType": "contract Product",
          "name": "",
          "type": "address"
        }
      ],
      "payable": false,
      "stateMutability": "view",
      "type": "function"
    },
    {
      "constant": true,
      "inputs": [],
      "name": "stakeHolder",
      "outputs": [
        {
          "internalType": "contract StakeHolder",
          "name": "",
          "type": "address"
        }
      ],
      "payable": false,
      "stateMutability": "view",
      "type": "function"
    }
  ],
  "bytecode": "0x608060405234801561001057600080fd5b506040516104793803806104798339818101604052608081101561003357600080fd5b810190808051906020019092919080519060200190929190805190602001909291908051906020019092919050505083600160006101000a81548173ffffffffffffffffffffffffffffffffffffffff021916908373ffffffffffffffffffffffffffffffffffffffff16021790555082600260006101000a81548173ffffffffffffffffffffffffffffffffffffffff021916908373ffffffffffffffffffffffffffffffffffffffff16021790555081600360006101000a81548173ffffffffffffffffffffffffffffffffffffffff021916908373ffffffffffffffffffffffffffffffffffffffff16021790555080600460006101000a81548173ffffffffffffffffffffffffffffffffffffffff021916908373ffffffffffffffffffffffffffffffffffffffff160217905550336000806101000a81548173ffffffffffffffffffffffffffffffffffffffff021916908373ffffffffffffffffffffffffffffffffffffffff160217905550505050506102c0806101b96000396000f3fe608060405234801561001057600080fd5b50600436106100575760003560e01c80630de621b81461005c57806374754282146100a6578063bf9ce952146100f0578063d811fcf01461013a578063fc6f946814610184575b600080fd5b6100646101ce565b604051808273ffffffffffffffffffffffffffffffffffffffff1673ffffffffffffffffffffffffffffffffffffffff16815260200191505060405180910390f35b6100ae6101f4565b604051808273ffffffffffffffffffffffffffffffffffffffff1673ffffffffffffffffffffffffffffffffffffffff16815260200191505060405180910390f35b6100f861021a565b604051808273ffffffffffffffffffffffffffffffffffffffff1673ffffffffffffffffffffffffffffffffffffffff16815260200191505060405180910390f35b610142610240565b604051808273ffffffffffffffffffffffffffffffffffffffff1673ffffffffffffffffffffffffffffffffffffffff16815260200191505060405180910390f35b61018c610266565b604051808273ffffffffffffffffffffffffffffffffffffffff1673ffffffffffffffffffffffffffffffffffffffff16815260200191505060405180910390f35b600360009054906101000a900473ffffffffffffffffffffffffffffffffffffffff1681565b600260009054906101000a900473ffffffffffffffffffffffffffffffffffffffff1681565b600460009054906101000a900473ffffffffffffffffffffffffffffffffffffffff1681565b600160009054906101000a900473ffffffffffffffffffffffffffffffffffffffff1681565b6000809054906101000a900473ffffffffffffffffffffffffffffffffffffffff168156fea265627a7a72315820bf0109b81b20ec8b405ecd6574a138854b3860fcfb430017320d481294b8af5364736f6c63430005100032",
  "source": "pragma solidity >=0.4.22 <0.9.0;\r\n\r\nimport './Farmer.sol';\r\nimport './Manufacturer.sol';\r\nimport './StakeHolder.sol';\r\nimport './Product.sol';\r\n\r\ncontract Main{\r\n\r\n    address public adminAddress;\r\n    Farmer public farmer;\r\n    Manufacturer public manufacturer;\r\n    StakeHolder public stakeHolder;\r\n    Product public product;\r\n    \r\n    constructor(Farmer _farmer, Manufacturer _manufacturer, StakeHolder _stakeHolder, Product _product) public {\r\n        farmer = _farmer;\r\n        manufacturer = _manufacturer;\r\n        stakeHolder = _stakeHolder;\r\n        product = _product;\r\n        adminAddress = msg.sender;\r\n    }\r\n\r\n    // function getRole(address id) public view returns(string memory){\r\n    //     if(farmer.getFarmer(id).isValue) return \"farmer\";\r\n    //     else if(manufacturer.getManufacturer(id).isValue) return \"manufacturer\";\r\n    //     else if(stakeHolder.getStakeHolder(id).isValue) return stakeHolder.getStakeHolder(id).role;\r\n    //     else return \"new_address\";\r\n    // }\r\n}",
  "sourcePath": "D:\\Blockchain\\supply-chain\\src\\Contracts\\Main.sol",
  "compiler": {
    "name": "solc",
    "version": "0.5.16+commit.9c3226ce.Emscripten.clang"
  },
  "schemaVersion": "3.4.3",
  "updatedAt": "2021-12-25T08:26:53.560Z",
  "networkType": "ethereum",
  "devdoc": {
    "methods": {}
  },
  "userdoc": {
    "methods": {}
  }
}