{
  "contractName": "Main",
  "abi": [
    {
      "inputs": [],
      "payable": false,
      "stateMutability": "nonpayable",
      "type": "constructor"
    },
    {
      "constant": true,
      "inputs": [],
      "name": "admin",
      "outputs": [
        {
          "internalType": "address payable",
          "name": "",
          "type": "address"
        }
      ],
      "payable": false,
      "stateMutability": "view",
      "type": "function"
    },
    {
      "constant": true,
      "inputs": [
        {
          "internalType": "address",
          "name": "",
          "type": "address"
        }
      ],
      "name": "farmers",
      "outputs": [
        {
          "internalType": "address",
          "name": "id",
          "type": "address"
        },
        {
          "internalType": "string",
          "name": "name",
          "type": "string"
        },
        {
          "internalType": "string",
          "name": "region",
          "type": "string"
        },
        {
          "internalType": "bool",
          "name": "isVerified",
          "type": "bool"
        },
        {
          "internalType": "bool",
          "name": "isValue",
          "type": "bool"
        }
      ],
      "payable": false,
      "stateMutability": "view",
      "type": "function"
    },
    {
      "constant": true,
      "inputs": [
        {
          "internalType": "address",
          "name": "",
          "type": "address"
        }
      ],
      "name": "manufacturers",
      "outputs": [
        {
          "internalType": "address",
          "name": "id",
          "type": "address"
        },
        {
          "internalType": "string",
          "name": "name",
          "type": "string"
        },
        {
          "internalType": "bool",
          "name": "isRenewableUsed",
          "type": "bool"
        }
      ],
      "payable": false,
      "stateMutability": "view",
      "type": "function"
    },
    {
      "constant": true,
      "inputs": [
        {
          "internalType": "string",
          "name": "",
          "type": "string"
        }
      ],
      "name": "products",
      "outputs": [
        {
          "internalType": "string",
          "name": "name",
          "type": "string"
        },
        {
          "internalType": "address",
          "name": "ownership",
          "type": "address"
        },
        {
          "internalType": "address",
          "name": "manufacturer",
          "type": "address"
        },
        {
          "internalType": "string",
          "name": "serialNo",
          "type": "string"
        }
      ],
      "payable": false,
      "stateMutability": "view",
      "type": "function"
    },
    {
      "constant": true,
      "inputs": [
        {
          "internalType": "address",
          "name": "",
          "type": "address"
        }
      ],
      "name": "stakeholders",
      "outputs": [
        {
          "internalType": "address",
          "name": "id",
          "type": "address"
        },
        {
          "internalType": "string",
          "name": "name",
          "type": "string"
        },
        {
          "internalType": "string",
          "name": "role",
          "type": "string"
        },
        {
          "internalType": "bool",
          "name": "isValue",
          "type": "bool"
        }
      ],
      "payable": false,
      "stateMutability": "view",
      "type": "function"
    },
    {
      "constant": true,
      "inputs": [
        {
          "internalType": "address",
          "name": "id",
          "type": "address"
        }
      ],
      "name": "checkIdentity",
      "outputs": [
        {
          "internalType": "string",
          "name": "",
          "type": "string"
        }
      ],
      "payable": false,
      "stateMutability": "view",
      "type": "function"
    },
    {
      "constant": false,
      "inputs": [
        {
          "internalType": "string",
          "name": "name",
          "type": "string"
        },
        {
          "internalType": "string",
          "name": "region",
          "type": "string"
        },
        {
          "internalType": "string[]",
          "name": "rawProducts",
          "type": "string[]"
        }
      ],
      "name": "registerFarmer",
      "outputs": [],
      "payable": false,
      "stateMutability": "nonpayable",
      "type": "function"
    },
    {
      "constant": false,
      "inputs": [
        {
          "internalType": "address",
          "name": "id",
          "type": "address"
        }
      ],
      "name": "verifyFarmer",
      "outputs": [],
      "payable": false,
      "stateMutability": "nonpayable",
      "type": "function"
    },
    {
      "constant": true,
      "inputs": [
        {
          "internalType": "address",
          "name": "id",
          "type": "address"
        }
      ],
      "name": "findFarmer",
      "outputs": [
        {
          "components": [
            {
              "internalType": "address",
              "name": "id",
              "type": "address"
            },
            {
              "internalType": "string",
              "name": "name",
              "type": "string"
            },
            {
              "internalType": "string",
              "name": "region",
              "type": "string"
            },
            {
              "internalType": "bool",
              "name": "isVerified",
              "type": "bool"
            },
            {
              "internalType": "bool",
              "name": "isValue",
              "type": "bool"
            },
            {
              "internalType": "string[]",
              "name": "rawProducts",
              "type": "string[]"
            }
          ],
          "internalType": "struct Main.Farmer",
          "name": "",
          "type": "tuple"
        }
      ],
      "payable": false,
      "stateMutability": "view",
      "type": "function"
    },
    {
      "constant": false,
      "inputs": [
        {
          "internalType": "address",
          "name": "id",
          "type": "address"
        }
      ],
      "name": "updateManufacturerRenewable",
      "outputs": [],
      "payable": false,
      "stateMutability": "nonpayable",
      "type": "function"
    },
    {
      "constant": false,
      "inputs": [
        {
          "internalType": "string",
          "name": "rawProductName",
          "type": "string"
        },
        {
          "internalType": "address",
          "name": "farmerAddress",
          "type": "address"
        }
      ],
      "name": "updateManufacturerRawProducts",
      "outputs": [],
      "payable": false,
      "stateMutability": "nonpayable",
      "type": "function"
    },
    {
      "constant": true,
      "inputs": [
        {
          "internalType": "address",
          "name": "id",
          "type": "address"
        }
      ],
      "name": "findManufacturer",
      "outputs": [
        {
          "internalType": "string",
          "name": "",
          "type": "string"
        },
        {
          "internalType": "bool",
          "name": "",
          "type": "bool"
        }
      ],
      "payable": false,
      "stateMutability": "view",
      "type": "function"
    },
    {
      "constant": false,
      "inputs": [
        {
          "internalType": "string",
          "name": "name",
          "type": "string"
        },
        {
          "internalType": "string",
          "name": "role",
          "type": "string"
        }
      ],
      "name": "registerStakeHolder",
      "outputs": [],
      "payable": false,
      "stateMutability": "nonpayable",
      "type": "function"
    },
    {
      "constant": true,
      "inputs": [
        {
          "internalType": "address",
          "name": "id",
          "type": "address"
        }
      ],
      "name": "findStakeholder",
      "outputs": [
        {
          "components": [
            {
              "internalType": "address",
              "name": "id",
              "type": "address"
            },
            {
              "internalType": "string",
              "name": "name",
              "type": "string"
            },
            {
              "internalType": "string",
              "name": "role",
              "type": "string"
            },
            {
              "internalType": "bool",
              "name": "isValue",
              "type": "bool"
            }
          ],
          "internalType": "struct Main.Stakeholder",
          "name": "",
          "type": "tuple"
        }
      ],
      "payable": false,
      "stateMutability": "view",
      "type": "function"
    },
    {
      "constant": false,
      "inputs": [
        {
          "internalType": "string",
          "name": "name",
          "type": "string"
        },
        {
          "internalType": "string[]",
          "name": "rawProducts",
          "type": "string[]"
        },
        {
          "internalType": "string",
          "name": "serialNo",
          "type": "string"
        }
      ],
      "name": "launchProduct",
      "outputs": [],
      "payable": false,
      "stateMutability": "nonpayable",
      "type": "function"
    },
    {
      "constant": false,
      "inputs": [
        {
          "internalType": "address",
          "name": "newOwner",
          "type": "address"
        },
        {
          "internalType": "string",
          "name": "serialNo",
          "type": "string"
        }
      ],
      "name": "transferOwnership",
      "outputs": [],
      "payable": false,
      "stateMutability": "nonpayable",
      "type": "function"
    },
    {
      "constant": true,
      "inputs": [
        {
          "internalType": "string",
          "name": "serialNo",
          "type": "string"
        }
      ],
      "name": "verifyProduct",
      "outputs": [
        {
          "components": [
            {
              "internalType": "string",
              "name": "name",
              "type": "string"
            },
            {
              "internalType": "address",
              "name": "ownership",
              "type": "address"
            },
            {
              "internalType": "address",
              "name": "manufacturer",
              "type": "address"
            },
            {
              "internalType": "string[]",
              "name": "rawProducts",
              "type": "string[]"
            },
            {
              "internalType": "bool[]",
              "name": "rawProductsVerification",
              "type": "bool[]"
            },
            {
              "internalType": "string",
              "name": "serialNo",
              "type": "string"
            }
          ],
          "internalType": "struct Main.Product",
          "name": "",
          "type": "tuple"
        },
        {
          "internalType": "string",
          "name": "",
          "type": "string"
        },
        {
          "internalType": "bool",
          "name": "",
          "type": "bool"
        },
        {
          "components": [
            {
              "internalType": "address",
              "name": "id",
              "type": "address"
            },
            {
              "internalType": "string",
              "name": "name",
              "type": "string"
            },
            {
              "internalType": "string",
              "name": "role",
              "type": "string"
            },
            {
              "internalType": "bool",
              "name": "isValue",
              "type": "bool"
            }
          ],
          "internalType": "struct Main.Stakeholder",
          "name": "",
          "type": "tuple"
        },
        {
          "components": [
            {
              "internalType": "address",
              "name": "id",
              "type": "address"
            },
            {
              "internalType": "string",
              "name": "name",
              "type": "string"
            },
            {
              "internalType": "string",
              "name": "role",
              "type": "string"
            },
            {
              "internalType": "bool",
              "name": "isValue",
              "type": "bool"
            }
          ],
          "internalType": "struct Main.Stakeholder",
          "name": "",
          "type": "tuple"
        }
      ],
      "payable": false,
      "stateMutability": "view",
      "type": "function"
    }
  ],
  "bytecode": "0x608060405234801561001057600080fd5b5033600460006101000a81548173ffffffffffffffffffffffffffffffffffffffff021916908373ffffffffffffffffffffffffffffffffffffffff1602179055506137c5806100616000396000f3fe608060405234801561001057600080fd5b506004361061010b5760003560e01c806392efc453116100a2578063c07cfca911610071578063c07cfca9146102fa578063e56255431461032d578063e95cccb114610349578063edf5a5be14610379578063f851a440146103955761010b565b806392efc4531461025e57806395fa56fd14610292578063a0158da3146102ae578063b465b0a0146102de5761010b565b806330dd2afa116100de57806330dd2afa146101c0578063401b2168146101dc5780636b5eb09c146102105780636be6ffe8146102425761010b565b80630186a4231461011057806304b5dc7c14610143578063235db9f51461017357806324e54bd41461018f575b600080fd5b61012a60048036036101259190810190612b58565b6103b3565b60405161013a9493929190613420565b60405180910390f35b61015d60048036036101589190810190612adb565b610569565b60405161016a91906134b3565b60405180910390f35b61018d60048036036101889190810190612adb565b61087a565b005b6101a960048036036101a49190810190612adb565b610969565b6040516101b79291906133f0565b60405180910390f35b6101da60048036036101d59190810190612d31565b610aa4565b005b6101f660048036036101f19190810190612adb565b610c11565b60405161020795949392919061336d565b60405180910390f35b61022a60048036036102259190810190612adb565b610db1565b604051610239939291906132dc565b60405180910390f35b61025c60048036036102579190810190612bda565b610ea0565b005b61027860048036036102739190810190612b99565b610f41565b6040516102899594939291906134d5565b60405180910390f35b6102ac60048036036102a79190810190612cc5565b611892565b005b6102c860048036036102c39190810190612adb565b611b00565b6040516102d59190613544565b60405180910390f35b6102f860048036036102f39190810190612c2e565b611d0e565b005b610314600480360361030f9190810190612adb565b611fe0565b604051610324949392919061331a565b60405180910390f35b61034760048036036103429190810190612adb565b61216d565b005b610363600480360361035e9190810190612adb565b61225c565b60405161037091906133ce565b60405180910390f35b610393600480360361038e9190810190612b04565b6124f7565b005b61039d61260a565b6040516103aa91906132c1565b60405180910390f35b600281805160208101820180518482526020830160208501208183528095505050505050600091509050806000018054600181600116156101000203166002900480601f0160208091040260200160405190810160405280929190818152602001828054600181600116156101000203166002900480156104755780601f1061044a57610100808354040283529160200191610475565b820191906000526020600020905b81548152906001019060200180831161045857829003601f168201915b5050505050908060010160009054906101000a900473ffffffffffffffffffffffffffffffffffffffff16908060020160009054906101000a900473ffffffffffffffffffffffffffffffffffffffff1690806005018054600181600116156101000203166002900480601f01602080910402602001604051908101604052809291908181526020018280546001816001161561010002031660029004801561055f5780601f106105345761010080835404028352916020019161055f565b820191906000526020600020905b81548152906001019060200180831161054257829003601f168201915b5050505050905084565b610571612630565b6000808373ffffffffffffffffffffffffffffffffffffffff1673ffffffffffffffffffffffffffffffffffffffff1681526020019081526020016000206040518060c00160405290816000820160009054906101000a900473ffffffffffffffffffffffffffffffffffffffff1673ffffffffffffffffffffffffffffffffffffffff1673ffffffffffffffffffffffffffffffffffffffff168152602001600182018054600181600116156101000203166002900480601f0160208091040260200160405190810160405280929190818152602001828054600181600116156101000203166002900480156106a95780601f1061067e576101008083540402835291602001916106a9565b820191906000526020600020905b81548152906001019060200180831161068c57829003601f168201915b50505050508152602001600282018054600181600116156101000203166002900480601f01602080910402602001604051908101604052809291908181526020018280546001816001161561010002031660029004801561074b5780601f106107205761010080835404028352916020019161074b565b820191906000526020600020905b81548152906001019060200180831161072e57829003601f168201915b505050505081526020016003820160009054906101000a900460ff161515151581526020016003820160019054906101000a900460ff1615151515815260200160048201805480602002602001604051908101604052809291908181526020016000905b8282101561086b578382906000526020600020018054600181600116156101000203166002900480601f0160208091040260200160405190810160405280929190818152602001828054600181600116156101000203166002900480156108575780601f1061082c57610100808354040283529160200191610857565b820191906000526020600020905b81548152906001019060200180831161083a57829003601f168201915b5050505050815260200190600101906107af565b50505050815250509050919050565b33600460009054906101000a900473ffffffffffffffffffffffffffffffffffffffff1673ffffffffffffffffffffffffffffffffffffffff168173ffffffffffffffffffffffffffffffffffffffff161461090b576040517f08c379a000000000000000000000000000000000000000000000000000000000815260040161090290613473565b60405180910390fd5b60016000808473ffffffffffffffffffffffffffffffffffffffff1673ffffffffffffffffffffffffffffffffffffffff16815260200190815260200160002060030160006101000a81548160ff0219169083151502179055505050565b60606000600160008473ffffffffffffffffffffffffffffffffffffffff1673ffffffffffffffffffffffffffffffffffffffff168152602001908152602001600020600101600160008573ffffffffffffffffffffffffffffffffffffffff1673ffffffffffffffffffffffffffffffffffffffff16815260200190815260200160002060030160009054906101000a900460ff16818054600181600116156101000203166002900480601f016020809104026020016040519081016040528092919081815260200182805460018160011615610100020316600290048015610a945780601f10610a6957610100808354040283529160200191610a94565b820191906000526020600020905b815481529060010190602001808311610a7757829003601f168201915b5050505050915091509150915091565b6040518060c001604052803373ffffffffffffffffffffffffffffffffffffffff168152602001848152602001838152602001600015158152602001600115158152602001828152506000803373ffffffffffffffffffffffffffffffffffffffff1673ffffffffffffffffffffffffffffffffffffffff16815260200190815260200160002060008201518160000160006101000a81548173ffffffffffffffffffffffffffffffffffffffff021916908373ffffffffffffffffffffffffffffffffffffffff1602179055506020820151816001019080519060200190610b8e929190612680565b506040820151816002019080519060200190610bab929190612680565b5060608201518160030160006101000a81548160ff02191690831515021790555060808201518160030160016101000a81548160ff02191690831515021790555060a0820151816004019080519060200190610c08929190612700565b50905050505050565b60006020528060005260406000206000915090508060000160009054906101000a900473ffffffffffffffffffffffffffffffffffffffff1690806001018054600181600116156101000203166002900480601f016020809104026020016040519081016040528092919081815260200182805460018160011615610100020316600290048015610ce35780601f10610cb857610100808354040283529160200191610ce3565b820191906000526020600020905b815481529060010190602001808311610cc657829003601f168201915b505050505090806002018054600181600116156101000203166002900480601f016020809104026020016040519081016040528092919081815260200182805460018160011615610100020316600290048015610d815780601f10610d5657610100808354040283529160200191610d81565b820191906000526020600020905b815481529060010190602001808311610d6457829003601f168201915b5050505050908060030160009054906101000a900460ff16908060030160019054906101000a900460ff16905085565b60016020528060005260406000206000915090508060000160009054906101000a900473ffffffffffffffffffffffffffffffffffffffff1690806001018054600181600116156101000203166002900480601f016020809104026020016040519081016040528092919081815260200182805460018160011615610100020316600290048015610e835780601f10610e5857610100808354040283529160200191610e83565b820191906000526020600020905b815481529060010190602001808311610e6657829003601f168201915b5050505050908060030160009054906101000a900460ff16905083565b80600160003373ffffffffffffffffffffffffffffffffffffffff1673ffffffffffffffffffffffffffffffffffffffff16815260200190815260200160002060020183604051610ef19190613295565b908152602001604051809103902060006101000a81548173ffffffffffffffffffffffffffffffffffffffff021916908373ffffffffffffffffffffffffffffffffffffffff1602179055505050565b610f49612760565b60606000610f556127c2565b610f5d6127c2565b610f65612760565b600287604051610f759190613295565b90815260200160405180910390206040518060c0016040529081600082018054600181600116156101000203166002900480601f0160208091040260200160405190810160405280929190818152602001828054600181600116156101000203166002900480156110275780601f10610ffc57610100808354040283529160200191611027565b820191906000526020600020905b81548152906001019060200180831161100a57829003601f168201915b505050505081526020016001820160009054906101000a900473ffffffffffffffffffffffffffffffffffffffff1673ffffffffffffffffffffffffffffffffffffffff1673ffffffffffffffffffffffffffffffffffffffff1681526020016002820160009054906101000a900473ffffffffffffffffffffffffffffffffffffffff1673ffffffffffffffffffffffffffffffffffffffff1673ffffffffffffffffffffffffffffffffffffffff16815260200160038201805480602002602001604051908101604052809291908181526020016000905b828210156111bd578382906000526020600020018054600181600116156101000203166002900480601f0160208091040260200160405190810160405280929190818152602001828054600181600116156101000203166002900480156111a95780601f1061117e576101008083540402835291602001916111a9565b820191906000526020600020905b81548152906001019060200180831161118c57829003601f168201915b505050505081526020019060010190611101565b5050505081526020016004820180548060200260200160405190810160405280929190818152602001828054801561123957602002820191906000526020600020906000905b82829054906101000a900460ff161515815260200190600101906020826000010492830192600103820291508084116112035790505b50505050508152602001600582018054600181600116156101000203166002900480601f0160208091040260200160405190810160405280929190818152602001828054600181600116156101000203166002900480156112db5780601f106112b0576101008083540402835291602001916112db565b820191906000526020600020905b8154815290600101906020018083116112be57829003601f168201915b50505050508152505090506112ee612802565b60016000836040015173ffffffffffffffffffffffffffffffffffffffff1673ffffffffffffffffffffffffffffffffffffffff1681526020019081526020016000206040518060600160405290816000820160009054906101000a900473ffffffffffffffffffffffffffffffffffffffff1673ffffffffffffffffffffffffffffffffffffffff1673ffffffffffffffffffffffffffffffffffffffff168152602001600182018054600181600116156101000203166002900480601f01602080910402602001604051908101604052809291908181526020018280546001816001161561010002031660029004801561142b5780601f106114005761010080835404028352916020019161142b565b820191906000526020600020905b81548152906001019060200180831161140e57829003601f168201915b505050505081526020016003820160009054906101000a900460ff16151515158152505090506114596127c2565b60036000846040015173ffffffffffffffffffffffffffffffffffffffff1673ffffffffffffffffffffffffffffffffffffffff1681526020019081526020016000206040518060800160405290816000820160009054906101000a900473ffffffffffffffffffffffffffffffffffffffff1673ffffffffffffffffffffffffffffffffffffffff1673ffffffffffffffffffffffffffffffffffffffff168152602001600182018054600181600116156101000203166002900480601f0160208091040260200160405190810160405280929190818152602001828054600181600116156101000203166002900480156115965780601f1061156b57610100808354040283529160200191611596565b820191906000526020600020905b81548152906001019060200180831161157957829003601f168201915b50505050508152602001600282018054600181600116156101000203166002900480601f0160208091040260200160405190810160405280929190818152602001828054600181600116156101000203166002900480156116385780601f1061160d57610100808354040283529160200191611638565b820191906000526020600020905b81548152906001019060200180831161161b57829003601f168201915b505050505081526020016003820160009054906101000a900460ff16151515158152505090506116666127c2565b60036000856020015173ffffffffffffffffffffffffffffffffffffffff1673ffffffffffffffffffffffffffffffffffffffff1681526020019081526020016000206040518060800160405290816000820160009054906101000a900473ffffffffffffffffffffffffffffffffffffffff1673ffffffffffffffffffffffffffffffffffffffff1673ffffffffffffffffffffffffffffffffffffffff168152602001600182018054600181600116156101000203166002900480601f0160208091040260200160405190810160405280929190818152602001828054600181600116156101000203166002900480156117a35780601f10611778576101008083540402835291602001916117a3565b820191906000526020600020905b81548152906001019060200180831161178657829003601f168201915b50505050508152602001600282018054600181600116156101000203166002900480601f0160208091040260200160405190810160405280929190818152602001828054600181600116156101000203166002900480156118455780601f1061181a57610100808354040283529160200191611845565b820191906000526020600020905b81548152906001019060200180831161182857829003601f168201915b505050505081526020016003820160009054906101000a900460ff161515151581525050905083836020015184604001518484839350985098509850985098505050505091939590929450565b60405180608001604052803373ffffffffffffffffffffffffffffffffffffffff16815260200183815260200182815260200160011515815250600360003373ffffffffffffffffffffffffffffffffffffffff1673ffffffffffffffffffffffffffffffffffffffff16815260200190815260200160002060008201518160000160006101000a81548173ffffffffffffffffffffffffffffffffffffffff021916908373ffffffffffffffffffffffffffffffffffffffff160217905550602082015181600101908051906020019061196e929190612680565b50604082015181600201908051906020019061198b929190612680565b5060608201518160030160006101000a81548160ff0219169083151502179055509050506040516020016119be906132ac565b60405160208183030381529060405280519060200120816040516020016119e59190613295565b604051602081830303815290604052805190602001201415611afc5760405180606001604052803373ffffffffffffffffffffffffffffffffffffffff16815260200183815260200160001515815250600160003373ffffffffffffffffffffffffffffffffffffffff1673ffffffffffffffffffffffffffffffffffffffff16815260200190815260200160002060008201518160000160006101000a81548173ffffffffffffffffffffffffffffffffffffffff021916908373ffffffffffffffffffffffffffffffffffffffff1602179055506020820151816001019080519060200190611ad7929190612680565b5060408201518160030160006101000a81548160ff0219169083151502179055509050505b5050565b611b086127c2565b600360008373ffffffffffffffffffffffffffffffffffffffff1673ffffffffffffffffffffffffffffffffffffffff1681526020019081526020016000206040518060800160405290816000820160009054906101000a900473ffffffffffffffffffffffffffffffffffffffff1673ffffffffffffffffffffffffffffffffffffffff1673ffffffffffffffffffffffffffffffffffffffff168152602001600182018054600181600116156101000203166002900480601f016020809104026020016040519081016040528092919081815260200182805460018160011615610100020316600290048015611c415780601f10611c1657610100808354040283529160200191611c41565b820191906000526020600020905b815481529060010190602001808311611c2457829003601f168201915b50505050508152602001600282018054600181600116156101000203166002900480601f016020809104026020016040519081016040528092919081815260200182805460018160011615610100020316600290048015611ce35780601f10611cb857610100808354040283529160200191611ce3565b820191906000526020600020905b815481529060010190602001808311611cc657829003601f168201915b505050505081526020016003820160009054906101000a900460ff1615151515815250509050919050565b60608251604051908082528060200260200182016040528015611d405781602001602082028038833980820191505090505b50905060008090505b8351811015611e5d57600080600160003373ffffffffffffffffffffffffffffffffffffffff1673ffffffffffffffffffffffffffffffffffffffff168152602001908152602001600020600201868481518110611da357fe5b6020026020010151604051611db8919061327e565b908152602001604051809103902060009054906101000a900473ffffffffffffffffffffffffffffffffffffffff1673ffffffffffffffffffffffffffffffffffffffff1673ffffffffffffffffffffffffffffffffffffffff16815260200190815260200160002060030160009054906101000a900460ff16828281518110611e3e57fe5b6020026020010190151590811515815250508080600101915050611d49565b506040518060c001604052808581526020013373ffffffffffffffffffffffffffffffffffffffff1681526020013373ffffffffffffffffffffffffffffffffffffffff16815260200184815260200182815260200183815250600283604051611ec79190613295565b90815260200160405180910390206000820151816000019080519060200190611ef1929190612680565b5060208201518160010160006101000a81548173ffffffffffffffffffffffffffffffffffffffff021916908373ffffffffffffffffffffffffffffffffffffffff16021790555060408201518160020160006101000a81548173ffffffffffffffffffffffffffffffffffffffff021916908373ffffffffffffffffffffffffffffffffffffffff1602179055506060820151816003019080519060200190611f9c929190612700565b506080820151816004019080519060200190611fb992919061283b565b5060a0820151816005019080519060200190611fd6929190612680565b5090505050505050565b60036020528060005260406000206000915090508060000160009054906101000a900473ffffffffffffffffffffffffffffffffffffffff1690806001018054600181600116156101000203166002900480601f0160208091040260200160405190810160405280929190818152602001828054600181600116156101000203166002900480156120b25780601f10612087576101008083540402835291602001916120b2565b820191906000526020600020905b81548152906001019060200180831161209557829003601f168201915b505050505090806002018054600181600116156101000203166002900480601f0160208091040260200160405190810160405280929190818152602001828054600181600116156101000203166002900480156121505780601f1061212557610100808354040283529160200191612150565b820191906000526020600020905b81548152906001019060200180831161213357829003601f168201915b5050505050908060030160009054906101000a900460ff16905084565b33600460009054906101000a900473ffffffffffffffffffffffffffffffffffffffff1673ffffffffffffffffffffffffffffffffffffffff168173ffffffffffffffffffffffffffffffffffffffff16146121fe576040517f08c379a00000000000000000000000000000000000000000000000000000000081526004016121f590613473565b60405180910390fd5b60018060008473ffffffffffffffffffffffffffffffffffffffff1673ffffffffffffffffffffffffffffffffffffffff16815260200190815260200160002060030160006101000a81548160ff0219169083151502179055505050565b6060600460009054906101000a900473ffffffffffffffffffffffffffffffffffffffff1673ffffffffffffffffffffffffffffffffffffffff168273ffffffffffffffffffffffffffffffffffffffff1614156122f1576040518060400160405280600581526020017f41646d696e00000000000000000000000000000000000000000000000000000081525090506124f2565b6000808373ffffffffffffffffffffffffffffffffffffffff1673ffffffffffffffffffffffffffffffffffffffff16815260200190815260200160002060030160019054906101000a900460ff1615612382576040518060400160405280600681526020017f4661726d6572000000000000000000000000000000000000000000000000000081525090506124f2565b600360008373ffffffffffffffffffffffffffffffffffffffff1673ffffffffffffffffffffffffffffffffffffffff16815260200190815260200160002060030160009054906101000a900460ff16156124b957600360008373ffffffffffffffffffffffffffffffffffffffff1673ffffffffffffffffffffffffffffffffffffffff1681526020019081526020016000206002018054600181600116156101000203166002900480601f0160208091040260200160405190810160405280929190818152602001828054600181600116156101000203166002900480156124ad5780601f10612482576101008083540402835291602001916124ad565b820191906000526020600020905b81548152906001019060200180831161249057829003601f168201915b505050505090506124f2565b6040518060400160405280600a81526020017f4e6577416464726573730000000000000000000000000000000000000000000081525090505b919050565b3373ffffffffffffffffffffffffffffffffffffffff1660028260405161251e9190613295565b908152602001604051809103902060010160009054906101000a900473ffffffffffffffffffffffffffffffffffffffff1673ffffffffffffffffffffffffffffffffffffffff16146125a6576040517f08c379a000000000000000000000000000000000000000000000000000000000815260040161259d90613493565b60405180910390fd5b816002826040516125b79190613295565b908152602001604051809103902060010160006101000a81548173ffffffffffffffffffffffffffffffffffffffff021916908373ffffffffffffffffffffffffffffffffffffffff1602179055505050565b600460009054906101000a900473ffffffffffffffffffffffffffffffffffffffff1681565b6040518060c00160405280600073ffffffffffffffffffffffffffffffffffffffff1681526020016060815260200160608152602001600015158152602001600015158152602001606081525090565b828054600181600116156101000203166002900490600052602060002090601f016020900481019282601f106126c157805160ff19168380011785556126ef565b828001600101855582156126ef579182015b828111156126ee5782518255916020019190600101906126d3565b5b5090506126fc91906128e1565b5090565b82805482825590600052602060002090810192821561274f579160200282015b8281111561274e57825182908051906020019061273e929190612680565b5091602001919060010190612720565b5b50905061275c9190612906565b5090565b6040518060c0016040528060608152602001600073ffffffffffffffffffffffffffffffffffffffff168152602001600073ffffffffffffffffffffffffffffffffffffffff1681526020016060815260200160608152602001606081525090565b6040518060800160405280600073ffffffffffffffffffffffffffffffffffffffff16815260200160608152602001606081526020016000151581525090565b6040518060600160405280600073ffffffffffffffffffffffffffffffffffffffff168152602001606081526020016000151581525090565b82805482825590600052602060002090601f016020900481019282156128d05791602002820160005b838211156128a157835183826101000a81548160ff0219169083151502179055509260200192600101602081600001049283019260010302612864565b80156128ce5782816101000a81549060ff02191690556001016020816000010492830192600103026128a1565b505b5090506128dd9190612932565b5090565b61290391905b808211156128ff5760008160009055506001016128e7565b5090565b90565b61292f91905b8082111561292b57600081816129229190612962565b5060010161290c565b5090565b90565b61295f91905b8082111561295b57600081816101000a81549060ff021916905550600101612938565b5090565b90565b50805460018160011615610100020316600290046000825580601f1061298857506129a7565b601f0160209004906000526020600020908101906129a691906128e1565b5b50565b6000813590506129b98161376b565b92915050565b600082601f8301126129d057600080fd5b81356129e36129de82613593565b613566565b9150818183526020840193506020810190508360005b83811015612a295781358601612a0f8882612a33565b8452602084019350602083019250506001810190506129f9565b5050505092915050565b600082601f830112612a4457600080fd5b8135612a57612a52826135bb565b613566565b91508082526020830160208301858383011115612a7357600080fd5b612a7e838284613718565b50505092915050565b600082601f830112612a9857600080fd5b8135612aab612aa6826135e7565b613566565b91508082526020830160208301858383011115612ac757600080fd5b612ad2838284613718565b50505092915050565b600060208284031215612aed57600080fd5b6000612afb848285016129aa565b91505092915050565b60008060408385031215612b1757600080fd5b6000612b25858286016129aa565b925050602083013567ffffffffffffffff811115612b4257600080fd5b612b4e85828601612a87565b9150509250929050565b600060208284031215612b6a57600080fd5b600082013567ffffffffffffffff811115612b8457600080fd5b612b9084828501612a33565b91505092915050565b600060208284031215612bab57600080fd5b600082013567ffffffffffffffff811115612bc557600080fd5b612bd184828501612a87565b91505092915050565b60008060408385031215612bed57600080fd5b600083013567ffffffffffffffff811115612c0757600080fd5b612c1385828601612a87565b9250506020612c24858286016129aa565b9150509250929050565b600080600060608486031215612c4357600080fd5b600084013567ffffffffffffffff811115612c5d57600080fd5b612c6986828701612a87565b935050602084013567ffffffffffffffff811115612c8657600080fd5b612c92868287016129bf565b925050604084013567ffffffffffffffff811115612caf57600080fd5b612cbb86828701612a87565b9150509250925092565b60008060408385031215612cd857600080fd5b600083013567ffffffffffffffff811115612cf257600080fd5b612cfe85828601612a87565b925050602083013567ffffffffffffffff811115612d1b57600080fd5b612d2785828601612a87565b9150509250929050565b600080600060608486031215612d4657600080fd5b600084013567ffffffffffffffff811115612d6057600080fd5b612d6c86828701612a87565b935050602084013567ffffffffffffffff811115612d8957600080fd5b612d9586828701612a87565b925050604084013567ffffffffffffffff811115612db257600080fd5b612dbe868287016129bf565b9150509250925092565b6000612dd48383612ef4565b60208301905092915050565b6000612dec8383612f7c565b905092915050565b612dfd816136da565b82525050565b612e0c816136c8565b82525050565b612e1b816136c8565b82525050565b6000612e2c82613633565b612e368185613679565b9350612e4183613613565b8060005b83811015612e72578151612e598882612dc8565b9750612e648361365f565b925050600181019050612e45565b5085935050505092915050565b6000612e8a8261363e565b612e94818561368a565b935083602082028501612ea685613623565b8060005b85811015612ee25784840389528151612ec38582612de0565b9450612ece8361366c565b925060208a01995050600181019050612eaa565b50829750879550505050505092915050565b612efd816136ec565b82525050565b612f0c816136ec565b82525050565b6000612f1d82613654565b612f2781856136ac565b9350612f37818560208601613727565b612f408161375a565b840191505092915050565b6000612f5682613654565b612f6081856136bd565b9350612f70818560208601613727565b80840191505092915050565b6000612f8782613649565b612f91818561369b565b9350612fa1818560208601613727565b612faa8161375a565b840191505092915050565b6000612fc082613649565b612fca81856136ac565b9350612fda818560208601613727565b612fe38161375a565b840191505092915050565b6000612ff982613649565b61300381856136bd565b9350613013818560208601613727565b80840191505092915050565b600061302c600c836136ac565b91507f556e617574686f72697a656400000000000000000000000000000000000000006000830152602082019050919050565b600061306c6011836136ac565b91507f496e76616c6964204f776e6572736869700000000000000000000000000000006000830152602082019050919050565b60006130ac600c836136bd565b91507f4d616e75666163747572657200000000000000000000000000000000000000006000830152600c82019050919050565b600060c0830160008301516130f76000860182612e03565b506020830151848203602086015261310f8282612f7c565b915050604083015184820360408601526131298282612f7c565b915050606083015161313e6060860182612ef4565b5060808301516131516080860182612ef4565b5060a083015184820360a08601526131698282612e7f565b9150508091505092915050565b600060c08301600083015184820360008601526131938282612f7c565b91505060208301516131a86020860182612e03565b5060408301516131bb6040860182612e03565b50606083015184820360608601526131d38282612e7f565b915050608083015184820360808601526131ed8282612e21565b91505060a083015184820360a08601526132078282612f7c565b9150508091505092915050565b600060808301600083015161322c6000860182612e03565b50602083015184820360208601526132448282612f7c565b9150506040830151848203604086015261325e8282612f7c565b91505060608301516132736060860182612ef4565b508091505092915050565b600061328a8284612fee565b915081905092915050565b60006132a18284612f4b565b915081905092915050565b60006132b78261309f565b9150819050919050565b60006020820190506132d66000830184612df4565b92915050565b60006060820190506132f16000830186612e12565b81810360208301526133038185612fb5565b90506133126040830184612f03565b949350505050565b600060808201905061332f6000830187612e12565b81810360208301526133418186612fb5565b905081810360408301526133558185612fb5565b90506133646060830184612f03565b95945050505050565b600060a0820190506133826000830188612e12565b81810360208301526133948187612fb5565b905081810360408301526133a88186612fb5565b90506133b76060830185612f03565b6133c46080830184612f03565b9695505050505050565b600060208201905081810360008301526133e88184612f12565b905092915050565b6000604082019050818103600083015261340a8185612f12565b90506134196020830184612f03565b9392505050565b6000608082019050818103600083015261343a8187612fb5565b90506134496020830186612e12565b6134566040830185612e12565b81810360608301526134688184612fb5565b905095945050505050565b6000602082019050818103600083015261348c8161301f565b9050919050565b600060208201905081810360008301526134ac8161305f565b9050919050565b600060208201905081810360008301526134cd81846130df565b905092915050565b600060a08201905081810360008301526134ef8188613176565b905081810360208301526135038187612f12565b90506135126040830186612f03565b81810360608301526135248185613214565b905081810360808301526135388184613214565b90509695505050505050565b6000602082019050818103600083015261355e8184613214565b905092915050565b6000604051905081810181811067ffffffffffffffff8211171561358957600080fd5b8060405250919050565b600067ffffffffffffffff8211156135aa57600080fd5b602082029050602081019050919050565b600067ffffffffffffffff8211156135d257600080fd5b601f19601f8301169050602081019050919050565b600067ffffffffffffffff8211156135fe57600080fd5b601f19601f8301169050602081019050919050565b6000819050602082019050919050565b6000819050602082019050919050565b600081519050919050565b600081519050919050565b600081519050919050565b600081519050919050565b6000602082019050919050565b6000602082019050919050565b600082825260208201905092915050565b600082825260208201905092915050565b600082825260208201905092915050565b600082825260208201905092915050565b600081905092915050565b60006136d3826136f8565b9050919050565b60006136e5826136f8565b9050919050565b60008115159050919050565b600073ffffffffffffffffffffffffffffffffffffffff82169050919050565b82818337600083830152505050565b60005b8381101561374557808201518184015260208101905061372a565b83811115613754576000848401525b50505050565b6000601f19601f8301169050919050565b613774816136c8565b811461377f57600080fd5b5056fea365627a7a7231582076d7d487d74eb23815c00b340615ab40a17000eb2362283199628c3853ac5f146c6578706572696d656e74616cf564736f6c63430005100040",
  "source": "pragma solidity ^0.5.0;\r\npragma experimental ABIEncoderV2;\r\ncontract Main{\r\n    struct Farmer{\r\n        address id;\r\n        string name;\r\n        string region;\r\n        bool isVerified;\r\n        bool isValue; //to verify value exists in mapping or not\r\n        string [] rawProducts;        \r\n    }\r\n    struct Manufacturer{\r\n        address id;\r\n        string name;\r\n        mapping(string => address) rawProducts;\r\n        bool isRenewableUsed;\r\n    }\r\n\r\n    struct Product{\r\n        string name;\r\n        address ownership;\r\n        address manufacturer;\r\n        string[] rawProducts;\r\n        bool[] rawProductsVerification;\r\n        string serialNo;\r\n    }\r\n\r\n    // enum Role {Distributer, Retailer, Consumer, Manufacturer}\r\n\r\n    struct Stakeholder{\r\n        address id;\r\n        string name;\r\n        string role;\r\n        bool isValue; //to verify value exists in mapping or not\r\n    }\r\n\r\n    mapping(address => Farmer) public farmers;\r\n    mapping(address => Manufacturer) public manufacturers;\r\n    mapping(string => Product) public products;\r\n    mapping(address => Stakeholder) public stakeholders;\r\n\r\n    address payable public admin;\r\n    constructor() public {\r\n        admin = msg.sender;        \r\n    }\r\n\r\n    // Modifier to ensure only the admin access a function\r\n    modifier verifyAdmin( address id) {\r\n        require(id == admin, \"Unauthorized\");\r\n        _;\r\n    }\r\n\r\n    /**\r\n     * Function to get the role of the passed address\r\n     */\r\n    function checkIdentity(address id) public view returns(string memory) {\r\n        if(id == admin) return \"Admin\";\r\n        else if(farmers[id].isValue) return \"Farmer\";\r\n        else if(stakeholders[id].isValue) return stakeholders[id].role;\r\n        else return \"NewAddress\";\r\n    }\r\n\r\n    /**\r\n     * Function to add a new farmer on the application\r\n     */\r\n    function registerFarmer(\r\n        string memory name,\r\n        string memory region,\r\n        string[] memory rawProducts\r\n    ) public {\r\n        farmers[msg.sender] = Farmer(msg.sender,name,region,false,true,rawProducts);\r\n    }\r\n    /**\r\n     * Function to verify a farmer\r\n     */\r\n    function verifyFarmer(address id) public verifyAdmin(msg.sender) {\r\n        farmers[id].isVerified = true;\r\n    }\r\n    /**\r\n     * function to find a farmer by address\r\n     */\r\n    function findFarmer(address id) public view returns(Farmer memory){\r\n        return farmers[id];\r\n    }\r\n\r\n    // /**\r\n    //  * Function to add a new manufacturer on the application\r\n    //  */\r\n    // function registerManufacturer(string memory name) public {\r\n    //     manufacturers[msg.sender] = Manufacturer({\r\n    //         id: msg.sender,\r\n    //         name: name,\r\n    //         isRenewableUsed: false\r\n    //     });\r\n    // }\r\n    /**\r\n     * Function to set the isRenewableUsed for a manufacturer\r\n     */\r\n    function updateManufacturerRenewable(address id) public verifyAdmin(msg.sender){\r\n        manufacturers[id].isRenewableUsed = true;\r\n    }\r\n    /**\r\n     * Function to add a rawproduct for a manufacturer\r\n     */\r\n    function updateManufacturerRawProducts(        \r\n        string memory rawProductName,\r\n        address farmerAddress\r\n    ) public {\r\n        manufacturers[msg.sender].rawProducts[rawProductName] = farmerAddress;\r\n    }\r\n    /**\r\n     * function to find a manufacturer by address\r\n     */\r\n    function findManufacturer(address id) public view returns(string memory,bool){\r\n        return(\r\n            manufacturers[id].name,\r\n            manufacturers[id].isRenewableUsed\r\n        );\r\n    }\r\n\r\n    function registerStakeHolder(\r\n        string memory name,\r\n        string memory role\r\n    ) public {\r\n        stakeholders[msg.sender] = Stakeholder(msg.sender,name,role,true);\r\n        if(keccak256(abi.encodePacked(role)) == keccak256(abi.encodePacked(\"Manufacturer\"))){\r\n            manufacturers[msg.sender] = Manufacturer({\r\n                id: msg.sender,\r\n                name: name,\r\n                isRenewableUsed: false\r\n            });\r\n        }\r\n    }\r\n\r\n    /**\r\n     * function to find a stackholder by address\r\n     */\r\n    function findStakeholder(address id) public view returns(Stakeholder memory){\r\n        return stakeholders[id];\r\n    }\r\n\r\n    function launchProduct(\r\n        string memory name,\r\n        string[] memory rawProducts,\r\n        string memory serialNo\r\n    ) public {\r\n        bool[] memory rawProductsVerification = new bool[](rawProducts.length);\r\n        for(uint i=0;i<rawProducts.length;i++){\r\n            rawProductsVerification[i] = farmers[manufacturers[msg.sender].rawProducts[rawProducts[i]]].isVerified;\r\n        }\r\n        products[serialNo] = Product(name,msg.sender,msg.sender,rawProducts,rawProductsVerification,serialNo);\r\n    }\r\n\r\n    function transferOwnership(\r\n        address newOwner,\r\n        string memory serialNo\r\n    ) public {\r\n        require(products[serialNo].ownership==msg.sender,\"Invalid Ownership\");\r\n        products[serialNo].ownership = newOwner;\r\n    }\r\n\r\n    function verifyProduct(\r\n        string memory serialNo\r\n    ) public view returns (Product memory, string memory, bool, Stakeholder memory, Stakeholder memory){\r\n        Product memory product = products[serialNo];\r\n        Manufacturer memory manufacturerDetails = manufacturers[product.manufacturer];\r\n        Stakeholder memory manufacturer = stakeholders[product.manufacturer];\r\n        Stakeholder memory currentOwner = stakeholders[product.ownership];\r\n        return(\r\n            product,            \r\n            manufacturerDetails.name,\r\n            manufacturerDetails.isRenewableUsed,\r\n            manufacturer,\r\n            currentOwner\r\n        );\r\n    }\r\n\r\n}",
  "sourcePath": "C:\\Users\\Lakshya Bansal\\Desktop\\Major project\\supply-chain\\src\\Contracts\\Main.sol",
  "compiler": {
    "name": "solc",
    "version": "0.5.16+commit.9c3226ce.Emscripten.clang"
  },
  "schemaVersion": "3.4.3",
  "updatedAt": "2021-10-17T11:10:17.709Z",
  "networkType": "ethereum",
  "devdoc": {
    "methods": {}
  },
  "userdoc": {
    "methods": {
      "checkIdentity(address)": {
        "notice": "Function to get the role of the passed address"
      },
      "findFarmer(address)": {
        "notice": "function to find a farmer by address"
      },
      "findManufacturer(address)": {
        "notice": "function to find a manufacturer by address"
      },
      "findStakeholder(address)": {
        "notice": "function to find a stackholder by address"
      },
      "registerFarmer(string,string,string[])": {
        "notice": "Function to add a new farmer on the application"
      },
      "updateManufacturerRawProducts(string,address)": {
        "notice": "Function to add a rawproduct for a manufacturer"
      },
      "updateManufacturerRenewable(address)": {
        "notice": "Function to set the isRenewableUsed for a manufacturer"
      },
      "verifyFarmer(address)": {
        "notice": "Function to verify a farmer"
      }
    }
  }
}