{
  "contractName": "Main",
  "abi": [
    {
      "inputs": [
        {
          "internalType": "contract Farmer",
          "name": "_farmer",
          "type": "address"
        },
        {
          "internalType": "contract Manufacturer",
          "name": "_manufacturer",
          "type": "address"
        },
        {
          "internalType": "contract StakeHolder",
          "name": "_stakeHolder",
          "type": "address"
        },
        {
          "internalType": "contract Product",
          "name": "_product",
          "type": "address"
        }
      ],
      "payable": false,
      "stateMutability": "nonpayable",
      "type": "constructor"
    },
    {
      "constant": true,
      "inputs": [],
      "name": "adminAddress",
      "outputs": [
        {
          "internalType": "address",
          "name": "",
          "type": "address"
        }
      ],
      "payable": false,
      "stateMutability": "view",
      "type": "function"
    },
    {
      "constant": true,
      "inputs": [],
      "name": "farmer",
      "outputs": [
        {
          "internalType": "contract Farmer",
          "name": "",
          "type": "address"
        }
      ],
      "payable": false,
      "stateMutability": "view",
      "type": "function"
    },
    {
      "constant": true,
      "inputs": [],
      "name": "manufacturer",
      "outputs": [
        {
          "internalType": "contract Manufacturer",
          "name": "",
          "type": "address"
        }
      ],
      "payable": false,
      "stateMutability": "view",
      "type": "function"
    },
    {
      "constant": true,
      "inputs": [],
      "name": "product",
      "outputs": [
        {
          "internalType": "contract Product",
          "name": "",
          "type": "address"
        }
      ],
      "payable": false,
      "stateMutability": "view",
      "type": "function"
    },
    {
      "constant": true,
      "inputs": [],
      "name": "stakeHolder",
      "outputs": [
        {
          "internalType": "contract StakeHolder",
          "name": "",
          "type": "address"
        }
      ],
      "payable": false,
      "stateMutability": "view",
      "type": "function"
    }
  ],
  "bytecode": "0x608060405234801561001057600080fd5b506040516104793803806104798339818101604052608081101561003357600080fd5b810190808051906020019092919080519060200190929190805190602001909291908051906020019092919050505083600160006101000a81548173ffffffffffffffffffffffffffffffffffffffff021916908373ffffffffffffffffffffffffffffffffffffffff16021790555082600260006101000a81548173ffffffffffffffffffffffffffffffffffffffff021916908373ffffffffffffffffffffffffffffffffffffffff16021790555081600360006101000a81548173ffffffffffffffffffffffffffffffffffffffff021916908373ffffffffffffffffffffffffffffffffffffffff16021790555080600460006101000a81548173ffffffffffffffffffffffffffffffffffffffff021916908373ffffffffffffffffffffffffffffffffffffffff160217905550336000806101000a81548173ffffffffffffffffffffffffffffffffffffffff021916908373ffffffffffffffffffffffffffffffffffffffff160217905550505050506102c0806101b96000396000f3fe608060405234801561001057600080fd5b50600436106100575760003560e01c80630de621b81461005c57806374754282146100a6578063bf9ce952146100f0578063d811fcf01461013a578063fc6f946814610184575b600080fd5b6100646101ce565b604051808273ffffffffffffffffffffffffffffffffffffffff1673ffffffffffffffffffffffffffffffffffffffff16815260200191505060405180910390f35b6100ae6101f4565b604051808273ffffffffffffffffffffffffffffffffffffffff1673ffffffffffffffffffffffffffffffffffffffff16815260200191505060405180910390f35b6100f861021a565b604051808273ffffffffffffffffffffffffffffffffffffffff1673ffffffffffffffffffffffffffffffffffffffff16815260200191505060405180910390f35b610142610240565b604051808273ffffffffffffffffffffffffffffffffffffffff1673ffffffffffffffffffffffffffffffffffffffff16815260200191505060405180910390f35b61018c610266565b604051808273ffffffffffffffffffffffffffffffffffffffff1673ffffffffffffffffffffffffffffffffffffffff16815260200191505060405180910390f35b600360009054906101000a900473ffffffffffffffffffffffffffffffffffffffff1681565b600260009054906101000a900473ffffffffffffffffffffffffffffffffffffffff1681565b600460009054906101000a900473ffffffffffffffffffffffffffffffffffffffff1681565b600160009054906101000a900473ffffffffffffffffffffffffffffffffffffffff1681565b6000809054906101000a900473ffffffffffffffffffffffffffffffffffffffff168156fea265627a7a7231582007f111822cf2886c84d135290e61c07e61a08f436950fdf06f8634e4ef2695d664736f6c63430005100032",
  "source": "pragma solidity >=0.4.22 <0.9.0;\n\nimport './Farmer.sol';\nimport './Manufacturer.sol';\nimport './StakeHolder.sol';\nimport './Product.sol';\n\ncontract Main{\n\n    address public adminAddress;\n    Farmer public farmer;\n    Manufacturer public manufacturer;\n    StakeHolder public stakeHolder;\n    Product public product;\n    \n    constructor(Farmer _farmer, Manufacturer _manufacturer, StakeHolder _stakeHolder, Product _product) public {\n        farmer = _farmer;\n        manufacturer = _manufacturer;\n        stakeHolder = _stakeHolder;\n        product = _product;\n        adminAddress = msg.sender;\n    }\n\n    // function getRole(address id) public view returns(string memory){\n    //     if(farmer.getFarmer(id).isValue) return \"farmer\";\n    //     else if(manufacturer.getManufacturer(id).isValue) return \"manufacturer\";\n    //     else if(stakeHolder.getStakeHolder(id).isValue) return stakeHolder.getStakeHolder(id).role;\n    //     else return \"new_address\";\n    // }\n}",
  "sourcePath": "/home/lakshya/Desktop/Projects/Blockchain/SupplyChain/supply-chain/src/Contracts/Main.sol",
  "compiler": {
    "name": "solc",
    "version": "0.5.16+commit.9c3226ce.Emscripten.clang"
  },
  "schemaVersion": "3.4.4",
  "updatedAt": "2022-01-14T17:08:18.367Z",
  "networkType": "ethereum",
  "devdoc": {
    "methods": {}
  },
  "userdoc": {
    "methods": {}
  }
}