{
  "contractName": "Main",
  "abi": [
    {
      "inputs": [],
      "payable": false,
      "stateMutability": "nonpayable",
      "type": "constructor"
    },
    {
      "constant": true,
      "inputs": [],
      "name": "admin",
      "outputs": [
        {
          "internalType": "address payable",
          "name": "",
          "type": "address"
        }
      ],
      "payable": false,
      "stateMutability": "view",
      "type": "function"
    },
    {
      "constant": true,
      "inputs": [
        {
          "internalType": "address",
          "name": "",
          "type": "address"
        }
      ],
      "name": "farmers",
      "outputs": [
        {
          "internalType": "address",
          "name": "id",
          "type": "address"
        },
        {
          "internalType": "string",
          "name": "name",
          "type": "string"
        },
        {
          "internalType": "string",
          "name": "region",
          "type": "string"
        },
        {
          "internalType": "bool",
          "name": "isVerified",
          "type": "bool"
        },
        {
          "internalType": "bool",
          "name": "isValue",
          "type": "bool"
        }
      ],
      "payable": false,
      "stateMutability": "view",
      "type": "function"
    },
    {
      "constant": true,
      "inputs": [
        {
          "internalType": "address",
          "name": "",
          "type": "address"
        }
      ],
      "name": "manufacturers",
      "outputs": [
        {
          "internalType": "address",
          "name": "id",
          "type": "address"
        },
        {
          "internalType": "string",
          "name": "name",
          "type": "string"
        },
        {
          "internalType": "bool",
          "name": "isRenewableUsed",
          "type": "bool"
        }
      ],
      "payable": false,
      "stateMutability": "view",
      "type": "function"
    },
    {
      "constant": true,
      "inputs": [
        {
          "internalType": "string",
          "name": "",
          "type": "string"
        }
      ],
      "name": "products",
      "outputs": [
        {
          "internalType": "string",
          "name": "name",
          "type": "string"
        },
        {
          "internalType": "address",
          "name": "ownership",
          "type": "address"
        },
        {
          "internalType": "address",
          "name": "manufacturer",
          "type": "address"
        },
        {
          "internalType": "string",
          "name": "serialNo",
          "type": "string"
        }
      ],
      "payable": false,
      "stateMutability": "view",
      "type": "function"
    },
    {
      "constant": true,
      "inputs": [
        {
          "internalType": "address",
          "name": "",
          "type": "address"
        }
      ],
      "name": "stakeholders",
      "outputs": [
        {
          "internalType": "address",
          "name": "id",
          "type": "address"
        },
        {
          "internalType": "string",
          "name": "name",
          "type": "string"
        },
        {
          "internalType": "string",
          "name": "role",
          "type": "string"
        },
        {
          "internalType": "bool",
          "name": "isValue",
          "type": "bool"
        }
      ],
      "payable": false,
      "stateMutability": "view",
      "type": "function"
    },
    {
      "constant": true,
      "inputs": [
        {
          "internalType": "address",
          "name": "id",
          "type": "address"
        }
      ],
      "name": "checkIdentity",
      "outputs": [
        {
          "internalType": "string",
          "name": "",
          "type": "string"
        }
      ],
      "payable": false,
      "stateMutability": "view",
      "type": "function"
    },
    {
      "constant": false,
      "inputs": [
        {
          "internalType": "string",
          "name": "name",
          "type": "string"
        },
        {
          "internalType": "string",
          "name": "region",
          "type": "string"
        },
        {
          "internalType": "string[]",
          "name": "rawProducts",
          "type": "string[]"
        }
      ],
      "name": "registerFarmer",
      "outputs": [],
      "payable": false,
      "stateMutability": "nonpayable",
      "type": "function"
    },
    {
      "constant": false,
      "inputs": [
        {
          "internalType": "address",
          "name": "id",
          "type": "address"
        }
      ],
      "name": "verifyFarmer",
      "outputs": [],
      "payable": false,
      "stateMutability": "nonpayable",
      "type": "function"
    },
    {
      "constant": true,
      "inputs": [
        {
          "internalType": "address",
          "name": "id",
          "type": "address"
        }
      ],
      "name": "findFarmer",
      "outputs": [
        {
          "components": [
            {
              "internalType": "address",
              "name": "id",
              "type": "address"
            },
            {
              "internalType": "string",
              "name": "name",
              "type": "string"
            },
            {
              "internalType": "string",
              "name": "region",
              "type": "string"
            },
            {
              "internalType": "bool",
              "name": "isVerified",
              "type": "bool"
            },
            {
              "internalType": "bool",
              "name": "isValue",
              "type": "bool"
            },
            {
              "internalType": "string[]",
              "name": "rawProducts",
              "type": "string[]"
            }
          ],
          "internalType": "struct Main.Farmer",
          "name": "",
          "type": "tuple"
        }
      ],
      "payable": false,
      "stateMutability": "view",
      "type": "function"
    },
    {
      "constant": false,
      "inputs": [
        {
          "internalType": "address",
          "name": "id",
          "type": "address"
        }
      ],
      "name": "updateManufacturerRenewable",
      "outputs": [],
      "payable": false,
      "stateMutability": "nonpayable",
      "type": "function"
    },
    {
      "constant": false,
      "inputs": [
        {
          "internalType": "string[]",
          "name": "rawProducts",
          "type": "string[]"
        },
        {
          "internalType": "address[]",
          "name": "farmerAddresses",
          "type": "address[]"
        }
      ],
      "name": "updateManufacturerRawProducts",
      "outputs": [],
      "payable": false,
      "stateMutability": "nonpayable",
      "type": "function"
    },
    {
      "constant": true,
      "inputs": [
        {
          "internalType": "address",
          "name": "id",
          "type": "address"
        }
      ],
      "name": "findManufacturer",
      "outputs": [
        {
          "internalType": "string",
          "name": "",
          "type": "string"
        },
        {
          "internalType": "bool",
          "name": "",
          "type": "bool"
        }
      ],
      "payable": false,
      "stateMutability": "view",
      "type": "function"
    },
    {
      "constant": false,
      "inputs": [
        {
          "internalType": "string",
          "name": "name",
          "type": "string"
        },
        {
          "internalType": "string",
          "name": "role",
          "type": "string"
        }
      ],
      "name": "registerStakeHolder",
      "outputs": [],
      "payable": false,
      "stateMutability": "nonpayable",
      "type": "function"
    },
    {
      "constant": true,
      "inputs": [
        {
          "internalType": "address",
          "name": "id",
          "type": "address"
        }
      ],
      "name": "findStakeholder",
      "outputs": [
        {
          "components": [
            {
              "internalType": "address",
              "name": "id",
              "type": "address"
            },
            {
              "internalType": "string",
              "name": "name",
              "type": "string"
            },
            {
              "internalType": "string",
              "name": "role",
              "type": "string"
            },
            {
              "internalType": "bool",
              "name": "isValue",
              "type": "bool"
            }
          ],
          "internalType": "struct Main.Stakeholder",
          "name": "",
          "type": "tuple"
        }
      ],
      "payable": false,
      "stateMutability": "view",
      "type": "function"
    },
    {
      "constant": false,
      "inputs": [
        {
          "internalType": "string",
          "name": "name",
          "type": "string"
        },
        {
          "internalType": "string[]",
          "name": "rawProducts",
          "type": "string[]"
        },
        {
          "internalType": "string",
          "name": "serialNo",
          "type": "string"
        }
      ],
      "name": "launchProduct",
      "outputs": [],
      "payable": false,
      "stateMutability": "nonpayable",
      "type": "function"
    },
    {
      "constant": false,
      "inputs": [
        {
          "internalType": "address",
          "name": "newOwner",
          "type": "address"
        },
        {
          "internalType": "string",
          "name": "serialNo",
          "type": "string"
        }
      ],
      "name": "transferOwnership",
      "outputs": [],
      "payable": false,
      "stateMutability": "nonpayable",
      "type": "function"
    },
    {
      "constant": true,
      "inputs": [
        {
          "internalType": "string",
          "name": "serialNo",
          "type": "string"
        }
      ],
      "name": "verifyProduct",
      "outputs": [
        {
          "components": [
            {
              "internalType": "string",
              "name": "name",
              "type": "string"
            },
            {
              "internalType": "address",
              "name": "ownership",
              "type": "address"
            },
            {
              "internalType": "address",
              "name": "manufacturer",
              "type": "address"
            },
            {
              "internalType": "string[]",
              "name": "rawProducts",
              "type": "string[]"
            },
            {
              "internalType": "bool[]",
              "name": "rawProductsVerification",
              "type": "bool[]"
            },
            {
              "internalType": "string",
              "name": "serialNo",
              "type": "string"
            }
          ],
          "internalType": "struct Main.Product",
          "name": "",
          "type": "tuple"
        },
        {
          "internalType": "string",
          "name": "",
          "type": "string"
        },
        {
          "internalType": "bool",
          "name": "",
          "type": "bool"
        },
        {
          "components": [
            {
              "internalType": "address",
              "name": "id",
              "type": "address"
            },
            {
              "internalType": "string",
              "name": "name",
              "type": "string"
            },
            {
              "internalType": "string",
              "name": "role",
              "type": "string"
            },
            {
              "internalType": "bool",
              "name": "isValue",
              "type": "bool"
            }
          ],
          "internalType": "struct Main.Stakeholder",
          "name": "",
          "type": "tuple"
        }
      ],
      "payable": false,
      "stateMutability": "view",
      "type": "function"
    }
  ],
  "bytecode": "0x608060405234801561001057600080fd5b5033600460006101000a81548173ffffffffffffffffffffffffffffffffffffffff021916908373ffffffffffffffffffffffffffffffffffffffff16021790555061369a806100616000396000f3fe608060405234801561001057600080fd5b506004361061010b5760003560e01c806395fa56fd116100a2578063c07cfca911610071578063c07cfca9146102f9578063e56255431461032c578063e95cccb114610348578063edf5a5be14610378578063f851a440146103945761010b565b806395fa56fd1461027557806399499ca214610291578063a0158da3146102ad578063b465b0a0146102dd5761010b565b806330dd2afa116100de57806330dd2afa146101c0578063401b2168146101dc5780636b5eb09c1461021057806392efc453146102425761010b565b80630186a4231461011057806304b5dc7c14610143578063235db9f51461017357806324e54bd41461018f575b600080fd5b61012a60048036036101259190810190612a6e565b6103b2565b60405161013a94939291906132e2565b60405180910390f35b61015d60048036036101589190810190612985565b610568565b60405161016a9190613375565b60405180910390f35b61018d60048036036101889190810190612985565b610879565b005b6101a960048036036101a49190810190612985565b610968565b6040516101b79291906132b2565b60405180910390f35b6101da60048036036101d59190810190612bf3565b610aa3565b005b6101f660048036036101f19190810190612985565b610c10565b60405161020795949392919061322f565b60405180910390f35b61022a60048036036102259190810190612985565b610db0565b6040516102399392919061319e565b60405180910390f35b61025c60048036036102579190810190612aaf565b610e9f565b60405161026c9493929190613397565b60405180910390f35b61028f600480360361028a9190810190612b87565b6115d5565b005b6102ab60048036036102a69190810190612a02565b611843565b005b6102c760048036036102c29190810190612985565b611927565b6040516102d491906133f1565b60405180910390f35b6102f760048036036102f29190810190612af0565b611b35565b005b610313600480360361030e9190810190612985565b611e07565b60405161032394939291906131dc565b60405180910390f35b61034660048036036103419190810190612985565b611f94565b005b610362600480360361035d9190810190612985565b612083565b60405161036f9190613290565b60405180910390f35b610392600480360361038d91908101906129ae565b61231e565b005b61039c612431565b6040516103a99190613183565b60405180910390f35b600281805160208101820180518482526020830160208501208183528095505050505050600091509050806000018054600181600116156101000203166002900480601f0160208091040260200160405190810160405280929190818152602001828054600181600116156101000203166002900480156104745780601f1061044957610100808354040283529160200191610474565b820191906000526020600020905b81548152906001019060200180831161045757829003601f168201915b5050505050908060010160009054906101000a900473ffffffffffffffffffffffffffffffffffffffff16908060020160009054906101000a900473ffffffffffffffffffffffffffffffffffffffff1690806005018054600181600116156101000203166002900480601f01602080910402602001604051908101604052809291908181526020018280546001816001161561010002031660029004801561055e5780601f106105335761010080835404028352916020019161055e565b820191906000526020600020905b81548152906001019060200180831161054157829003601f168201915b5050505050905084565b610570612457565b6000808373ffffffffffffffffffffffffffffffffffffffff1673ffffffffffffffffffffffffffffffffffffffff1681526020019081526020016000206040518060c00160405290816000820160009054906101000a900473ffffffffffffffffffffffffffffffffffffffff1673ffffffffffffffffffffffffffffffffffffffff1673ffffffffffffffffffffffffffffffffffffffff168152602001600182018054600181600116156101000203166002900480601f0160208091040260200160405190810160405280929190818152602001828054600181600116156101000203166002900480156106a85780601f1061067d576101008083540402835291602001916106a8565b820191906000526020600020905b81548152906001019060200180831161068b57829003601f168201915b50505050508152602001600282018054600181600116156101000203166002900480601f01602080910402602001604051908101604052809291908181526020018280546001816001161561010002031660029004801561074a5780601f1061071f5761010080835404028352916020019161074a565b820191906000526020600020905b81548152906001019060200180831161072d57829003601f168201915b505050505081526020016003820160009054906101000a900460ff161515151581526020016003820160019054906101000a900460ff1615151515815260200160048201805480602002602001604051908101604052809291908181526020016000905b8282101561086a578382906000526020600020018054600181600116156101000203166002900480601f0160208091040260200160405190810160405280929190818152602001828054600181600116156101000203166002900480156108565780601f1061082b57610100808354040283529160200191610856565b820191906000526020600020905b81548152906001019060200180831161083957829003601f168201915b5050505050815260200190600101906107ae565b50505050815250509050919050565b33600460009054906101000a900473ffffffffffffffffffffffffffffffffffffffff1673ffffffffffffffffffffffffffffffffffffffff168173ffffffffffffffffffffffffffffffffffffffff161461090a576040517f08c379a000000000000000000000000000000000000000000000000000000000815260040161090190613335565b60405180910390fd5b60016000808473ffffffffffffffffffffffffffffffffffffffff1673ffffffffffffffffffffffffffffffffffffffff16815260200190815260200160002060030160006101000a81548160ff0219169083151502179055505050565b60606000600160008473ffffffffffffffffffffffffffffffffffffffff1673ffffffffffffffffffffffffffffffffffffffff168152602001908152602001600020600101600160008573ffffffffffffffffffffffffffffffffffffffff1673ffffffffffffffffffffffffffffffffffffffff16815260200190815260200160002060030160009054906101000a900460ff16818054600181600116156101000203166002900480601f016020809104026020016040519081016040528092919081815260200182805460018160011615610100020316600290048015610a935780601f10610a6857610100808354040283529160200191610a93565b820191906000526020600020905b815481529060010190602001808311610a7657829003601f168201915b5050505050915091509150915091565b6040518060c001604052803373ffffffffffffffffffffffffffffffffffffffff168152602001848152602001838152602001600015158152602001600115158152602001828152506000803373ffffffffffffffffffffffffffffffffffffffff1673ffffffffffffffffffffffffffffffffffffffff16815260200190815260200160002060008201518160000160006101000a81548173ffffffffffffffffffffffffffffffffffffffff021916908373ffffffffffffffffffffffffffffffffffffffff1602179055506020820151816001019080519060200190610b8d9291906124a7565b506040820151816002019080519060200190610baa9291906124a7565b5060608201518160030160006101000a81548160ff02191690831515021790555060808201518160030160016101000a81548160ff02191690831515021790555060a0820151816004019080519060200190610c07929190612527565b50905050505050565b60006020528060005260406000206000915090508060000160009054906101000a900473ffffffffffffffffffffffffffffffffffffffff1690806001018054600181600116156101000203166002900480601f016020809104026020016040519081016040528092919081815260200182805460018160011615610100020316600290048015610ce25780601f10610cb757610100808354040283529160200191610ce2565b820191906000526020600020905b815481529060010190602001808311610cc557829003601f168201915b505050505090806002018054600181600116156101000203166002900480601f016020809104026020016040519081016040528092919081815260200182805460018160011615610100020316600290048015610d805780601f10610d5557610100808354040283529160200191610d80565b820191906000526020600020905b815481529060010190602001808311610d6357829003601f168201915b5050505050908060030160009054906101000a900460ff16908060030160019054906101000a900460ff16905085565b60016020528060005260406000206000915090508060000160009054906101000a900473ffffffffffffffffffffffffffffffffffffffff1690806001018054600181600116156101000203166002900480601f016020809104026020016040519081016040528092919081815260200182805460018160011615610100020316600290048015610e825780601f10610e5757610100808354040283529160200191610e82565b820191906000526020600020905b815481529060010190602001808311610e6557829003601f168201915b5050505050908060030160009054906101000a900460ff16905083565b610ea7612587565b60606000610eb36125e9565b610ebb612587565b600286604051610ecb9190613157565b90815260200160405180910390206040518060c0016040529081600082018054600181600116156101000203166002900480601f016020809104026020016040519081016040528092919081815260200182805460018160011615610100020316600290048015610f7d5780601f10610f5257610100808354040283529160200191610f7d565b820191906000526020600020905b815481529060010190602001808311610f6057829003601f168201915b505050505081526020016001820160009054906101000a900473ffffffffffffffffffffffffffffffffffffffff1673ffffffffffffffffffffffffffffffffffffffff1673ffffffffffffffffffffffffffffffffffffffff1681526020016002820160009054906101000a900473ffffffffffffffffffffffffffffffffffffffff1673ffffffffffffffffffffffffffffffffffffffff1673ffffffffffffffffffffffffffffffffffffffff16815260200160038201805480602002602001604051908101604052809291908181526020016000905b82821015611113578382906000526020600020018054600181600116156101000203166002900480601f0160208091040260200160405190810160405280929190818152602001828054600181600116156101000203166002900480156110ff5780601f106110d4576101008083540402835291602001916110ff565b820191906000526020600020905b8154815290600101906020018083116110e257829003601f168201915b505050505081526020019060010190611057565b5050505081526020016004820180548060200260200160405190810160405280929190818152602001828054801561118f57602002820191906000526020600020906000905b82829054906101000a900460ff161515815260200190600101906020826000010492830192600103820291508084116111595790505b50505050508152602001600582018054600181600116156101000203166002900480601f0160208091040260200160405190810160405280929190818152602001828054600181600116156101000203166002900480156112315780601f1061120657610100808354040283529160200191611231565b820191906000526020600020905b81548152906001019060200180831161121457829003601f168201915b5050505050815250509050611244612629565b60016000836040015173ffffffffffffffffffffffffffffffffffffffff1673ffffffffffffffffffffffffffffffffffffffff1681526020019081526020016000206040518060600160405290816000820160009054906101000a900473ffffffffffffffffffffffffffffffffffffffff1673ffffffffffffffffffffffffffffffffffffffff1673ffffffffffffffffffffffffffffffffffffffff168152602001600182018054600181600116156101000203166002900480601f0160208091040260200160405190810160405280929190818152602001828054600181600116156101000203166002900480156113815780601f1061135657610100808354040283529160200191611381565b820191906000526020600020905b81548152906001019060200180831161136457829003601f168201915b505050505081526020016003820160009054906101000a900460ff16151515158152505090506113af6125e9565b60036000846020015173ffffffffffffffffffffffffffffffffffffffff1673ffffffffffffffffffffffffffffffffffffffff1681526020019081526020016000206040518060800160405290816000820160009054906101000a900473ffffffffffffffffffffffffffffffffffffffff1673ffffffffffffffffffffffffffffffffffffffff1673ffffffffffffffffffffffffffffffffffffffff168152602001600182018054600181600116156101000203166002900480601f0160208091040260200160405190810160405280929190818152602001828054600181600116156101000203166002900480156114ec5780601f106114c1576101008083540402835291602001916114ec565b820191906000526020600020905b8154815290600101906020018083116114cf57829003601f168201915b50505050508152602001600282018054600181600116156101000203166002900480601f01602080910402602001604051908101604052809291908181526020018280546001816001161561010002031660029004801561158e5780601f106115635761010080835404028352916020019161158e565b820191906000526020600020905b81548152906001019060200180831161157157829003601f168201915b505050505081526020016003820160009054906101000a900460ff161515151581525050905082826020015183604001518382925096509650965096505050509193509193565b60405180608001604052803373ffffffffffffffffffffffffffffffffffffffff16815260200183815260200182815260200160011515815250600360003373ffffffffffffffffffffffffffffffffffffffff1673ffffffffffffffffffffffffffffffffffffffff16815260200190815260200160002060008201518160000160006101000a81548173ffffffffffffffffffffffffffffffffffffffff021916908373ffffffffffffffffffffffffffffffffffffffff16021790555060208201518160010190805190602001906116b19291906124a7565b5060408201518160020190805190602001906116ce9291906124a7565b5060608201518160030160006101000a81548160ff0219169083151502179055509050506040516020016117019061316e565b60405160208183030381529060405280519060200120816040516020016117289190613157565b60405160208183030381529060405280519060200120141561183f5760405180606001604052803373ffffffffffffffffffffffffffffffffffffffff16815260200183815260200160001515815250600160003373ffffffffffffffffffffffffffffffffffffffff1673ffffffffffffffffffffffffffffffffffffffff16815260200190815260200160002060008201518160000160006101000a81548173ffffffffffffffffffffffffffffffffffffffff021916908373ffffffffffffffffffffffffffffffffffffffff160217905550602082015181600101908051906020019061181a9291906124a7565b5060408201518160030160006101000a81548160ff0219169083151502179055509050505b5050565b60008090505b82518110156119225781818151811061185e57fe5b6020026020010151600160003373ffffffffffffffffffffffffffffffffffffffff1673ffffffffffffffffffffffffffffffffffffffff1681526020019081526020016000206002018483815181106118b457fe5b60200260200101516040516118c99190613140565b908152602001604051809103902060006101000a81548173ffffffffffffffffffffffffffffffffffffffff021916908373ffffffffffffffffffffffffffffffffffffffff1602179055508080600101915050611849565b505050565b61192f6125e9565b600360008373ffffffffffffffffffffffffffffffffffffffff1673ffffffffffffffffffffffffffffffffffffffff1681526020019081526020016000206040518060800160405290816000820160009054906101000a900473ffffffffffffffffffffffffffffffffffffffff1673ffffffffffffffffffffffffffffffffffffffff1673ffffffffffffffffffffffffffffffffffffffff168152602001600182018054600181600116156101000203166002900480601f016020809104026020016040519081016040528092919081815260200182805460018160011615610100020316600290048015611a685780601f10611a3d57610100808354040283529160200191611a68565b820191906000526020600020905b815481529060010190602001808311611a4b57829003601f168201915b50505050508152602001600282018054600181600116156101000203166002900480601f016020809104026020016040519081016040528092919081815260200182805460018160011615610100020316600290048015611b0a5780601f10611adf57610100808354040283529160200191611b0a565b820191906000526020600020905b815481529060010190602001808311611aed57829003601f168201915b505050505081526020016003820160009054906101000a900460ff1615151515815250509050919050565b60608251604051908082528060200260200182016040528015611b675781602001602082028038833980820191505090505b50905060008090505b8351811015611c8457600080600160003373ffffffffffffffffffffffffffffffffffffffff1673ffffffffffffffffffffffffffffffffffffffff168152602001908152602001600020600201868481518110611bca57fe5b6020026020010151604051611bdf9190613140565b908152602001604051809103902060009054906101000a900473ffffffffffffffffffffffffffffffffffffffff1673ffffffffffffffffffffffffffffffffffffffff1673ffffffffffffffffffffffffffffffffffffffff16815260200190815260200160002060030160009054906101000a900460ff16828281518110611c6557fe5b6020026020010190151590811515815250508080600101915050611b70565b506040518060c001604052808581526020013373ffffffffffffffffffffffffffffffffffffffff1681526020013373ffffffffffffffffffffffffffffffffffffffff16815260200184815260200182815260200183815250600283604051611cee9190613157565b90815260200160405180910390206000820151816000019080519060200190611d189291906124a7565b5060208201518160010160006101000a81548173ffffffffffffffffffffffffffffffffffffffff021916908373ffffffffffffffffffffffffffffffffffffffff16021790555060408201518160020160006101000a81548173ffffffffffffffffffffffffffffffffffffffff021916908373ffffffffffffffffffffffffffffffffffffffff1602179055506060820151816003019080519060200190611dc3929190612527565b506080820151816004019080519060200190611de0929190612662565b5060a0820151816005019080519060200190611dfd9291906124a7565b5090505050505050565b60036020528060005260406000206000915090508060000160009054906101000a900473ffffffffffffffffffffffffffffffffffffffff1690806001018054600181600116156101000203166002900480601f016020809104026020016040519081016040528092919081815260200182805460018160011615610100020316600290048015611ed95780601f10611eae57610100808354040283529160200191611ed9565b820191906000526020600020905b815481529060010190602001808311611ebc57829003601f168201915b505050505090806002018054600181600116156101000203166002900480601f016020809104026020016040519081016040528092919081815260200182805460018160011615610100020316600290048015611f775780601f10611f4c57610100808354040283529160200191611f77565b820191906000526020600020905b815481529060010190602001808311611f5a57829003601f168201915b5050505050908060030160009054906101000a900460ff16905084565b33600460009054906101000a900473ffffffffffffffffffffffffffffffffffffffff1673ffffffffffffffffffffffffffffffffffffffff168173ffffffffffffffffffffffffffffffffffffffff1614612025576040517f08c379a000000000000000000000000000000000000000000000000000000000815260040161201c90613335565b60405180910390fd5b60018060008473ffffffffffffffffffffffffffffffffffffffff1673ffffffffffffffffffffffffffffffffffffffff16815260200190815260200160002060030160006101000a81548160ff0219169083151502179055505050565b6060600460009054906101000a900473ffffffffffffffffffffffffffffffffffffffff1673ffffffffffffffffffffffffffffffffffffffff168273ffffffffffffffffffffffffffffffffffffffff161415612118576040518060400160405280600581526020017f41646d696e0000000000000000000000000000000000000000000000000000008152509050612319565b6000808373ffffffffffffffffffffffffffffffffffffffff1673ffffffffffffffffffffffffffffffffffffffff16815260200190815260200160002060030160019054906101000a900460ff16156121a9576040518060400160405280600681526020017f4661726d657200000000000000000000000000000000000000000000000000008152509050612319565b600360008373ffffffffffffffffffffffffffffffffffffffff1673ffffffffffffffffffffffffffffffffffffffff16815260200190815260200160002060030160009054906101000a900460ff16156122e057600360008373ffffffffffffffffffffffffffffffffffffffff1673ffffffffffffffffffffffffffffffffffffffff1681526020019081526020016000206002018054600181600116156101000203166002900480601f0160208091040260200160405190810160405280929190818152602001828054600181600116156101000203166002900480156122d45780601f106122a9576101008083540402835291602001916122d4565b820191906000526020600020905b8154815290600101906020018083116122b757829003601f168201915b50505050509050612319565b6040518060400160405280600a81526020017f4e6577416464726573730000000000000000000000000000000000000000000081525090505b919050565b3373ffffffffffffffffffffffffffffffffffffffff166002826040516123459190613157565b908152602001604051809103902060010160009054906101000a900473ffffffffffffffffffffffffffffffffffffffff1673ffffffffffffffffffffffffffffffffffffffff16146123cd576040517f08c379a00000000000000000000000000000000000000000000000000000000081526004016123c490613355565b60405180910390fd5b816002826040516123de9190613157565b908152602001604051809103902060010160006101000a81548173ffffffffffffffffffffffffffffffffffffffff021916908373ffffffffffffffffffffffffffffffffffffffff1602179055505050565b600460009054906101000a900473ffffffffffffffffffffffffffffffffffffffff1681565b6040518060c00160405280600073ffffffffffffffffffffffffffffffffffffffff1681526020016060815260200160608152602001600015158152602001600015158152602001606081525090565b828054600181600116156101000203166002900490600052602060002090601f016020900481019282601f106124e857805160ff1916838001178555612516565b82800160010185558215612516579182015b828111156125155782518255916020019190600101906124fa565b5b5090506125239190612708565b5090565b828054828255906000526020600020908101928215612576579160200282015b828111156125755782518290805190602001906125659291906124a7565b5091602001919060010190612547565b5b509050612583919061272d565b5090565b6040518060c0016040528060608152602001600073ffffffffffffffffffffffffffffffffffffffff168152602001600073ffffffffffffffffffffffffffffffffffffffff1681526020016060815260200160608152602001606081525090565b6040518060800160405280600073ffffffffffffffffffffffffffffffffffffffff16815260200160608152602001606081526020016000151581525090565b6040518060600160405280600073ffffffffffffffffffffffffffffffffffffffff168152602001606081526020016000151581525090565b82805482825590600052602060002090601f016020900481019282156126f75791602002820160005b838211156126c857835183826101000a81548160ff021916908315150217905550926020019260010160208160000104928301926001030261268b565b80156126f55782816101000a81549060ff02191690556001016020816000010492830192600103026126c8565b505b5090506127049190612759565b5090565b61272a91905b8082111561272657600081600090555060010161270e565b5090565b90565b61275691905b8082111561275257600081816127499190612789565b50600101612733565b5090565b90565b61278691905b8082111561278257600081816101000a81549060ff02191690555060010161275f565b5090565b90565b50805460018160011615610100020316600290046000825580601f106127af57506127ce565b601f0160209004906000526020600020908101906127cd9190612708565b5b50565b6000813590506127e081613640565b92915050565b600082601f8301126127f757600080fd5b813561280a61280582613440565b613413565b9150818183526020840193506020810190508385602084028201111561282f57600080fd5b60005b8381101561285f578161284588826127d1565b845260208401935060208301925050600181019050612832565b5050505092915050565b600082601f83011261287a57600080fd5b813561288d61288882613468565b613413565b9150818183526020840193506020810190508360005b838110156128d357813586016128b988826128dd565b8452602084019350602083019250506001810190506128a3565b5050505092915050565b600082601f8301126128ee57600080fd5b81356129016128fc82613490565b613413565b9150808252602083016020830185838301111561291d57600080fd5b6129288382846135ed565b50505092915050565b600082601f83011261294257600080fd5b8135612955612950826134bc565b613413565b9150808252602083016020830185838301111561297157600080fd5b61297c8382846135ed565b50505092915050565b60006020828403121561299757600080fd5b60006129a5848285016127d1565b91505092915050565b600080604083850312156129c157600080fd5b60006129cf858286016127d1565b925050602083013567ffffffffffffffff8111156129ec57600080fd5b6129f885828601612931565b9150509250929050565b60008060408385031215612a1557600080fd5b600083013567ffffffffffffffff811115612a2f57600080fd5b612a3b85828601612869565b925050602083013567ffffffffffffffff811115612a5857600080fd5b612a64858286016127e6565b9150509250929050565b600060208284031215612a8057600080fd5b600082013567ffffffffffffffff811115612a9a57600080fd5b612aa6848285016128dd565b91505092915050565b600060208284031215612ac157600080fd5b600082013567ffffffffffffffff811115612adb57600080fd5b612ae784828501612931565b91505092915050565b600080600060608486031215612b0557600080fd5b600084013567ffffffffffffffff811115612b1f57600080fd5b612b2b86828701612931565b935050602084013567ffffffffffffffff811115612b4857600080fd5b612b5486828701612869565b925050604084013567ffffffffffffffff811115612b7157600080fd5b612b7d86828701612931565b9150509250925092565b60008060408385031215612b9a57600080fd5b600083013567ffffffffffffffff811115612bb457600080fd5b612bc085828601612931565b925050602083013567ffffffffffffffff811115612bdd57600080fd5b612be985828601612931565b9150509250929050565b600080600060608486031215612c0857600080fd5b600084013567ffffffffffffffff811115612c2257600080fd5b612c2e86828701612931565b935050602084013567ffffffffffffffff811115612c4b57600080fd5b612c5786828701612931565b925050604084013567ffffffffffffffff811115612c7457600080fd5b612c8086828701612869565b9150509250925092565b6000612c968383612db6565b60208301905092915050565b6000612cae8383612e3e565b905092915050565b612cbf816135af565b82525050565b612cce8161359d565b82525050565b612cdd8161359d565b82525050565b6000612cee82613508565b612cf8818561354e565b9350612d03836134e8565b8060005b83811015612d34578151612d1b8882612c8a565b9750612d2683613534565b925050600181019050612d07565b5085935050505092915050565b6000612d4c82613513565b612d56818561355f565b935083602082028501612d68856134f8565b8060005b85811015612da45784840389528151612d858582612ca2565b9450612d9083613541565b925060208a01995050600181019050612d6c565b50829750879550505050505092915050565b612dbf816135c1565b82525050565b612dce816135c1565b82525050565b6000612ddf82613529565b612de98185613581565b9350612df98185602086016135fc565b612e028161362f565b840191505092915050565b6000612e1882613529565b612e228185613592565b9350612e328185602086016135fc565b80840191505092915050565b6000612e498261351e565b612e538185613570565b9350612e638185602086016135fc565b612e6c8161362f565b840191505092915050565b6000612e828261351e565b612e8c8185613581565b9350612e9c8185602086016135fc565b612ea58161362f565b840191505092915050565b6000612ebb8261351e565b612ec58185613592565b9350612ed58185602086016135fc565b80840191505092915050565b6000612eee600c83613581565b91507f556e617574686f72697a656400000000000000000000000000000000000000006000830152602082019050919050565b6000612f2e601183613581565b91507f496e76616c6964204f776e6572736869700000000000000000000000000000006000830152602082019050919050565b6000612f6e600c83613592565b91507f4d616e75666163747572657200000000000000000000000000000000000000006000830152600c82019050919050565b600060c083016000830151612fb96000860182612cc5565b5060208301518482036020860152612fd18282612e3e565b91505060408301518482036040860152612feb8282612e3e565b91505060608301516130006060860182612db6565b5060808301516130136080860182612db6565b5060a083015184820360a086015261302b8282612d41565b9150508091505092915050565b600060c08301600083015184820360008601526130558282612e3e565b915050602083015161306a6020860182612cc5565b50604083015161307d6040860182612cc5565b50606083015184820360608601526130958282612d41565b915050608083015184820360808601526130af8282612ce3565b91505060a083015184820360a08601526130c98282612e3e565b9150508091505092915050565b60006080830160008301516130ee6000860182612cc5565b50602083015184820360208601526131068282612e3e565b915050604083015184820360408601526131208282612e3e565b91505060608301516131356060860182612db6565b508091505092915050565b600061314c8284612eb0565b915081905092915050565b60006131638284612e0d565b915081905092915050565b600061317982612f61565b9150819050919050565b60006020820190506131986000830184612cb6565b92915050565b60006060820190506131b36000830186612cd4565b81810360208301526131c58185612e77565b90506131d46040830184612dc5565b949350505050565b60006080820190506131f16000830187612cd4565b81810360208301526132038186612e77565b905081810360408301526132178185612e77565b90506132266060830184612dc5565b95945050505050565b600060a0820190506132446000830188612cd4565b81810360208301526132568187612e77565b9050818103604083015261326a8186612e77565b90506132796060830185612dc5565b6132866080830184612dc5565b9695505050505050565b600060208201905081810360008301526132aa8184612dd4565b905092915050565b600060408201905081810360008301526132cc8185612dd4565b90506132db6020830184612dc5565b9392505050565b600060808201905081810360008301526132fc8187612e77565b905061330b6020830186612cd4565b6133186040830185612cd4565b818103606083015261332a8184612e77565b905095945050505050565b6000602082019050818103600083015261334e81612ee1565b9050919050565b6000602082019050818103600083015261336e81612f21565b9050919050565b6000602082019050818103600083015261338f8184612fa1565b905092915050565b600060808201905081810360008301526133b18187613038565b905081810360208301526133c58186612dd4565b90506133d46040830185612dc5565b81810360608301526133e681846130d6565b905095945050505050565b6000602082019050818103600083015261340b81846130d6565b905092915050565b6000604051905081810181811067ffffffffffffffff8211171561343657600080fd5b8060405250919050565b600067ffffffffffffffff82111561345757600080fd5b602082029050602081019050919050565b600067ffffffffffffffff82111561347f57600080fd5b602082029050602081019050919050565b600067ffffffffffffffff8211156134a757600080fd5b601f19601f8301169050602081019050919050565b600067ffffffffffffffff8211156134d357600080fd5b601f19601f8301169050602081019050919050565b6000819050602082019050919050565b6000819050602082019050919050565b600081519050919050565b600081519050919050565b600081519050919050565b600081519050919050565b6000602082019050919050565b6000602082019050919050565b600082825260208201905092915050565b600082825260208201905092915050565b600082825260208201905092915050565b600082825260208201905092915050565b600081905092915050565b60006135a8826135cd565b9050919050565b60006135ba826135cd565b9050919050565b60008115159050919050565b600073ffffffffffffffffffffffffffffffffffffffff82169050919050565b82818337600083830152505050565b60005b8381101561361a5780820151818401526020810190506135ff565b83811115613629576000848401525b50505050565b6000601f19601f8301169050919050565b6136498161359d565b811461365457600080fd5b5056fea365627a7a72315820c51bd54b4eacda19c05e498eba6f1273022f48ce00bd15b59cf9fd2a18a9a7a36c6578706572696d656e74616cf564736f6c63430005100040",
  "source": "pragma solidity ^0.5.0;\r\npragma experimental ABIEncoderV2;\r\ncontract Main{\r\n    struct Farmer{\r\n        address id;\r\n        string name;\r\n        string region;\r\n        bool isVerified;\r\n        bool isValue; //to verify value exists in mapping or not\r\n        string [] rawProducts;        \r\n    }\r\n    struct Manufacturer{\r\n        address id;\r\n        string name;\r\n        mapping(string => address) rawProducts;\r\n        bool isRenewableUsed;\r\n    }\r\n\r\n    struct Product{\r\n        string name;\r\n        address ownership;\r\n        address manufacturer;\r\n        string[] rawProducts;\r\n        bool[] rawProductsVerification;\r\n        string serialNo;\r\n    }\r\n\r\n    // enum Role {Distributer, Retailer, Consumer, Manufacturer}\r\n\r\n    struct Stakeholder{\r\n        address id;\r\n        string name;\r\n        string role;\r\n        bool isValue; //to verify value exists in mapping or not\r\n    }\r\n\r\n    mapping(address => Farmer) public farmers;\r\n    mapping(address => Manufacturer) public manufacturers;\r\n    mapping(string => Product) public products;\r\n    mapping(address => Stakeholder) public stakeholders;\r\n\r\n    address payable public admin;\r\n    constructor() public {\r\n        admin = msg.sender;        \r\n    }\r\n\r\n    // Modifier to ensure only the admin access a function\r\n    modifier verifyAdmin( address id) {\r\n        require(id == admin, \"Unauthorized\");\r\n        _;\r\n    }\r\n\r\n    /**\r\n     * Function to get the role of the passed address\r\n     */\r\n    function checkIdentity(address id) public view returns(string memory) {\r\n        if(id == admin) return \"Admin\";\r\n        else if(farmers[id].isValue) return \"Farmer\";\r\n        else if(stakeholders[id].isValue) return stakeholders[id].role;\r\n        else return \"NewAddress\";\r\n    }\r\n\r\n    /**\r\n     * Function to add a new farmer on the application\r\n     */\r\n    function registerFarmer(\r\n        string memory name,\r\n        string memory region,\r\n        string[] memory rawProducts\r\n    ) public {\r\n        farmers[msg.sender] = Farmer(msg.sender,name,region,false,true,rawProducts);\r\n    }\r\n    /**\r\n     * Function to verify a farmer\r\n     */\r\n    function verifyFarmer(address id) public verifyAdmin(msg.sender) {\r\n        farmers[id].isVerified = true;\r\n    }\r\n    /**\r\n     * function to find a farmer by address\r\n     */\r\n    function findFarmer(address id) public view returns(Farmer memory){\r\n        return farmers[id];\r\n    }\r\n\r\n    // /**\r\n    //  * Function to add a new manufacturer on the application\r\n    //  */\r\n    // function registerManufacturer(string memory name) public {\r\n    //     manufacturers[msg.sender] = Manufacturer({\r\n    //         id: msg.sender,\r\n    //         name: name,\r\n    //         isRenewableUsed: false\r\n    //     });\r\n    // }\r\n    /**\r\n     * Function to set the isRenewableUsed for a manufacturer\r\n     */\r\n    function updateManufacturerRenewable(address id) public verifyAdmin(msg.sender){\r\n        manufacturers[id].isRenewableUsed = true;\r\n    }\r\n    /**\r\n     * Function to add a rawproduct for a manufacturer\r\n     */\r\n    function updateManufacturerRawProducts(        \r\n        string[] memory rawProducts,\r\n        address[] memory farmerAddresses\r\n    ) public {\r\n        //manufacturers[msg.sender].rawProducts[rawProductName] = farmerAddress;\r\n        for(uint i = 0;i< rawProducts.length; i++){\r\n            manufacturers[msg.sender].rawProducts[rawProducts[i]] = farmerAddresses[i];\r\n        }\r\n    }\r\n    /**\r\n     * function to find a manufacturer by address\r\n     */\r\n    function findManufacturer(address id) public view returns(string memory,bool){\r\n        return(\r\n            manufacturers[id].name,\r\n            manufacturers[id].isRenewableUsed\r\n        );\r\n    }\r\n\r\n    function registerStakeHolder(\r\n        string memory name,\r\n        string memory role\r\n    ) public {\r\n        stakeholders[msg.sender] = Stakeholder(msg.sender,name,role,true);\r\n        if(keccak256(abi.encodePacked(role)) == keccak256(abi.encodePacked(\"Manufacturer\"))){\r\n            manufacturers[msg.sender] = Manufacturer({\r\n                id: msg.sender,\r\n                name: name,\r\n                isRenewableUsed: false\r\n            });\r\n        }\r\n    }\r\n\r\n    /**\r\n     * function to find a stackholder by address\r\n     */\r\n    function findStakeholder(address id) public view returns(Stakeholder memory){\r\n        return stakeholders[id];\r\n    }\r\n\r\n    function launchProduct(\r\n        string memory name,\r\n        string[] memory rawProducts,\r\n        string memory serialNo\r\n    ) public {\r\n        bool[] memory rawProductsVerification = new bool[](rawProducts.length);\r\n        for(uint i=0;i<rawProducts.length;i++){\r\n            rawProductsVerification[i] = farmers[manufacturers[msg.sender].rawProducts[rawProducts[i]]].isVerified;\r\n        }\r\n        products[serialNo] = Product(name,msg.sender,msg.sender,rawProducts,rawProductsVerification,serialNo);\r\n    }\r\n\r\n    function transferOwnership(\r\n        address newOwner,\r\n        string memory serialNo\r\n    ) public {\r\n        require(products[serialNo].ownership==msg.sender,\"Invalid Ownership\");\r\n        products[serialNo].ownership = newOwner;\r\n    }\r\n\r\n    function verifyProduct(\r\n        string memory serialNo\r\n    ) public view returns (Product memory, string memory, bool, Stakeholder memory){\r\n        Product memory product = products[serialNo];\r\n        Manufacturer memory manufacturerDetails = manufacturers[product.manufacturer];\r\n        // Stakeholder memory manufacturer = stakeholders[product.manufacturer];\r\n        Stakeholder memory currentOwner = stakeholders[product.ownership];\r\n        return(\r\n            product,            \r\n            manufacturerDetails.name,\r\n            manufacturerDetails.isRenewableUsed,\r\n            currentOwner\r\n        );\r\n    }\r\n\r\n}",
  "sourcePath": "D:\\Blockchain\\supply-chain\\src\\Contracts\\Main.sol",
  "compiler": {
    "name": "solc",
    "version": "0.5.16+commit.9c3226ce.Emscripten.clang"
  },
  "schemaVersion": "3.4.3",
  "updatedAt": "2021-11-23T18:35:57.752Z",
  "networkType": "ethereum",
  "devdoc": {
    "methods": {}
  },
  "userdoc": {
    "methods": {
      "checkIdentity(address)": {
        "notice": "Function to get the role of the passed address"
      },
      "findFarmer(address)": {
        "notice": "function to find a farmer by address"
      },
      "findManufacturer(address)": {
        "notice": "function to find a manufacturer by address"
      },
      "findStakeholder(address)": {
        "notice": "function to find a stackholder by address"
      },
      "registerFarmer(string,string,string[])": {
        "notice": "Function to add a new farmer on the application"
      },
      "updateManufacturerRawProducts(string[],address[])": {
        "notice": "Function to add a rawproduct for a manufacturer"
      },
      "updateManufacturerRenewable(address)": {
        "notice": "Function to set the isRenewableUsed for a manufacturer"
      },
      "verifyFarmer(address)": {
        "notice": "Function to verify a farmer"
      }
    }
  }
}