{
  "contractName": "Main",
  "abi": [
    {
      "inputs": [],
      "payable": false,
      "stateMutability": "nonpayable",
      "type": "constructor"
    },
    {
      "constant": true,
      "inputs": [],
      "name": "admin",
      "outputs": [
        {
          "internalType": "address payable",
          "name": "",
          "type": "address"
        }
      ],
      "payable": false,
      "stateMutability": "view",
      "type": "function"
    },
    {
      "constant": true,
      "inputs": [
        {
          "internalType": "address",
          "name": "",
          "type": "address"
        }
      ],
      "name": "farmers",
      "outputs": [
        {
          "internalType": "address",
          "name": "id",
          "type": "address"
        },
        {
          "internalType": "string",
          "name": "name",
          "type": "string"
        },
        {
          "internalType": "string",
          "name": "region",
          "type": "string"
        },
        {
          "internalType": "bool",
          "name": "isVerified",
          "type": "bool"
        },
        {
          "internalType": "bool",
          "name": "isValue",
          "type": "bool"
        }
      ],
      "payable": false,
      "stateMutability": "view",
      "type": "function"
    },
    {
      "constant": true,
      "inputs": [
        {
          "internalType": "address",
          "name": "",
          "type": "address"
        }
      ],
      "name": "manufacturers",
      "outputs": [
        {
          "internalType": "address",
          "name": "id",
          "type": "address"
        },
        {
          "internalType": "string",
          "name": "name",
          "type": "string"
        },
        {
          "internalType": "bool",
          "name": "isRenewableUsed",
          "type": "bool"
        }
      ],
      "payable": false,
      "stateMutability": "view",
      "type": "function"
    },
    {
      "constant": true,
      "inputs": [
        {
          "internalType": "string",
          "name": "",
          "type": "string"
        }
      ],
      "name": "products",
      "outputs": [
        {
          "internalType": "string",
          "name": "name",
          "type": "string"
        },
        {
          "internalType": "address",
          "name": "ownership",
          "type": "address"
        },
        {
          "internalType": "address",
          "name": "manufacturer",
          "type": "address"
        },
        {
          "internalType": "string",
          "name": "serialNo",
          "type": "string"
        }
      ],
      "payable": false,
      "stateMutability": "view",
      "type": "function"
    },
    {
      "constant": true,
      "inputs": [
        {
          "internalType": "address",
          "name": "",
          "type": "address"
        }
      ],
      "name": "stakeholders",
      "outputs": [
        {
          "internalType": "address",
          "name": "id",
          "type": "address"
        },
        {
          "internalType": "string",
          "name": "name",
          "type": "string"
        },
        {
          "internalType": "string",
          "name": "role",
          "type": "string"
        },
        {
          "internalType": "bool",
          "name": "isValue",
          "type": "bool"
        }
      ],
      "payable": false,
      "stateMutability": "view",
      "type": "function"
    },
    {
      "constant": true,
      "inputs": [
        {
          "internalType": "address",
          "name": "id",
          "type": "address"
        }
      ],
      "name": "checkIdentity",
      "outputs": [
        {
          "internalType": "string",
          "name": "",
          "type": "string"
        }
      ],
      "payable": false,
      "stateMutability": "view",
      "type": "function"
    },
    {
      "constant": false,
      "inputs": [
        {
          "internalType": "string",
          "name": "name",
          "type": "string"
        },
        {
          "internalType": "string",
          "name": "region",
          "type": "string"
        },
        {
          "internalType": "string[]",
          "name": "rawProducts",
          "type": "string[]"
        }
      ],
      "name": "registerFarmer",
      "outputs": [],
      "payable": false,
      "stateMutability": "nonpayable",
      "type": "function"
    },
    {
      "constant": false,
      "inputs": [
        {
          "internalType": "address",
          "name": "id",
          "type": "address"
        }
      ],
      "name": "verifyFarmer",
      "outputs": [],
      "payable": false,
      "stateMutability": "nonpayable",
      "type": "function"
    },
    {
      "constant": true,
      "inputs": [
        {
          "internalType": "address",
          "name": "id",
          "type": "address"
        }
      ],
      "name": "findFarmer",
      "outputs": [
        {
          "components": [
            {
              "internalType": "address",
              "name": "id",
              "type": "address"
            },
            {
              "internalType": "string",
              "name": "name",
              "type": "string"
            },
            {
              "internalType": "string",
              "name": "region",
              "type": "string"
            },
            {
              "internalType": "bool",
              "name": "isVerified",
              "type": "bool"
            },
            {
              "internalType": "bool",
              "name": "isValue",
              "type": "bool"
            },
            {
              "internalType": "string[]",
              "name": "rawProducts",
              "type": "string[]"
            }
          ],
          "internalType": "struct Main.Farmer",
          "name": "",
          "type": "tuple"
        }
      ],
      "payable": false,
      "stateMutability": "view",
      "type": "function"
    },
    {
      "constant": false,
      "inputs": [
        {
          "internalType": "address",
          "name": "id",
          "type": "address"
        }
      ],
      "name": "updateManufacturerRenewable",
      "outputs": [],
      "payable": false,
      "stateMutability": "nonpayable",
      "type": "function"
    },
    {
      "constant": false,
      "inputs": [
        {
          "internalType": "string[]",
          "name": "rawProducts",
          "type": "string[]"
        },
        {
          "internalType": "address[]",
          "name": "farmerAddresses",
          "type": "address[]"
        }
      ],
      "name": "updateManufacturerRawProducts",
      "outputs": [],
      "payable": false,
      "stateMutability": "nonpayable",
      "type": "function"
    },
    {
      "constant": true,
      "inputs": [
        {
          "internalType": "address",
          "name": "id",
          "type": "address"
        }
      ],
      "name": "findManufacturer",
      "outputs": [
        {
          "internalType": "string",
          "name": "",
          "type": "string"
        },
        {
          "internalType": "bool",
          "name": "",
          "type": "bool"
        }
      ],
      "payable": false,
      "stateMutability": "view",
      "type": "function"
    },
    {
      "constant": false,
      "inputs": [
        {
          "internalType": "string",
          "name": "name",
          "type": "string"
        },
        {
          "internalType": "string",
          "name": "role",
          "type": "string"
        }
      ],
      "name": "registerStakeHolder",
      "outputs": [],
      "payable": false,
      "stateMutability": "nonpayable",
      "type": "function"
    },
    {
      "constant": true,
      "inputs": [
        {
          "internalType": "address",
          "name": "id",
          "type": "address"
        }
      ],
      "name": "findStakeholder",
      "outputs": [
        {
          "components": [
            {
              "internalType": "address",
              "name": "id",
              "type": "address"
            },
            {
              "internalType": "string",
              "name": "name",
              "type": "string"
            },
            {
              "internalType": "string",
              "name": "role",
              "type": "string"
            },
            {
              "internalType": "bool",
              "name": "isValue",
              "type": "bool"
            }
          ],
          "internalType": "struct Main.Stakeholder",
          "name": "",
          "type": "tuple"
        }
      ],
      "payable": false,
      "stateMutability": "view",
      "type": "function"
    },
    {
      "constant": false,
      "inputs": [
        {
          "internalType": "string",
          "name": "name",
          "type": "string"
        },
        {
          "internalType": "string[]",
          "name": "rawProducts",
          "type": "string[]"
        },
        {
          "internalType": "string",
          "name": "serialNo",
          "type": "string"
        }
      ],
      "name": "launchProduct",
      "outputs": [],
      "payable": false,
      "stateMutability": "nonpayable",
      "type": "function"
    },
    {
      "constant": false,
      "inputs": [
        {
          "internalType": "address",
          "name": "newOwner",
          "type": "address"
        },
        {
          "internalType": "string",
          "name": "serialNo",
          "type": "string"
        }
      ],
      "name": "transferOwnership",
      "outputs": [],
      "payable": false,
      "stateMutability": "nonpayable",
      "type": "function"
    },
    {
      "constant": true,
      "inputs": [
        {
          "internalType": "string",
          "name": "serialNo",
          "type": "string"
        }
      ],
      "name": "verifyProduct",
      "outputs": [
        {
          "components": [
            {
              "internalType": "string",
              "name": "name",
              "type": "string"
            },
            {
              "internalType": "address",
              "name": "ownership",
              "type": "address"
            },
            {
              "internalType": "address",
              "name": "manufacturer",
              "type": "address"
            },
            {
              "internalType": "string[]",
              "name": "rawProducts",
              "type": "string[]"
            },
            {
              "internalType": "bool[]",
              "name": "rawProductsVerification",
              "type": "bool[]"
            },
            {
              "internalType": "string",
              "name": "serialNo",
              "type": "string"
            }
          ],
          "internalType": "struct Main.Product",
          "name": "",
          "type": "tuple"
        },
        {
          "internalType": "string",
          "name": "",
          "type": "string"
        },
        {
          "internalType": "bool",
          "name": "",
          "type": "bool"
        },
        {
          "components": [
            {
              "internalType": "address",
              "name": "id",
              "type": "address"
            },
            {
              "internalType": "string",
              "name": "name",
              "type": "string"
            },
            {
              "internalType": "string",
              "name": "role",
              "type": "string"
            },
            {
              "internalType": "bool",
              "name": "isValue",
              "type": "bool"
            }
          ],
          "internalType": "struct Main.Stakeholder",
          "name": "",
          "type": "tuple"
        },
        {
          "components": [
            {
              "internalType": "address",
              "name": "id",
              "type": "address"
            },
            {
              "internalType": "string",
              "name": "name",
              "type": "string"
            },
            {
              "internalType": "string",
              "name": "role",
              "type": "string"
            },
            {
              "internalType": "bool",
              "name": "isValue",
              "type": "bool"
            }
          ],
          "internalType": "struct Main.Stakeholder",
          "name": "",
          "type": "tuple"
        }
      ],
      "payable": false,
      "stateMutability": "view",
      "type": "function"
    }
  ],
  "bytecode": "0x608060405234801561001057600080fd5b5033600460006101000a81548173ffffffffffffffffffffffffffffffffffffffff021916908373ffffffffffffffffffffffffffffffffffffffff1602179055506138cb806100616000396000f3fe608060405234801561001057600080fd5b506004361061010b5760003560e01c806395fa56fd116100a2578063c07cfca911610071578063c07cfca9146102fa578063e56255431461032d578063e95cccb114610349578063edf5a5be14610379578063f851a440146103955761010b565b806395fa56fd1461027657806399499ca214610292578063a0158da3146102ae578063b465b0a0146102de5761010b565b806330dd2afa116100de57806330dd2afa146101c0578063401b2168146101dc5780636b5eb09c1461021057806392efc453146102425761010b565b80630186a4231461011057806304b5dc7c14610143578063235db9f51461017357806324e54bd41461018f575b600080fd5b61012a60048036036101259190810190612c8a565b6103b3565b60405161013a94939291906134fe565b60405180910390f35b61015d60048036036101589190810190612ba1565b610569565b60405161016a9190613591565b60405180910390f35b61018d60048036036101889190810190612ba1565b61087a565b005b6101a960048036036101a49190810190612ba1565b610969565b6040516101b79291906134ce565b60405180910390f35b6101da60048036036101d59190810190612e0f565b610aa4565b005b6101f660048036036101f19190810190612ba1565b610c11565b60405161020795949392919061344b565b60405180910390f35b61022a60048036036102259190810190612ba1565b610db1565b604051610239939291906133ba565b60405180910390f35b61025c60048036036102579190810190612ccb565b610ea0565b60405161026d9594939291906135b3565b60405180910390f35b610290600480360361028b9190810190612da3565b6117f1565b005b6102ac60048036036102a79190810190612c1e565b611a5f565b005b6102c860048036036102c39190810190612ba1565b611b43565b6040516102d59190613622565b60405180910390f35b6102f860048036036102f39190810190612d0c565b611d51565b005b610314600480360361030f9190810190612ba1565b612023565b60405161032494939291906133f8565b60405180910390f35b61034760048036036103429190810190612ba1565b6121b0565b005b610363600480360361035e9190810190612ba1565b61229f565b60405161037091906134ac565b60405180910390f35b610393600480360361038e9190810190612bca565b61253a565b005b61039d61264d565b6040516103aa919061339f565b60405180910390f35b600281805160208101820180518482526020830160208501208183528095505050505050600091509050806000018054600181600116156101000203166002900480601f0160208091040260200160405190810160405280929190818152602001828054600181600116156101000203166002900480156104755780601f1061044a57610100808354040283529160200191610475565b820191906000526020600020905b81548152906001019060200180831161045857829003601f168201915b5050505050908060010160009054906101000a900473ffffffffffffffffffffffffffffffffffffffff16908060020160009054906101000a900473ffffffffffffffffffffffffffffffffffffffff1690806005018054600181600116156101000203166002900480601f01602080910402602001604051908101604052809291908181526020018280546001816001161561010002031660029004801561055f5780601f106105345761010080835404028352916020019161055f565b820191906000526020600020905b81548152906001019060200180831161054257829003601f168201915b5050505050905084565b610571612673565b6000808373ffffffffffffffffffffffffffffffffffffffff1673ffffffffffffffffffffffffffffffffffffffff1681526020019081526020016000206040518060c00160405290816000820160009054906101000a900473ffffffffffffffffffffffffffffffffffffffff1673ffffffffffffffffffffffffffffffffffffffff1673ffffffffffffffffffffffffffffffffffffffff168152602001600182018054600181600116156101000203166002900480601f0160208091040260200160405190810160405280929190818152602001828054600181600116156101000203166002900480156106a95780601f1061067e576101008083540402835291602001916106a9565b820191906000526020600020905b81548152906001019060200180831161068c57829003601f168201915b50505050508152602001600282018054600181600116156101000203166002900480601f01602080910402602001604051908101604052809291908181526020018280546001816001161561010002031660029004801561074b5780601f106107205761010080835404028352916020019161074b565b820191906000526020600020905b81548152906001019060200180831161072e57829003601f168201915b505050505081526020016003820160009054906101000a900460ff161515151581526020016003820160019054906101000a900460ff1615151515815260200160048201805480602002602001604051908101604052809291908181526020016000905b8282101561086b578382906000526020600020018054600181600116156101000203166002900480601f0160208091040260200160405190810160405280929190818152602001828054600181600116156101000203166002900480156108575780601f1061082c57610100808354040283529160200191610857565b820191906000526020600020905b81548152906001019060200180831161083a57829003601f168201915b5050505050815260200190600101906107af565b50505050815250509050919050565b33600460009054906101000a900473ffffffffffffffffffffffffffffffffffffffff1673ffffffffffffffffffffffffffffffffffffffff168173ffffffffffffffffffffffffffffffffffffffff161461090b576040517f08c379a000000000000000000000000000000000000000000000000000000000815260040161090290613551565b60405180910390fd5b60016000808473ffffffffffffffffffffffffffffffffffffffff1673ffffffffffffffffffffffffffffffffffffffff16815260200190815260200160002060030160006101000a81548160ff0219169083151502179055505050565b60606000600160008473ffffffffffffffffffffffffffffffffffffffff1673ffffffffffffffffffffffffffffffffffffffff168152602001908152602001600020600101600160008573ffffffffffffffffffffffffffffffffffffffff1673ffffffffffffffffffffffffffffffffffffffff16815260200190815260200160002060030160009054906101000a900460ff16818054600181600116156101000203166002900480601f016020809104026020016040519081016040528092919081815260200182805460018160011615610100020316600290048015610a945780601f10610a6957610100808354040283529160200191610a94565b820191906000526020600020905b815481529060010190602001808311610a7757829003601f168201915b5050505050915091509150915091565b6040518060c001604052803373ffffffffffffffffffffffffffffffffffffffff168152602001848152602001838152602001600015158152602001600115158152602001828152506000803373ffffffffffffffffffffffffffffffffffffffff1673ffffffffffffffffffffffffffffffffffffffff16815260200190815260200160002060008201518160000160006101000a81548173ffffffffffffffffffffffffffffffffffffffff021916908373ffffffffffffffffffffffffffffffffffffffff1602179055506020820151816001019080519060200190610b8e9291906126c3565b506040820151816002019080519060200190610bab9291906126c3565b5060608201518160030160006101000a81548160ff02191690831515021790555060808201518160030160016101000a81548160ff02191690831515021790555060a0820151816004019080519060200190610c08929190612743565b50905050505050565b60006020528060005260406000206000915090508060000160009054906101000a900473ffffffffffffffffffffffffffffffffffffffff1690806001018054600181600116156101000203166002900480601f016020809104026020016040519081016040528092919081815260200182805460018160011615610100020316600290048015610ce35780601f10610cb857610100808354040283529160200191610ce3565b820191906000526020600020905b815481529060010190602001808311610cc657829003601f168201915b505050505090806002018054600181600116156101000203166002900480601f016020809104026020016040519081016040528092919081815260200182805460018160011615610100020316600290048015610d815780601f10610d5657610100808354040283529160200191610d81565b820191906000526020600020905b815481529060010190602001808311610d6457829003601f168201915b5050505050908060030160009054906101000a900460ff16908060030160019054906101000a900460ff16905085565b60016020528060005260406000206000915090508060000160009054906101000a900473ffffffffffffffffffffffffffffffffffffffff1690806001018054600181600116156101000203166002900480601f016020809104026020016040519081016040528092919081815260200182805460018160011615610100020316600290048015610e835780601f10610e5857610100808354040283529160200191610e83565b820191906000526020600020905b815481529060010190602001808311610e6657829003601f168201915b5050505050908060030160009054906101000a900460ff16905083565b610ea86127a3565b60606000610eb4612805565b610ebc612805565b610ec46127a3565b600287604051610ed49190613373565b90815260200160405180910390206040518060c0016040529081600082018054600181600116156101000203166002900480601f016020809104026020016040519081016040528092919081815260200182805460018160011615610100020316600290048015610f865780601f10610f5b57610100808354040283529160200191610f86565b820191906000526020600020905b815481529060010190602001808311610f6957829003601f168201915b505050505081526020016001820160009054906101000a900473ffffffffffffffffffffffffffffffffffffffff1673ffffffffffffffffffffffffffffffffffffffff1673ffffffffffffffffffffffffffffffffffffffff1681526020016002820160009054906101000a900473ffffffffffffffffffffffffffffffffffffffff1673ffffffffffffffffffffffffffffffffffffffff1673ffffffffffffffffffffffffffffffffffffffff16815260200160038201805480602002602001604051908101604052809291908181526020016000905b8282101561111c578382906000526020600020018054600181600116156101000203166002900480601f0160208091040260200160405190810160405280929190818152602001828054600181600116156101000203166002900480156111085780601f106110dd57610100808354040283529160200191611108565b820191906000526020600020905b8154815290600101906020018083116110eb57829003601f168201915b505050505081526020019060010190611060565b5050505081526020016004820180548060200260200160405190810160405280929190818152602001828054801561119857602002820191906000526020600020906000905b82829054906101000a900460ff161515815260200190600101906020826000010492830192600103820291508084116111625790505b50505050508152602001600582018054600181600116156101000203166002900480601f01602080910402602001604051908101604052809291908181526020018280546001816001161561010002031660029004801561123a5780601f1061120f5761010080835404028352916020019161123a565b820191906000526020600020905b81548152906001019060200180831161121d57829003601f168201915b505050505081525050905061124d612845565b60016000836040015173ffffffffffffffffffffffffffffffffffffffff1673ffffffffffffffffffffffffffffffffffffffff1681526020019081526020016000206040518060600160405290816000820160009054906101000a900473ffffffffffffffffffffffffffffffffffffffff1673ffffffffffffffffffffffffffffffffffffffff1673ffffffffffffffffffffffffffffffffffffffff168152602001600182018054600181600116156101000203166002900480601f01602080910402602001604051908101604052809291908181526020018280546001816001161561010002031660029004801561138a5780601f1061135f5761010080835404028352916020019161138a565b820191906000526020600020905b81548152906001019060200180831161136d57829003601f168201915b505050505081526020016003820160009054906101000a900460ff16151515158152505090506113b8612805565b60036000846040015173ffffffffffffffffffffffffffffffffffffffff1673ffffffffffffffffffffffffffffffffffffffff1681526020019081526020016000206040518060800160405290816000820160009054906101000a900473ffffffffffffffffffffffffffffffffffffffff1673ffffffffffffffffffffffffffffffffffffffff1673ffffffffffffffffffffffffffffffffffffffff168152602001600182018054600181600116156101000203166002900480601f0160208091040260200160405190810160405280929190818152602001828054600181600116156101000203166002900480156114f55780601f106114ca576101008083540402835291602001916114f5565b820191906000526020600020905b8154815290600101906020018083116114d857829003601f168201915b50505050508152602001600282018054600181600116156101000203166002900480601f0160208091040260200160405190810160405280929190818152602001828054600181600116156101000203166002900480156115975780601f1061156c57610100808354040283529160200191611597565b820191906000526020600020905b81548152906001019060200180831161157a57829003601f168201915b505050505081526020016003820160009054906101000a900460ff16151515158152505090506115c5612805565b60036000856020015173ffffffffffffffffffffffffffffffffffffffff1673ffffffffffffffffffffffffffffffffffffffff1681526020019081526020016000206040518060800160405290816000820160009054906101000a900473ffffffffffffffffffffffffffffffffffffffff1673ffffffffffffffffffffffffffffffffffffffff1673ffffffffffffffffffffffffffffffffffffffff168152602001600182018054600181600116156101000203166002900480601f0160208091040260200160405190810160405280929190818152602001828054600181600116156101000203166002900480156117025780601f106116d757610100808354040283529160200191611702565b820191906000526020600020905b8154815290600101906020018083116116e557829003601f168201915b50505050508152602001600282018054600181600116156101000203166002900480601f0160208091040260200160405190810160405280929190818152602001828054600181600116156101000203166002900480156117a45780601f10611779576101008083540402835291602001916117a4565b820191906000526020600020905b81548152906001019060200180831161178757829003601f168201915b505050505081526020016003820160009054906101000a900460ff161515151581525050905083836020015184604001518484839350985098509850985098505050505091939590929450565b60405180608001604052803373ffffffffffffffffffffffffffffffffffffffff16815260200183815260200182815260200160011515815250600360003373ffffffffffffffffffffffffffffffffffffffff1673ffffffffffffffffffffffffffffffffffffffff16815260200190815260200160002060008201518160000160006101000a81548173ffffffffffffffffffffffffffffffffffffffff021916908373ffffffffffffffffffffffffffffffffffffffff16021790555060208201518160010190805190602001906118cd9291906126c3565b5060408201518160020190805190602001906118ea9291906126c3565b5060608201518160030160006101000a81548160ff02191690831515021790555090505060405160200161191d9061338a565b60405160208183030381529060405280519060200120816040516020016119449190613373565b604051602081830303815290604052805190602001201415611a5b5760405180606001604052803373ffffffffffffffffffffffffffffffffffffffff16815260200183815260200160001515815250600160003373ffffffffffffffffffffffffffffffffffffffff1673ffffffffffffffffffffffffffffffffffffffff16815260200190815260200160002060008201518160000160006101000a81548173ffffffffffffffffffffffffffffffffffffffff021916908373ffffffffffffffffffffffffffffffffffffffff1602179055506020820151816001019080519060200190611a369291906126c3565b5060408201518160030160006101000a81548160ff0219169083151502179055509050505b5050565b60008090505b8251811015611b3e57818181518110611a7a57fe5b6020026020010151600160003373ffffffffffffffffffffffffffffffffffffffff1673ffffffffffffffffffffffffffffffffffffffff168152602001908152602001600020600201848381518110611ad057fe5b6020026020010151604051611ae5919061335c565b908152602001604051809103902060006101000a81548173ffffffffffffffffffffffffffffffffffffffff021916908373ffffffffffffffffffffffffffffffffffffffff1602179055508080600101915050611a65565b505050565b611b4b612805565b600360008373ffffffffffffffffffffffffffffffffffffffff1673ffffffffffffffffffffffffffffffffffffffff1681526020019081526020016000206040518060800160405290816000820160009054906101000a900473ffffffffffffffffffffffffffffffffffffffff1673ffffffffffffffffffffffffffffffffffffffff1673ffffffffffffffffffffffffffffffffffffffff168152602001600182018054600181600116156101000203166002900480601f016020809104026020016040519081016040528092919081815260200182805460018160011615610100020316600290048015611c845780601f10611c5957610100808354040283529160200191611c84565b820191906000526020600020905b815481529060010190602001808311611c6757829003601f168201915b50505050508152602001600282018054600181600116156101000203166002900480601f016020809104026020016040519081016040528092919081815260200182805460018160011615610100020316600290048015611d265780601f10611cfb57610100808354040283529160200191611d26565b820191906000526020600020905b815481529060010190602001808311611d0957829003601f168201915b505050505081526020016003820160009054906101000a900460ff1615151515815250509050919050565b60608251604051908082528060200260200182016040528015611d835781602001602082028038833980820191505090505b50905060008090505b8351811015611ea057600080600160003373ffffffffffffffffffffffffffffffffffffffff1673ffffffffffffffffffffffffffffffffffffffff168152602001908152602001600020600201868481518110611de657fe5b6020026020010151604051611dfb919061335c565b908152602001604051809103902060009054906101000a900473ffffffffffffffffffffffffffffffffffffffff1673ffffffffffffffffffffffffffffffffffffffff1673ffffffffffffffffffffffffffffffffffffffff16815260200190815260200160002060030160009054906101000a900460ff16828281518110611e8157fe5b6020026020010190151590811515815250508080600101915050611d8c565b506040518060c001604052808581526020013373ffffffffffffffffffffffffffffffffffffffff1681526020013373ffffffffffffffffffffffffffffffffffffffff16815260200184815260200182815260200183815250600283604051611f0a9190613373565b90815260200160405180910390206000820151816000019080519060200190611f349291906126c3565b5060208201518160010160006101000a81548173ffffffffffffffffffffffffffffffffffffffff021916908373ffffffffffffffffffffffffffffffffffffffff16021790555060408201518160020160006101000a81548173ffffffffffffffffffffffffffffffffffffffff021916908373ffffffffffffffffffffffffffffffffffffffff1602179055506060820151816003019080519060200190611fdf929190612743565b506080820151816004019080519060200190611ffc92919061287e565b5060a08201518160050190805190602001906120199291906126c3565b5090505050505050565b60036020528060005260406000206000915090508060000160009054906101000a900473ffffffffffffffffffffffffffffffffffffffff1690806001018054600181600116156101000203166002900480601f0160208091040260200160405190810160405280929190818152602001828054600181600116156101000203166002900480156120f55780601f106120ca576101008083540402835291602001916120f5565b820191906000526020600020905b8154815290600101906020018083116120d857829003601f168201915b505050505090806002018054600181600116156101000203166002900480601f0160208091040260200160405190810160405280929190818152602001828054600181600116156101000203166002900480156121935780601f1061216857610100808354040283529160200191612193565b820191906000526020600020905b81548152906001019060200180831161217657829003601f168201915b5050505050908060030160009054906101000a900460ff16905084565b33600460009054906101000a900473ffffffffffffffffffffffffffffffffffffffff1673ffffffffffffffffffffffffffffffffffffffff168173ffffffffffffffffffffffffffffffffffffffff1614612241576040517f08c379a000000000000000000000000000000000000000000000000000000000815260040161223890613551565b60405180910390fd5b60018060008473ffffffffffffffffffffffffffffffffffffffff1673ffffffffffffffffffffffffffffffffffffffff16815260200190815260200160002060030160006101000a81548160ff0219169083151502179055505050565b6060600460009054906101000a900473ffffffffffffffffffffffffffffffffffffffff1673ffffffffffffffffffffffffffffffffffffffff168273ffffffffffffffffffffffffffffffffffffffff161415612334576040518060400160405280600581526020017f41646d696e0000000000000000000000000000000000000000000000000000008152509050612535565b6000808373ffffffffffffffffffffffffffffffffffffffff1673ffffffffffffffffffffffffffffffffffffffff16815260200190815260200160002060030160019054906101000a900460ff16156123c5576040518060400160405280600681526020017f4661726d657200000000000000000000000000000000000000000000000000008152509050612535565b600360008373ffffffffffffffffffffffffffffffffffffffff1673ffffffffffffffffffffffffffffffffffffffff16815260200190815260200160002060030160009054906101000a900460ff16156124fc57600360008373ffffffffffffffffffffffffffffffffffffffff1673ffffffffffffffffffffffffffffffffffffffff1681526020019081526020016000206002018054600181600116156101000203166002900480601f0160208091040260200160405190810160405280929190818152602001828054600181600116156101000203166002900480156124f05780601f106124c5576101008083540402835291602001916124f0565b820191906000526020600020905b8154815290600101906020018083116124d357829003601f168201915b50505050509050612535565b6040518060400160405280600a81526020017f4e6577416464726573730000000000000000000000000000000000000000000081525090505b919050565b3373ffffffffffffffffffffffffffffffffffffffff166002826040516125619190613373565b908152602001604051809103902060010160009054906101000a900473ffffffffffffffffffffffffffffffffffffffff1673ffffffffffffffffffffffffffffffffffffffff16146125e9576040517f08c379a00000000000000000000000000000000000000000000000000000000081526004016125e090613571565b60405180910390fd5b816002826040516125fa9190613373565b908152602001604051809103902060010160006101000a81548173ffffffffffffffffffffffffffffffffffffffff021916908373ffffffffffffffffffffffffffffffffffffffff1602179055505050565b600460009054906101000a900473ffffffffffffffffffffffffffffffffffffffff1681565b6040518060c00160405280600073ffffffffffffffffffffffffffffffffffffffff1681526020016060815260200160608152602001600015158152602001600015158152602001606081525090565b828054600181600116156101000203166002900490600052602060002090601f016020900481019282601f1061270457805160ff1916838001178555612732565b82800160010185558215612732579182015b82811115612731578251825591602001919060010190612716565b5b50905061273f9190612924565b5090565b828054828255906000526020600020908101928215612792579160200282015b828111156127915782518290805190602001906127819291906126c3565b5091602001919060010190612763565b5b50905061279f9190612949565b5090565b6040518060c0016040528060608152602001600073ffffffffffffffffffffffffffffffffffffffff168152602001600073ffffffffffffffffffffffffffffffffffffffff1681526020016060815260200160608152602001606081525090565b6040518060800160405280600073ffffffffffffffffffffffffffffffffffffffff16815260200160608152602001606081526020016000151581525090565b6040518060600160405280600073ffffffffffffffffffffffffffffffffffffffff168152602001606081526020016000151581525090565b82805482825590600052602060002090601f016020900481019282156129135791602002820160005b838211156128e457835183826101000a81548160ff02191690831515021790555092602001926001016020816000010492830192600103026128a7565b80156129115782816101000a81549060ff02191690556001016020816000010492830192600103026128e4565b505b5090506129209190612975565b5090565b61294691905b8082111561294257600081600090555060010161292a565b5090565b90565b61297291905b8082111561296e576000818161296591906129a5565b5060010161294f565b5090565b90565b6129a291905b8082111561299e57600081816101000a81549060ff02191690555060010161297b565b5090565b90565b50805460018160011615610100020316600290046000825580601f106129cb57506129ea565b601f0160209004906000526020600020908101906129e99190612924565b5b50565b6000813590506129fc81613871565b92915050565b600082601f830112612a1357600080fd5b8135612a26612a2182613671565b613644565b91508181835260208401935060208101905083856020840282011115612a4b57600080fd5b60005b83811015612a7b5781612a6188826129ed565b845260208401935060208301925050600181019050612a4e565b5050505092915050565b600082601f830112612a9657600080fd5b8135612aa9612aa482613699565b613644565b9150818183526020840193506020810190508360005b83811015612aef5781358601612ad58882612af9565b845260208401935060208301925050600181019050612abf565b5050505092915050565b600082601f830112612b0a57600080fd5b8135612b1d612b18826136c1565b613644565b91508082526020830160208301858383011115612b3957600080fd5b612b4483828461381e565b50505092915050565b600082601f830112612b5e57600080fd5b8135612b71612b6c826136ed565b613644565b91508082526020830160208301858383011115612b8d57600080fd5b612b9883828461381e565b50505092915050565b600060208284031215612bb357600080fd5b6000612bc1848285016129ed565b91505092915050565b60008060408385031215612bdd57600080fd5b6000612beb858286016129ed565b925050602083013567ffffffffffffffff811115612c0857600080fd5b612c1485828601612b4d565b9150509250929050565b60008060408385031215612c3157600080fd5b600083013567ffffffffffffffff811115612c4b57600080fd5b612c5785828601612a85565b925050602083013567ffffffffffffffff811115612c7457600080fd5b612c8085828601612a02565b9150509250929050565b600060208284031215612c9c57600080fd5b600082013567ffffffffffffffff811115612cb657600080fd5b612cc284828501612af9565b91505092915050565b600060208284031215612cdd57600080fd5b600082013567ffffffffffffffff811115612cf757600080fd5b612d0384828501612b4d565b91505092915050565b600080600060608486031215612d2157600080fd5b600084013567ffffffffffffffff811115612d3b57600080fd5b612d4786828701612b4d565b935050602084013567ffffffffffffffff811115612d6457600080fd5b612d7086828701612a85565b925050604084013567ffffffffffffffff811115612d8d57600080fd5b612d9986828701612b4d565b9150509250925092565b60008060408385031215612db657600080fd5b600083013567ffffffffffffffff811115612dd057600080fd5b612ddc85828601612b4d565b925050602083013567ffffffffffffffff811115612df957600080fd5b612e0585828601612b4d565b9150509250929050565b600080600060608486031215612e2457600080fd5b600084013567ffffffffffffffff811115612e3e57600080fd5b612e4a86828701612b4d565b935050602084013567ffffffffffffffff811115612e6757600080fd5b612e7386828701612b4d565b925050604084013567ffffffffffffffff811115612e9057600080fd5b612e9c86828701612a85565b9150509250925092565b6000612eb28383612fd2565b60208301905092915050565b6000612eca838361305a565b905092915050565b612edb816137e0565b82525050565b612eea816137ce565b82525050565b612ef9816137ce565b82525050565b6000612f0a82613739565b612f14818561377f565b9350612f1f83613719565b8060005b83811015612f50578151612f378882612ea6565b9750612f4283613765565b925050600181019050612f23565b5085935050505092915050565b6000612f6882613744565b612f728185613790565b935083602082028501612f8485613729565b8060005b85811015612fc05784840389528151612fa18582612ebe565b9450612fac83613772565b925060208a01995050600181019050612f88565b50829750879550505050505092915050565b612fdb816137f2565b82525050565b612fea816137f2565b82525050565b6000612ffb8261375a565b61300581856137b2565b935061301581856020860161382d565b61301e81613860565b840191505092915050565b60006130348261375a565b61303e81856137c3565b935061304e81856020860161382d565b80840191505092915050565b60006130658261374f565b61306f81856137a1565b935061307f81856020860161382d565b61308881613860565b840191505092915050565b600061309e8261374f565b6130a881856137b2565b93506130b881856020860161382d565b6130c181613860565b840191505092915050565b60006130d78261374f565b6130e181856137c3565b93506130f181856020860161382d565b80840191505092915050565b600061310a600c836137b2565b91507f556e617574686f72697a656400000000000000000000000000000000000000006000830152602082019050919050565b600061314a6011836137b2565b91507f496e76616c6964204f776e6572736869700000000000000000000000000000006000830152602082019050919050565b600061318a600c836137c3565b91507f4d616e75666163747572657200000000000000000000000000000000000000006000830152600c82019050919050565b600060c0830160008301516131d56000860182612ee1565b50602083015184820360208601526131ed828261305a565b91505060408301518482036040860152613207828261305a565b915050606083015161321c6060860182612fd2565b50608083015161322f6080860182612fd2565b5060a083015184820360a08601526132478282612f5d565b9150508091505092915050565b600060c0830160008301518482036000860152613271828261305a565b91505060208301516132866020860182612ee1565b5060408301516132996040860182612ee1565b50606083015184820360608601526132b18282612f5d565b915050608083015184820360808601526132cb8282612eff565b91505060a083015184820360a08601526132e5828261305a565b9150508091505092915050565b600060808301600083015161330a6000860182612ee1565b5060208301518482036020860152613322828261305a565b9150506040830151848203604086015261333c828261305a565b91505060608301516133516060860182612fd2565b508091505092915050565b600061336882846130cc565b915081905092915050565b600061337f8284613029565b915081905092915050565b60006133958261317d565b9150819050919050565b60006020820190506133b46000830184612ed2565b92915050565b60006060820190506133cf6000830186612ef0565b81810360208301526133e18185613093565b90506133f06040830184612fe1565b949350505050565b600060808201905061340d6000830187612ef0565b818103602083015261341f8186613093565b905081810360408301526134338185613093565b90506134426060830184612fe1565b95945050505050565b600060a0820190506134606000830188612ef0565b81810360208301526134728187613093565b905081810360408301526134868186613093565b90506134956060830185612fe1565b6134a26080830184612fe1565b9695505050505050565b600060208201905081810360008301526134c68184612ff0565b905092915050565b600060408201905081810360008301526134e88185612ff0565b90506134f76020830184612fe1565b9392505050565b600060808201905081810360008301526135188187613093565b90506135276020830186612ef0565b6135346040830185612ef0565b81810360608301526135468184613093565b905095945050505050565b6000602082019050818103600083015261356a816130fd565b9050919050565b6000602082019050818103600083015261358a8161313d565b9050919050565b600060208201905081810360008301526135ab81846131bd565b905092915050565b600060a08201905081810360008301526135cd8188613254565b905081810360208301526135e18187612ff0565b90506135f06040830186612fe1565b818103606083015261360281856132f2565b9050818103608083015261361681846132f2565b90509695505050505050565b6000602082019050818103600083015261363c81846132f2565b905092915050565b6000604051905081810181811067ffffffffffffffff8211171561366757600080fd5b8060405250919050565b600067ffffffffffffffff82111561368857600080fd5b602082029050602081019050919050565b600067ffffffffffffffff8211156136b057600080fd5b602082029050602081019050919050565b600067ffffffffffffffff8211156136d857600080fd5b601f19601f8301169050602081019050919050565b600067ffffffffffffffff82111561370457600080fd5b601f19601f8301169050602081019050919050565b6000819050602082019050919050565b6000819050602082019050919050565b600081519050919050565b600081519050919050565b600081519050919050565b600081519050919050565b6000602082019050919050565b6000602082019050919050565b600082825260208201905092915050565b600082825260208201905092915050565b600082825260208201905092915050565b600082825260208201905092915050565b600081905092915050565b60006137d9826137fe565b9050919050565b60006137eb826137fe565b9050919050565b60008115159050919050565b600073ffffffffffffffffffffffffffffffffffffffff82169050919050565b82818337600083830152505050565b60005b8381101561384b578082015181840152602081019050613830565b8381111561385a576000848401525b50505050565b6000601f19601f8301169050919050565b61387a816137ce565b811461388557600080fd5b5056fea365627a7a723158202f186815e643cabf40db2742f5590821c79dec31b8f6dac780025c1ce3111d7b6c6578706572696d656e74616cf564736f6c63430005100040",
  "source": "pragma solidity ^0.5.0;\r\npragma experimental ABIEncoderV2;\r\ncontract Main{\r\n    struct Farmer{\r\n        address id;\r\n        string name;\r\n        string region;\r\n        bool isVerified;\r\n        bool isValue; //to verify value exists in mapping or not\r\n        string [] rawProducts;        \r\n    }\r\n    struct Manufacturer{\r\n        address id;\r\n        string name;\r\n        mapping(string => address) rawProducts;\r\n        bool isRenewableUsed;\r\n    }\r\n\r\n    struct Product{\r\n        string name;\r\n        address ownership;\r\n        address manufacturer;\r\n        string[] rawProducts;\r\n        bool[] rawProductsVerification;\r\n        string serialNo;\r\n    }\r\n\r\n    // enum Role {Distributer, Retailer, Consumer, Manufacturer}\r\n\r\n    struct Stakeholder{\r\n        address id;\r\n        string name;\r\n        string role;\r\n        bool isValue; //to verify value exists in mapping or not\r\n    }\r\n\r\n    mapping(address => Farmer) public farmers;\r\n    mapping(address => Manufacturer) public manufacturers;\r\n    mapping(string => Product) public products;\r\n    mapping(address => Stakeholder) public stakeholders;\r\n\r\n    address payable public admin;\r\n    constructor() public {\r\n        admin = msg.sender;        \r\n    }\r\n\r\n    // Modifier to ensure only the admin access a function\r\n    modifier verifyAdmin( address id) {\r\n        require(id == admin, \"Unauthorized\");\r\n        _;\r\n    }\r\n\r\n    /**\r\n     * Function to get the role of the passed address\r\n     */\r\n    function checkIdentity(address id) public view returns(string memory) {\r\n        if(id == admin) return \"Admin\";\r\n        else if(farmers[id].isValue) return \"Farmer\";\r\n        else if(stakeholders[id].isValue) return stakeholders[id].role;\r\n        else return \"NewAddress\";\r\n    }\r\n\r\n    /**\r\n     * Function to add a new farmer on the application\r\n     */\r\n    function registerFarmer(\r\n        string memory name,\r\n        string memory region,\r\n        string[] memory rawProducts\r\n    ) public {\r\n        farmers[msg.sender] = Farmer(msg.sender,name,region,false,true,rawProducts);\r\n    }\r\n    /**\r\n     * Function to verify a farmer\r\n     */\r\n    function verifyFarmer(address id) public verifyAdmin(msg.sender) {\r\n        farmers[id].isVerified = true;\r\n    }\r\n    /**\r\n     * function to find a farmer by address\r\n     */\r\n    function findFarmer(address id) public view returns(Farmer memory){\r\n        return farmers[id];\r\n    }\r\n\r\n    // /**\r\n    //  * Function to add a new manufacturer on the application\r\n    //  */\r\n    // function registerManufacturer(string memory name) public {\r\n    //     manufacturers[msg.sender] = Manufacturer({\r\n    //         id: msg.sender,\r\n    //         name: name,\r\n    //         isRenewableUsed: false\r\n    //     });\r\n    // }\r\n    /**\r\n     * Function to set the isRenewableUsed for a manufacturer\r\n     */\r\n    function updateManufacturerRenewable(address id) public verifyAdmin(msg.sender){\r\n        manufacturers[id].isRenewableUsed = true;\r\n    }\r\n    /**\r\n     * Function to add a rawproduct for a manufacturer\r\n     */\r\n    function updateManufacturerRawProducts(        \r\n        string[] memory rawProducts,\r\n        address[] memory farmerAddresses\r\n    ) public {\r\n        //manufacturers[msg.sender].rawProducts[rawProductName] = farmerAddress;\r\n        for(uint i = 0;i< rawProducts.length; i++){\r\n            manufacturers[msg.sender].rawProducts[rawProducts[i]] = farmerAddresses[i];\r\n        }\r\n    }\r\n    /**\r\n     * function to find a manufacturer by address\r\n     */\r\n    function findManufacturer(address id) public view returns(string memory,bool){\r\n        return(\r\n            manufacturers[id].name,\r\n            manufacturers[id].isRenewableUsed\r\n        );\r\n    }\r\n\r\n    function registerStakeHolder(\r\n        string memory name,\r\n        string memory role\r\n    ) public {\r\n        stakeholders[msg.sender] = Stakeholder(msg.sender,name,role,true);\r\n        if(keccak256(abi.encodePacked(role)) == keccak256(abi.encodePacked(\"Manufacturer\"))){\r\n            manufacturers[msg.sender] = Manufacturer({\r\n                id: msg.sender,\r\n                name: name,\r\n                isRenewableUsed: false\r\n            });\r\n        }\r\n    }\r\n\r\n    /**\r\n     * function to find a stackholder by address\r\n     */\r\n    function findStakeholder(address id) public view returns(Stakeholder memory){\r\n        return stakeholders[id];\r\n    }\r\n\r\n    function launchProduct(\r\n        string memory name,\r\n        string[] memory rawProducts,\r\n        string memory serialNo\r\n    ) public {\r\n        bool[] memory rawProductsVerification = new bool[](rawProducts.length);\r\n        for(uint i=0;i<rawProducts.length;i++){\r\n            rawProductsVerification[i] = farmers[manufacturers[msg.sender].rawProducts[rawProducts[i]]].isVerified;\r\n        }\r\n        products[serialNo] = Product(name,msg.sender,msg.sender,rawProducts,rawProductsVerification,serialNo);\r\n    }\r\n\r\n    function transferOwnership(\r\n        address newOwner,\r\n        string memory serialNo\r\n    ) public {\r\n        require(products[serialNo].ownership==msg.sender,\"Invalid Ownership\");\r\n        products[serialNo].ownership = newOwner;\r\n    }\r\n\r\n    function verifyProduct(\r\n        string memory serialNo\r\n    ) public view returns (Product memory, string memory, bool, Stakeholder memory, Stakeholder memory){\r\n        Product memory product = products[serialNo];\r\n        Manufacturer memory manufacturerDetails = manufacturers[product.manufacturer];\r\n        Stakeholder memory manufacturer = stakeholders[product.manufacturer];\r\n        Stakeholder memory currentOwner = stakeholders[product.ownership];\r\n        return(\r\n            product,            \r\n            manufacturerDetails.name,\r\n            manufacturerDetails.isRenewableUsed,\r\n            manufacturer,\r\n            currentOwner\r\n        );\r\n    }\r\n\r\n}",
  "sourcePath": "C:\\Users\\Lakshya Bansal\\Desktop\\Major project\\supply-chain\\src\\Contracts\\Main.sol",
  "compiler": {
    "name": "solc",
    "version": "0.5.16+commit.9c3226ce.Emscripten.clang"
  },
  "schemaVersion": "3.4.3",
  "updatedAt": "2021-10-18T06:58:02.485Z",
  "networkType": "ethereum",
  "devdoc": {
    "methods": {}
  },
  "userdoc": {
    "methods": {
      "checkIdentity(address)": {
        "notice": "Function to get the role of the passed address"
      },
      "findFarmer(address)": {
        "notice": "function to find a farmer by address"
      },
      "findManufacturer(address)": {
        "notice": "function to find a manufacturer by address"
      },
      "findStakeholder(address)": {
        "notice": "function to find a stackholder by address"
      },
      "registerFarmer(string,string,string[])": {
        "notice": "Function to add a new farmer on the application"
      },
      "updateManufacturerRawProducts(string[],address[])": {
        "notice": "Function to add a rawproduct for a manufacturer"
      },
      "updateManufacturerRenewable(address)": {
        "notice": "Function to set the isRenewableUsed for a manufacturer"
      },
      "verifyFarmer(address)": {
        "notice": "Function to verify a farmer"
      }
    }
  }
}