{
  "contractName": "Main",
  "abi": [
    {
      "inputs": [],
      "payable": false,
      "stateMutability": "nonpayable",
      "type": "constructor"
    },
    {
      "constant": true,
      "inputs": [],
      "name": "admin",
      "outputs": [
        {
          "internalType": "address payable",
          "name": "",
          "type": "address"
        }
      ],
      "payable": false,
      "stateMutability": "view",
      "type": "function"
    },
    {
      "constant": true,
      "inputs": [
        {
          "internalType": "address",
          "name": "",
          "type": "address"
        }
      ],
      "name": "farmers",
      "outputs": [
        {
          "internalType": "address",
          "name": "id",
          "type": "address"
        },
        {
          "internalType": "string",
          "name": "name",
          "type": "string"
        },
        {
          "internalType": "string",
          "name": "region",
          "type": "string"
        },
        {
          "internalType": "bool",
          "name": "isVerified",
          "type": "bool"
        }
      ],
      "payable": false,
      "stateMutability": "view",
      "type": "function"
    },
    {
      "constant": true,
      "inputs": [
        {
          "internalType": "address",
          "name": "",
          "type": "address"
        }
      ],
      "name": "manufacturers",
      "outputs": [
        {
          "internalType": "address",
          "name": "id",
          "type": "address"
        },
        {
          "internalType": "string",
          "name": "name",
          "type": "string"
        },
        {
          "internalType": "bool",
          "name": "isRenewableUsed",
          "type": "bool"
        }
      ],
      "payable": false,
      "stateMutability": "view",
      "type": "function"
    },
    {
      "constant": true,
      "inputs": [
        {
          "internalType": "string",
          "name": "",
          "type": "string"
        }
      ],
      "name": "products",
      "outputs": [
        {
          "internalType": "address",
          "name": "id",
          "type": "address"
        },
        {
          "internalType": "string",
          "name": "name",
          "type": "string"
        },
        {
          "internalType": "address",
          "name": "ownership",
          "type": "address"
        },
        {
          "internalType": "address",
          "name": "manufacturer",
          "type": "address"
        },
        {
          "internalType": "string",
          "name": "serialNo",
          "type": "string"
        }
      ],
      "payable": false,
      "stateMutability": "view",
      "type": "function"
    },
    {
      "constant": true,
      "inputs": [
        {
          "internalType": "address",
          "name": "",
          "type": "address"
        }
      ],
      "name": "stakeholders",
      "outputs": [
        {
          "internalType": "address",
          "name": "id",
          "type": "address"
        },
        {
          "internalType": "string",
          "name": "name",
          "type": "string"
        },
        {
          "internalType": "enum Main.Role",
          "name": "role",
          "type": "uint8"
        }
      ],
      "payable": false,
      "stateMutability": "view",
      "type": "function"
    },
    {
      "constant": false,
      "inputs": [
        {
          "internalType": "string",
          "name": "name",
          "type": "string"
        },
        {
          "internalType": "string",
          "name": "region",
          "type": "string"
        },
        {
          "internalType": "string[]",
          "name": "rawProducts",
          "type": "string[]"
        }
      ],
      "name": "registerFarmer",
      "outputs": [],
      "payable": false,
      "stateMutability": "nonpayable",
      "type": "function"
    },
    {
      "constant": false,
      "inputs": [
        {
          "internalType": "address",
          "name": "id",
          "type": "address"
        }
      ],
      "name": "verifyFarmer",
      "outputs": [],
      "payable": false,
      "stateMutability": "nonpayable",
      "type": "function"
    }
  ],
  "bytecode": "0x608060405234801561001057600080fd5b5033600460006101000a81548173ffffffffffffffffffffffffffffffffffffffff021916908373ffffffffffffffffffffffffffffffffffffffff160217905550611106806100616000396000f3fe608060405234801561001057600080fd5b506004361061007d5760003560e01c8063401b21681161005b578063401b2168146100ee5780636b5eb09c14610121578063c07cfca914610153578063f851a440146101855761007d565b80630186a42314610082578063235db9f5146100b657806330dd2afa146100d2575b600080fd5b61009c60048036036100979190810190610c16565b6101a3565b6040516100ad959493929190610dbe565b60405180910390f35b6100d060048036036100cb9190810190610bed565b61037f565b005b6100ec60048036036100e79190810190610c57565b61046e565b005b61010860048036036101039190810190610bed565b6105b2565b6040516101189493929190610e9b565b60405180910390f35b61013b60048036036101369190810190610bed565b61073f565b60405161014a93929190610e1f565b60405180910390f35b61016d60048036036101689190810190610bed565b61082e565b60405161017c93929190610e5d565b60405180910390f35b61018d61091d565b60405161019a9190610da3565b60405180910390f35b6002818051602081018201805184825260208301602085012081835280955050505050506000915090508060000160009054906101000a900473ffffffffffffffffffffffffffffffffffffffff1690806001018054600181600116156101000203166002900480601f01602080910402602001604051908101604052809291908181526020018280546001816001161561010002031660029004801561028b5780601f106102605761010080835404028352916020019161028b565b820191906000526020600020905b81548152906001019060200180831161026e57829003601f168201915b5050505050908060020160009054906101000a900473ffffffffffffffffffffffffffffffffffffffff16908060030160009054906101000a900473ffffffffffffffffffffffffffffffffffffffff1690806005018054600181600116156101000203166002900480601f0160208091040260200160405190810160405280929190818152602001828054600181600116156101000203166002900480156103755780601f1061034a57610100808354040283529160200191610375565b820191906000526020600020905b81548152906001019060200180831161035857829003601f168201915b5050505050905085565b33600460009054906101000a900473ffffffffffffffffffffffffffffffffffffffff1673ffffffffffffffffffffffffffffffffffffffff168173ffffffffffffffffffffffffffffffffffffffff1614610410576040517f08c379a000000000000000000000000000000000000000000000000000000000815260040161040790610eee565b60405180910390fd5b60016000808473ffffffffffffffffffffffffffffffffffffffff1673ffffffffffffffffffffffffffffffffffffffff16815260200190815260200160002060030160006101000a81548160ff0219169083151502179055505050565b6040518060a001604052803373ffffffffffffffffffffffffffffffffffffffff168152602001848152602001838152602001600015158152602001828152506000803373ffffffffffffffffffffffffffffffffffffffff1673ffffffffffffffffffffffffffffffffffffffff16815260200190815260200160002060008201518160000160006101000a81548173ffffffffffffffffffffffffffffffffffffffff021916908373ffffffffffffffffffffffffffffffffffffffff160217905550602082015181600101908051906020019061054f929190610943565b50604082015181600201908051906020019061056c929190610943565b5060608201518160030160006101000a81548160ff02191690831515021790555060808201518160040190805190602001906105a99291906109c3565b50905050505050565b60006020528060005260406000206000915090508060000160009054906101000a900473ffffffffffffffffffffffffffffffffffffffff1690806001018054600181600116156101000203166002900480601f0160208091040260200160405190810160405280929190818152602001828054600181600116156101000203166002900480156106845780601f1061065957610100808354040283529160200191610684565b820191906000526020600020905b81548152906001019060200180831161066757829003601f168201915b505050505090806002018054600181600116156101000203166002900480601f0160208091040260200160405190810160405280929190818152602001828054600181600116156101000203166002900480156107225780601f106106f757610100808354040283529160200191610722565b820191906000526020600020905b81548152906001019060200180831161070557829003601f168201915b5050505050908060030160009054906101000a900460ff16905084565b60016020528060005260406000206000915090508060000160009054906101000a900473ffffffffffffffffffffffffffffffffffffffff1690806001018054600181600116156101000203166002900480601f0160208091040260200160405190810160405280929190818152602001828054600181600116156101000203166002900480156108115780601f106107e657610100808354040283529160200191610811565b820191906000526020600020905b8154815290600101906020018083116107f457829003601f168201915b5050505050908060030160009054906101000a900460ff16905083565b60036020528060005260406000206000915090508060000160009054906101000a900473ffffffffffffffffffffffffffffffffffffffff1690806001018054600181600116156101000203166002900480601f0160208091040260200160405190810160405280929190818152602001828054600181600116156101000203166002900480156109005780601f106108d557610100808354040283529160200191610900565b820191906000526020600020905b8154815290600101906020018083116108e357829003601f168201915b5050505050908060020160009054906101000a900460ff16905083565b600460009054906101000a900473ffffffffffffffffffffffffffffffffffffffff1681565b828054600181600116156101000203166002900490600052602060002090601f016020900481019282601f1061098457805160ff19168380011785556109b2565b828001600101855582156109b2579182015b828111156109b1578251825591602001919060010190610996565b5b5090506109bf9190610a23565b5090565b828054828255906000526020600020908101928215610a12579160200282015b82811115610a11578251829080519060200190610a01929190610943565b50916020019190600101906109e3565b5b509050610a1f9190610a48565b5090565b610a4591905b80821115610a41576000816000905550600101610a29565b5090565b90565b610a7191905b80821115610a6d5760008181610a649190610a74565b50600101610a4e565b5090565b90565b50805460018160011615610100020316600290046000825580601f10610a9a5750610ab9565b601f016020900490600052602060002090810190610ab89190610a23565b5b50565b600081359050610acb816110ac565b92915050565b600082601f830112610ae257600080fd5b8135610af5610af082610f3b565b610f0e565b9150818183526020840193506020810190508360005b83811015610b3b5781358601610b218882610b45565b845260208401935060208301925050600181019050610b0b565b5050505092915050565b600082601f830112610b5657600080fd5b8135610b69610b6482610f63565b610f0e565b91508082526020830160208301858383011115610b8557600080fd5b610b9083828461104c565b50505092915050565b600082601f830112610baa57600080fd5b8135610bbd610bb882610f8f565b610f0e565b91508082526020830160208301858383011115610bd957600080fd5b610be483828461104c565b50505092915050565b600060208284031215610bff57600080fd5b6000610c0d84828501610abc565b91505092915050565b600060208284031215610c2857600080fd5b600082013567ffffffffffffffff811115610c4257600080fd5b610c4e84828501610b45565b91505092915050565b600080600060608486031215610c6c57600080fd5b600084013567ffffffffffffffff811115610c8657600080fd5b610c9286828701610b99565b935050602084013567ffffffffffffffff811115610caf57600080fd5b610cbb86828701610b99565b925050604084013567ffffffffffffffff811115610cd857600080fd5b610ce486828701610ad1565b9150509250925092565b610cf781610fe9565b82525050565b610d0681610fd7565b82525050565b610d1581610ffb565b82525050565b610d248161103a565b82525050565b6000610d3582610fbb565b610d3f8185610fc6565b9350610d4f81856020860161105b565b610d588161108e565b840191505092915050565b6000610d70600c83610fc6565b91507f556e617574686f72697a656400000000000000000000000000000000000000006000830152602082019050919050565b6000602082019050610db86000830184610cee565b92915050565b600060a082019050610dd36000830188610cfd565b8181036020830152610de58187610d2a565b9050610df46040830186610cfd565b610e016060830185610cfd565b8181036080830152610e138184610d2a565b90509695505050505050565b6000606082019050610e346000830186610cfd565b8181036020830152610e468185610d2a565b9050610e556040830184610d0c565b949350505050565b6000606082019050610e726000830186610cfd565b8181036020830152610e848185610d2a565b9050610e936040830184610d1b565b949350505050565b6000608082019050610eb06000830187610cfd565b8181036020830152610ec28186610d2a565b90508181036040830152610ed68185610d2a565b9050610ee56060830184610d0c565b95945050505050565b60006020820190508181036000830152610f0781610d63565b9050919050565b6000604051905081810181811067ffffffffffffffff82111715610f3157600080fd5b8060405250919050565b600067ffffffffffffffff821115610f5257600080fd5b602082029050602081019050919050565b600067ffffffffffffffff821115610f7a57600080fd5b601f19601f8301169050602081019050919050565b600067ffffffffffffffff821115610fa657600080fd5b601f19601f8301169050602081019050919050565b600081519050919050565b600082825260208201905092915050565b6000610fe28261101a565b9050919050565b6000610ff48261101a565b9050919050565b60008115159050919050565b60008190506110158261109f565b919050565b600073ffffffffffffffffffffffffffffffffffffffff82169050919050565b600061104582611007565b9050919050565b82818337600083830152505050565b60005b8381101561107957808201518184015260208101905061105e565b83811115611088576000848401525b50505050565b6000601f19601f8301169050919050565b600381106110a957fe5b50565b6110b581610fd7565b81146110c057600080fd5b5056fea365627a7a7231582011ae95e4ed44f9b13837a03980859f89b879053b701803f3ac85780b7208e90f6c6578706572696d656e74616cf564736f6c63430005100040",
  "source": "pragma solidity ^0.5.0;\r\npragma experimental ABIEncoderV2;\r\ncontract Main{\r\n    struct Farmer{\r\n        address id;\r\n        string name;\r\n        string region;\r\n        bool isVerified;\r\n        string [] rawProducts;        \r\n    }\r\n    struct Manufacturer{\r\n        address id;\r\n        string name;\r\n        mapping(string => address) rawProducts;\r\n        bool isRenewableUsed;\r\n    }\r\n\r\n    struct Product{\r\n        address id;\r\n        string name;\r\n        address ownership;\r\n        address manufacturer;\r\n        string[] rawProducts;\r\n        string serialNo;\r\n    }\r\n\r\n    enum Role {Distributer, retailer, consumer}\r\n\r\n    struct Stakeholder{\r\n        address id;\r\n        string name;\r\n        Role role;\r\n    }\r\n\r\n    mapping(address => Farmer) public farmers;\r\n    mapping(address => Manufacturer) public manufacturers;\r\n    mapping(string => Product) public products;\r\n    mapping(address => Stakeholder) public stakeholders;\r\n\r\n    address payable public admin;\r\n    constructor() public {\r\n        admin = msg.sender;        \r\n    }\r\n\r\n    // Modifier to ensure only the admin access a function\r\n    modifier verifyAdmin( address id) {\r\n        require(id == admin, \"Unauthorized\");\r\n        _;\r\n    }\r\n\r\n    /**\r\n     * Function to register a farmer on the application\r\n     */\r\n    function registerFarmer(\r\n        string memory name,\r\n        string memory region,\r\n        string[] memory rawProducts\r\n    ) public {\r\n        farmers[msg.sender] = Farmer(msg.sender,name,region,false,rawProducts);\r\n    }\r\n    \r\n    function verifyFarmer(address id) public verifyAdmin(msg.sender) {\r\n        farmers[id].isVerified = true;\r\n    }\r\n\r\n}",
  "sourcePath": "C:\\Users\\Lakshya Bansal\\Desktop\\Major project\\supply-chain\\src\\Contracts\\Main.sol",
  "compiler": {
    "name": "solc",
    "version": "0.5.16+commit.9c3226ce.Emscripten.clang"
  },
  "schemaVersion": "3.4.3",
  "updatedAt": "2021-10-06T12:03:30.219Z",
  "networkType": "ethereum",
  "devdoc": {
    "methods": {}
  },
  "userdoc": {
    "methods": {
      "registerFarmer(string,string,string[])": {
        "notice": "Function to register a farmer on the application"
      }
    }
  }
}