{
  "contractName": "Main",
  "abi": [
    {
      "inputs": [],
      "payable": false,
      "stateMutability": "nonpayable",
      "type": "constructor"
    },
    {
      "constant": true,
      "inputs": [],
      "name": "admin",
      "outputs": [
        {
          "internalType": "address payable",
          "name": "",
          "type": "address"
        }
      ],
      "payable": false,
      "stateMutability": "view",
      "type": "function"
    },
    {
      "constant": true,
      "inputs": [
        {
          "internalType": "address",
          "name": "",
          "type": "address"
        }
      ],
      "name": "farmers",
      "outputs": [
        {
          "internalType": "address",
          "name": "id",
          "type": "address"
        },
        {
          "internalType": "string",
          "name": "name",
          "type": "string"
        },
        {
          "internalType": "string",
          "name": "region",
          "type": "string"
        },
        {
          "internalType": "bool",
          "name": "isVerified",
          "type": "bool"
        },
        {
          "internalType": "bool",
          "name": "isValue",
          "type": "bool"
        }
      ],
      "payable": false,
      "stateMutability": "view",
      "type": "function"
    },
    {
      "constant": true,
      "inputs": [
        {
          "internalType": "address",
          "name": "",
          "type": "address"
        }
      ],
      "name": "manufacturers",
      "outputs": [
        {
          "internalType": "address",
          "name": "id",
          "type": "address"
        },
        {
          "internalType": "string",
          "name": "name",
          "type": "string"
        },
        {
          "internalType": "bool",
          "name": "isRenewableUsed",
          "type": "bool"
        }
      ],
      "payable": false,
      "stateMutability": "view",
      "type": "function"
    },
    {
      "constant": true,
      "inputs": [
        {
          "internalType": "string",
          "name": "",
          "type": "string"
        }
      ],
      "name": "products",
      "outputs": [
        {
          "internalType": "string",
          "name": "name",
          "type": "string"
        },
        {
          "internalType": "address",
          "name": "ownership",
          "type": "address"
        },
        {
          "internalType": "address",
          "name": "manufacturer",
          "type": "address"
        },
        {
          "internalType": "string",
          "name": "serialNo",
          "type": "string"
        }
      ],
      "payable": false,
      "stateMutability": "view",
      "type": "function"
    },
    {
      "constant": true,
      "inputs": [
        {
          "internalType": "address",
          "name": "",
          "type": "address"
        }
      ],
      "name": "stakeholders",
      "outputs": [
        {
          "internalType": "address",
          "name": "id",
          "type": "address"
        },
        {
          "internalType": "string",
          "name": "name",
          "type": "string"
        },
        {
          "internalType": "string",
          "name": "role",
          "type": "string"
        },
        {
          "internalType": "bool",
          "name": "isValue",
          "type": "bool"
        }
      ],
      "payable": false,
      "stateMutability": "view",
      "type": "function"
    },
    {
      "constant": true,
      "inputs": [
        {
          "internalType": "address",
          "name": "id",
          "type": "address"
        }
      ],
      "name": "checkIdentity",
      "outputs": [
        {
          "internalType": "string",
          "name": "",
          "type": "string"
        }
      ],
      "payable": false,
      "stateMutability": "view",
      "type": "function"
    },
    {
      "constant": false,
      "inputs": [
        {
          "internalType": "string",
          "name": "name",
          "type": "string"
        },
        {
          "internalType": "string",
          "name": "region",
          "type": "string"
        },
        {
          "internalType": "string[]",
          "name": "rawProducts",
          "type": "string[]"
        }
      ],
      "name": "registerFarmer",
      "outputs": [],
      "payable": false,
      "stateMutability": "nonpayable",
      "type": "function"
    },
    {
      "constant": false,
      "inputs": [
        {
          "internalType": "address",
          "name": "id",
          "type": "address"
        }
      ],
      "name": "verifyFarmer",
      "outputs": [],
      "payable": false,
      "stateMutability": "nonpayable",
      "type": "function"
    },
    {
      "constant": true,
      "inputs": [
        {
          "internalType": "address",
          "name": "id",
          "type": "address"
        }
      ],
      "name": "findFarmer",
      "outputs": [
        {
          "components": [
            {
              "internalType": "address",
              "name": "id",
              "type": "address"
            },
            {
              "internalType": "string",
              "name": "name",
              "type": "string"
            },
            {
              "internalType": "string",
              "name": "region",
              "type": "string"
            },
            {
              "internalType": "bool",
              "name": "isVerified",
              "type": "bool"
            },
            {
              "internalType": "bool",
              "name": "isValue",
              "type": "bool"
            },
            {
              "internalType": "string[]",
              "name": "rawProducts",
              "type": "string[]"
            }
          ],
          "internalType": "struct Main.Farmer",
          "name": "",
          "type": "tuple"
        }
      ],
      "payable": false,
      "stateMutability": "view",
      "type": "function"
    },
    {
      "constant": false,
      "inputs": [
        {
          "internalType": "address",
          "name": "id",
          "type": "address"
        }
      ],
      "name": "updateManufacturerRenewable",
      "outputs": [],
      "payable": false,
      "stateMutability": "nonpayable",
      "type": "function"
    },
    {
      "constant": false,
      "inputs": [
        {
          "internalType": "string",
          "name": "rawProductName",
          "type": "string"
        },
        {
          "internalType": "address",
          "name": "farmerAddress",
          "type": "address"
        }
      ],
      "name": "updateManufacturerRawProducts",
      "outputs": [],
      "payable": false,
      "stateMutability": "nonpayable",
      "type": "function"
    },
    {
      "constant": true,
      "inputs": [
        {
          "internalType": "address",
          "name": "id",
          "type": "address"
        }
      ],
      "name": "findManufacturer",
      "outputs": [
        {
          "internalType": "string",
          "name": "",
          "type": "string"
        },
        {
          "internalType": "bool",
          "name": "",
          "type": "bool"
        }
      ],
      "payable": false,
      "stateMutability": "view",
      "type": "function"
    },
    {
      "constant": false,
      "inputs": [
        {
          "internalType": "string",
          "name": "name",
          "type": "string"
        },
        {
          "internalType": "string",
          "name": "role",
          "type": "string"
        }
      ],
      "name": "registerStakeHolder",
      "outputs": [],
      "payable": false,
      "stateMutability": "nonpayable",
      "type": "function"
    },
    {
      "constant": true,
      "inputs": [
        {
          "internalType": "address",
          "name": "id",
          "type": "address"
        }
      ],
      "name": "findStackholder",
      "outputs": [
        {
          "components": [
            {
              "internalType": "address",
              "name": "id",
              "type": "address"
            },
            {
              "internalType": "string",
              "name": "name",
              "type": "string"
            },
            {
              "internalType": "string",
              "name": "role",
              "type": "string"
            },
            {
              "internalType": "bool",
              "name": "isValue",
              "type": "bool"
            }
          ],
          "internalType": "struct Main.Stakeholder",
          "name": "",
          "type": "tuple"
        }
      ],
      "payable": false,
      "stateMutability": "view",
      "type": "function"
    },
    {
      "constant": false,
      "inputs": [
        {
          "internalType": "string",
          "name": "name",
          "type": "string"
        },
        {
          "internalType": "string[]",
          "name": "rawProducts",
          "type": "string[]"
        },
        {
          "internalType": "string",
          "name": "serialNo",
          "type": "string"
        }
      ],
      "name": "launchProduct",
      "outputs": [],
      "payable": false,
      "stateMutability": "nonpayable",
      "type": "function"
    },
    {
      "constant": false,
      "inputs": [
        {
          "internalType": "address",
          "name": "newOwner",
          "type": "address"
        },
        {
          "internalType": "string",
          "name": "serialNo",
          "type": "string"
        }
      ],
      "name": "transferOwnership",
      "outputs": [],
      "payable": false,
      "stateMutability": "nonpayable",
      "type": "function"
    },
    {
      "constant": true,
      "inputs": [
        {
          "internalType": "string",
          "name": "serialNo",
          "type": "string"
        }
      ],
      "name": "verifyProduct",
      "outputs": [
        {
          "components": [
            {
              "internalType": "string",
              "name": "name",
              "type": "string"
            },
            {
              "internalType": "address",
              "name": "ownership",
              "type": "address"
            },
            {
              "internalType": "address",
              "name": "manufacturer",
              "type": "address"
            },
            {
              "internalType": "string[]",
              "name": "rawProducts",
              "type": "string[]"
            },
            {
              "internalType": "bool[]",
              "name": "rawProductsVerification",
              "type": "bool[]"
            },
            {
              "internalType": "string",
              "name": "serialNo",
              "type": "string"
            }
          ],
          "internalType": "struct Main.Product",
          "name": "",
          "type": "tuple"
        },
        {
          "internalType": "string",
          "name": "",
          "type": "string"
        },
        {
          "internalType": "bool",
          "name": "",
          "type": "bool"
        },
        {
          "components": [
            {
              "internalType": "address",
              "name": "id",
              "type": "address"
            },
            {
              "internalType": "string",
              "name": "name",
              "type": "string"
            },
            {
              "internalType": "string",
              "name": "role",
              "type": "string"
            },
            {
              "internalType": "bool",
              "name": "isValue",
              "type": "bool"
            }
          ],
          "internalType": "struct Main.Stakeholder",
          "name": "",
          "type": "tuple"
        },
        {
          "components": [
            {
              "internalType": "address",
              "name": "id",
              "type": "address"
            },
            {
              "internalType": "string",
              "name": "name",
              "type": "string"
            },
            {
              "internalType": "string",
              "name": "role",
              "type": "string"
            },
            {
              "internalType": "bool",
              "name": "isValue",
              "type": "bool"
            }
          ],
          "internalType": "struct Main.Stakeholder",
          "name": "",
          "type": "tuple"
        }
      ],
      "payable": false,
      "stateMutability": "view",
      "type": "function"
    }
  ],
  "bytecode": "0x608060405234801561001057600080fd5b5033600460006101000a81548173ffffffffffffffffffffffffffffffffffffffff021916908373ffffffffffffffffffffffffffffffffffffffff160217905550613732806100616000396000f3fe608060405234801561001057600080fd5b506004361061010b5760003560e01c80636be6ffe8116100a2578063c07cfca911610071578063c07cfca9146102fa578063e56255431461032d578063e95cccb114610349578063edf5a5be14610379578063f851a440146103955761010b565b80636be6ffe81461027257806392efc4531461028e57806395fa56fd146102c2578063b465b0a0146102de5761010b565b8063307d7648116100de578063307d7648146101c057806330dd2afa146101f0578063401b21681461020c5780636b5eb09c146102405761010b565b80630186a4231461011057806304b5dc7c14610143578063235db9f51461017357806324e54bd41461018f575b600080fd5b61012a60048036036101259190810190612ac5565b6103b3565b60405161013a949392919061338d565b60405180910390f35b61015d60048036036101589190810190612a48565b610569565b60405161016a9190613420565b60405180910390f35b61018d60048036036101889190810190612a48565b61087a565b005b6101a960048036036101a49190810190612a48565b610969565b6040516101b792919061335d565b60405180910390f35b6101da60048036036101d59190810190612a48565b610aa4565b6040516101e791906134b1565b60405180910390f35b61020a60048036036102059190810190612c9e565b610cb2565b005b61022660048036036102219190810190612a48565b610e1f565b6040516102379594939291906132da565b60405180910390f35b61025a60048036036102559190810190612a48565b610fbf565b60405161026993929190613249565b60405180910390f35b61028c60048036036102879190810190612b47565b6110ae565b005b6102a860048036036102a39190810190612b06565b61114f565b6040516102b9959493929190613442565b60405180910390f35b6102dc60048036036102d79190810190612c32565b611aa0565b005b6102f860048036036102f39190810190612b9b565b611d0e565b005b610314600480360361030f9190810190612a48565b611fe0565b6040516103249493929190613287565b60405180910390f35b61034760048036036103429190810190612a48565b61216d565b005b610363600480360361035e9190810190612a48565b61225c565b604051610370919061333b565b60405180910390f35b610393600480360361038e9190810190612a71565b612464565b005b61039d612577565b6040516103aa919061322e565b60405180910390f35b600281805160208101820180518482526020830160208501208183528095505050505050600091509050806000018054600181600116156101000203166002900480601f0160208091040260200160405190810160405280929190818152602001828054600181600116156101000203166002900480156104755780601f1061044a57610100808354040283529160200191610475565b820191906000526020600020905b81548152906001019060200180831161045857829003601f168201915b5050505050908060010160009054906101000a900473ffffffffffffffffffffffffffffffffffffffff16908060020160009054906101000a900473ffffffffffffffffffffffffffffffffffffffff1690806005018054600181600116156101000203166002900480601f01602080910402602001604051908101604052809291908181526020018280546001816001161561010002031660029004801561055f5780601f106105345761010080835404028352916020019161055f565b820191906000526020600020905b81548152906001019060200180831161054257829003601f168201915b5050505050905084565b61057161259d565b6000808373ffffffffffffffffffffffffffffffffffffffff1673ffffffffffffffffffffffffffffffffffffffff1681526020019081526020016000206040518060c00160405290816000820160009054906101000a900473ffffffffffffffffffffffffffffffffffffffff1673ffffffffffffffffffffffffffffffffffffffff1673ffffffffffffffffffffffffffffffffffffffff168152602001600182018054600181600116156101000203166002900480601f0160208091040260200160405190810160405280929190818152602001828054600181600116156101000203166002900480156106a95780601f1061067e576101008083540402835291602001916106a9565b820191906000526020600020905b81548152906001019060200180831161068c57829003601f168201915b50505050508152602001600282018054600181600116156101000203166002900480601f01602080910402602001604051908101604052809291908181526020018280546001816001161561010002031660029004801561074b5780601f106107205761010080835404028352916020019161074b565b820191906000526020600020905b81548152906001019060200180831161072e57829003601f168201915b505050505081526020016003820160009054906101000a900460ff161515151581526020016003820160019054906101000a900460ff1615151515815260200160048201805480602002602001604051908101604052809291908181526020016000905b8282101561086b578382906000526020600020018054600181600116156101000203166002900480601f0160208091040260200160405190810160405280929190818152602001828054600181600116156101000203166002900480156108575780601f1061082c57610100808354040283529160200191610857565b820191906000526020600020905b81548152906001019060200180831161083a57829003601f168201915b5050505050815260200190600101906107af565b50505050815250509050919050565b33600460009054906101000a900473ffffffffffffffffffffffffffffffffffffffff1673ffffffffffffffffffffffffffffffffffffffff168173ffffffffffffffffffffffffffffffffffffffff161461090b576040517f08c379a0000000000000000000000000000000000000000000000000000000008152600401610902906133e0565b60405180910390fd5b60016000808473ffffffffffffffffffffffffffffffffffffffff1673ffffffffffffffffffffffffffffffffffffffff16815260200190815260200160002060030160006101000a81548160ff0219169083151502179055505050565b60606000600160008473ffffffffffffffffffffffffffffffffffffffff1673ffffffffffffffffffffffffffffffffffffffff168152602001908152602001600020600101600160008573ffffffffffffffffffffffffffffffffffffffff1673ffffffffffffffffffffffffffffffffffffffff16815260200190815260200160002060030160009054906101000a900460ff16818054600181600116156101000203166002900480601f016020809104026020016040519081016040528092919081815260200182805460018160011615610100020316600290048015610a945780601f10610a6957610100808354040283529160200191610a94565b820191906000526020600020905b815481529060010190602001808311610a7757829003601f168201915b5050505050915091509150915091565b610aac6125ed565b600360008373ffffffffffffffffffffffffffffffffffffffff1673ffffffffffffffffffffffffffffffffffffffff1681526020019081526020016000206040518060800160405290816000820160009054906101000a900473ffffffffffffffffffffffffffffffffffffffff1673ffffffffffffffffffffffffffffffffffffffff1673ffffffffffffffffffffffffffffffffffffffff168152602001600182018054600181600116156101000203166002900480601f016020809104026020016040519081016040528092919081815260200182805460018160011615610100020316600290048015610be55780601f10610bba57610100808354040283529160200191610be5565b820191906000526020600020905b815481529060010190602001808311610bc857829003601f168201915b50505050508152602001600282018054600181600116156101000203166002900480601f016020809104026020016040519081016040528092919081815260200182805460018160011615610100020316600290048015610c875780601f10610c5c57610100808354040283529160200191610c87565b820191906000526020600020905b815481529060010190602001808311610c6a57829003601f168201915b505050505081526020016003820160009054906101000a900460ff1615151515815250509050919050565b6040518060c001604052803373ffffffffffffffffffffffffffffffffffffffff168152602001848152602001838152602001600015158152602001600115158152602001828152506000803373ffffffffffffffffffffffffffffffffffffffff1673ffffffffffffffffffffffffffffffffffffffff16815260200190815260200160002060008201518160000160006101000a81548173ffffffffffffffffffffffffffffffffffffffff021916908373ffffffffffffffffffffffffffffffffffffffff1602179055506020820151816001019080519060200190610d9c92919061262d565b506040820151816002019080519060200190610db992919061262d565b5060608201518160030160006101000a81548160ff02191690831515021790555060808201518160030160016101000a81548160ff02191690831515021790555060a0820151816004019080519060200190610e169291906126ad565b50905050505050565b60006020528060005260406000206000915090508060000160009054906101000a900473ffffffffffffffffffffffffffffffffffffffff1690806001018054600181600116156101000203166002900480601f016020809104026020016040519081016040528092919081815260200182805460018160011615610100020316600290048015610ef15780601f10610ec657610100808354040283529160200191610ef1565b820191906000526020600020905b815481529060010190602001808311610ed457829003601f168201915b505050505090806002018054600181600116156101000203166002900480601f016020809104026020016040519081016040528092919081815260200182805460018160011615610100020316600290048015610f8f5780601f10610f6457610100808354040283529160200191610f8f565b820191906000526020600020905b815481529060010190602001808311610f7257829003601f168201915b5050505050908060030160009054906101000a900460ff16908060030160019054906101000a900460ff16905085565b60016020528060005260406000206000915090508060000160009054906101000a900473ffffffffffffffffffffffffffffffffffffffff1690806001018054600181600116156101000203166002900480601f0160208091040260200160405190810160405280929190818152602001828054600181600116156101000203166002900480156110915780601f1061106657610100808354040283529160200191611091565b820191906000526020600020905b81548152906001019060200180831161107457829003601f168201915b5050505050908060030160009054906101000a900460ff16905083565b80600160003373ffffffffffffffffffffffffffffffffffffffff1673ffffffffffffffffffffffffffffffffffffffff168152602001908152602001600020600201836040516110ff9190613202565b908152602001604051809103902060006101000a81548173ffffffffffffffffffffffffffffffffffffffff021916908373ffffffffffffffffffffffffffffffffffffffff1602179055505050565b61115761270d565b606060006111636125ed565b61116b6125ed565b61117361270d565b6002876040516111839190613202565b90815260200160405180910390206040518060c0016040529081600082018054600181600116156101000203166002900480601f0160208091040260200160405190810160405280929190818152602001828054600181600116156101000203166002900480156112355780601f1061120a57610100808354040283529160200191611235565b820191906000526020600020905b81548152906001019060200180831161121857829003601f168201915b505050505081526020016001820160009054906101000a900473ffffffffffffffffffffffffffffffffffffffff1673ffffffffffffffffffffffffffffffffffffffff1673ffffffffffffffffffffffffffffffffffffffff1681526020016002820160009054906101000a900473ffffffffffffffffffffffffffffffffffffffff1673ffffffffffffffffffffffffffffffffffffffff1673ffffffffffffffffffffffffffffffffffffffff16815260200160038201805480602002602001604051908101604052809291908181526020016000905b828210156113cb578382906000526020600020018054600181600116156101000203166002900480601f0160208091040260200160405190810160405280929190818152602001828054600181600116156101000203166002900480156113b75780601f1061138c576101008083540402835291602001916113b7565b820191906000526020600020905b81548152906001019060200180831161139a57829003601f168201915b50505050508152602001906001019061130f565b5050505081526020016004820180548060200260200160405190810160405280929190818152602001828054801561144757602002820191906000526020600020906000905b82829054906101000a900460ff161515815260200190600101906020826000010492830192600103820291508084116114115790505b50505050508152602001600582018054600181600116156101000203166002900480601f0160208091040260200160405190810160405280929190818152602001828054600181600116156101000203166002900480156114e95780601f106114be576101008083540402835291602001916114e9565b820191906000526020600020905b8154815290600101906020018083116114cc57829003601f168201915b50505050508152505090506114fc61276f565b60016000836040015173ffffffffffffffffffffffffffffffffffffffff1673ffffffffffffffffffffffffffffffffffffffff1681526020019081526020016000206040518060600160405290816000820160009054906101000a900473ffffffffffffffffffffffffffffffffffffffff1673ffffffffffffffffffffffffffffffffffffffff1673ffffffffffffffffffffffffffffffffffffffff168152602001600182018054600181600116156101000203166002900480601f0160208091040260200160405190810160405280929190818152602001828054600181600116156101000203166002900480156116395780601f1061160e57610100808354040283529160200191611639565b820191906000526020600020905b81548152906001019060200180831161161c57829003601f168201915b505050505081526020016003820160009054906101000a900460ff16151515158152505090506116676125ed565b60036000846040015173ffffffffffffffffffffffffffffffffffffffff1673ffffffffffffffffffffffffffffffffffffffff1681526020019081526020016000206040518060800160405290816000820160009054906101000a900473ffffffffffffffffffffffffffffffffffffffff1673ffffffffffffffffffffffffffffffffffffffff1673ffffffffffffffffffffffffffffffffffffffff168152602001600182018054600181600116156101000203166002900480601f0160208091040260200160405190810160405280929190818152602001828054600181600116156101000203166002900480156117a45780601f10611779576101008083540402835291602001916117a4565b820191906000526020600020905b81548152906001019060200180831161178757829003601f168201915b50505050508152602001600282018054600181600116156101000203166002900480601f0160208091040260200160405190810160405280929190818152602001828054600181600116156101000203166002900480156118465780601f1061181b57610100808354040283529160200191611846565b820191906000526020600020905b81548152906001019060200180831161182957829003601f168201915b505050505081526020016003820160009054906101000a900460ff16151515158152505090506118746125ed565b60036000856020015173ffffffffffffffffffffffffffffffffffffffff1673ffffffffffffffffffffffffffffffffffffffff1681526020019081526020016000206040518060800160405290816000820160009054906101000a900473ffffffffffffffffffffffffffffffffffffffff1673ffffffffffffffffffffffffffffffffffffffff1673ffffffffffffffffffffffffffffffffffffffff168152602001600182018054600181600116156101000203166002900480601f0160208091040260200160405190810160405280929190818152602001828054600181600116156101000203166002900480156119b15780601f10611986576101008083540402835291602001916119b1565b820191906000526020600020905b81548152906001019060200180831161199457829003601f168201915b50505050508152602001600282018054600181600116156101000203166002900480601f016020809104026020016040519081016040528092919081815260200182805460018160011615610100020316600290048015611a535780601f10611a2857610100808354040283529160200191611a53565b820191906000526020600020905b815481529060010190602001808311611a3657829003601f168201915b505050505081526020016003820160009054906101000a900460ff161515151581525050905083836020015184604001518484839350985098509850985098505050505091939590929450565b60405180608001604052803373ffffffffffffffffffffffffffffffffffffffff16815260200183815260200182815260200160011515815250600360003373ffffffffffffffffffffffffffffffffffffffff1673ffffffffffffffffffffffffffffffffffffffff16815260200190815260200160002060008201518160000160006101000a81548173ffffffffffffffffffffffffffffffffffffffff021916908373ffffffffffffffffffffffffffffffffffffffff1602179055506020820151816001019080519060200190611b7c92919061262d565b506040820151816002019080519060200190611b9992919061262d565b5060608201518160030160006101000a81548160ff021916908315150217905550905050604051602001611bcc90613219565b6040516020818303038152906040528051906020012081604051602001611bf39190613202565b604051602081830303815290604052805190602001201415611d0a5760405180606001604052803373ffffffffffffffffffffffffffffffffffffffff16815260200183815260200160001515815250600160003373ffffffffffffffffffffffffffffffffffffffff1673ffffffffffffffffffffffffffffffffffffffff16815260200190815260200160002060008201518160000160006101000a81548173ffffffffffffffffffffffffffffffffffffffff021916908373ffffffffffffffffffffffffffffffffffffffff1602179055506020820151816001019080519060200190611ce592919061262d565b5060408201518160030160006101000a81548160ff0219169083151502179055509050505b5050565b60608251604051908082528060200260200182016040528015611d405781602001602082028038833980820191505090505b50905060008090505b8351811015611e5d57600080600160003373ffffffffffffffffffffffffffffffffffffffff1673ffffffffffffffffffffffffffffffffffffffff168152602001908152602001600020600201868481518110611da357fe5b6020026020010151604051611db891906131eb565b908152602001604051809103902060009054906101000a900473ffffffffffffffffffffffffffffffffffffffff1673ffffffffffffffffffffffffffffffffffffffff1673ffffffffffffffffffffffffffffffffffffffff16815260200190815260200160002060030160009054906101000a900460ff16828281518110611e3e57fe5b6020026020010190151590811515815250508080600101915050611d49565b506040518060c001604052808581526020013373ffffffffffffffffffffffffffffffffffffffff1681526020013373ffffffffffffffffffffffffffffffffffffffff16815260200184815260200182815260200183815250600283604051611ec79190613202565b90815260200160405180910390206000820151816000019080519060200190611ef192919061262d565b5060208201518160010160006101000a81548173ffffffffffffffffffffffffffffffffffffffff021916908373ffffffffffffffffffffffffffffffffffffffff16021790555060408201518160020160006101000a81548173ffffffffffffffffffffffffffffffffffffffff021916908373ffffffffffffffffffffffffffffffffffffffff1602179055506060820151816003019080519060200190611f9c9291906126ad565b506080820151816004019080519060200190611fb99291906127a8565b5060a0820151816005019080519060200190611fd692919061262d565b5090505050505050565b60036020528060005260406000206000915090508060000160009054906101000a900473ffffffffffffffffffffffffffffffffffffffff1690806001018054600181600116156101000203166002900480601f0160208091040260200160405190810160405280929190818152602001828054600181600116156101000203166002900480156120b25780601f10612087576101008083540402835291602001916120b2565b820191906000526020600020905b81548152906001019060200180831161209557829003601f168201915b505050505090806002018054600181600116156101000203166002900480601f0160208091040260200160405190810160405280929190818152602001828054600181600116156101000203166002900480156121505780601f1061212557610100808354040283529160200191612150565b820191906000526020600020905b81548152906001019060200180831161213357829003601f168201915b5050505050908060030160009054906101000a900460ff16905084565b33600460009054906101000a900473ffffffffffffffffffffffffffffffffffffffff1673ffffffffffffffffffffffffffffffffffffffff168173ffffffffffffffffffffffffffffffffffffffff16146121fe576040517f08c379a00000000000000000000000000000000000000000000000000000000081526004016121f5906133e0565b60405180910390fd5b60018060008473ffffffffffffffffffffffffffffffffffffffff1673ffffffffffffffffffffffffffffffffffffffff16815260200190815260200160002060030160006101000a81548160ff0219169083151502179055505050565b60606000808373ffffffffffffffffffffffffffffffffffffffff1673ffffffffffffffffffffffffffffffffffffffff16815260200190815260200160002060030160019054906101000a900460ff16156122ef576040518060400160405280600681526020017f4661726d65720000000000000000000000000000000000000000000000000000815250905061245f565b600360008373ffffffffffffffffffffffffffffffffffffffff1673ffffffffffffffffffffffffffffffffffffffff16815260200190815260200160002060030160009054906101000a900460ff161561242657600360008373ffffffffffffffffffffffffffffffffffffffff1673ffffffffffffffffffffffffffffffffffffffff1681526020019081526020016000206002018054600181600116156101000203166002900480601f01602080910402602001604051908101604052809291908181526020018280546001816001161561010002031660029004801561241a5780601f106123ef5761010080835404028352916020019161241a565b820191906000526020600020905b8154815290600101906020018083116123fd57829003601f168201915b5050505050905061245f565b6040518060400160405280600a81526020017f4e6577416464726573730000000000000000000000000000000000000000000081525090505b919050565b3373ffffffffffffffffffffffffffffffffffffffff1660028260405161248b9190613202565b908152602001604051809103902060010160009054906101000a900473ffffffffffffffffffffffffffffffffffffffff1673ffffffffffffffffffffffffffffffffffffffff1614612513576040517f08c379a000000000000000000000000000000000000000000000000000000000815260040161250a90613400565b60405180910390fd5b816002826040516125249190613202565b908152602001604051809103902060010160006101000a81548173ffffffffffffffffffffffffffffffffffffffff021916908373ffffffffffffffffffffffffffffffffffffffff1602179055505050565b600460009054906101000a900473ffffffffffffffffffffffffffffffffffffffff1681565b6040518060c00160405280600073ffffffffffffffffffffffffffffffffffffffff1681526020016060815260200160608152602001600015158152602001600015158152602001606081525090565b6040518060800160405280600073ffffffffffffffffffffffffffffffffffffffff16815260200160608152602001606081526020016000151581525090565b828054600181600116156101000203166002900490600052602060002090601f016020900481019282601f1061266e57805160ff191683800117855561269c565b8280016001018555821561269c579182015b8281111561269b578251825591602001919060010190612680565b5b5090506126a9919061284e565b5090565b8280548282559060005260206000209081019282156126fc579160200282015b828111156126fb5782518290805190602001906126eb92919061262d565b50916020019190600101906126cd565b5b5090506127099190612873565b5090565b6040518060c0016040528060608152602001600073ffffffffffffffffffffffffffffffffffffffff168152602001600073ffffffffffffffffffffffffffffffffffffffff1681526020016060815260200160608152602001606081525090565b6040518060600160405280600073ffffffffffffffffffffffffffffffffffffffff168152602001606081526020016000151581525090565b82805482825590600052602060002090601f0160209004810192821561283d5791602002820160005b8382111561280e57835183826101000a81548160ff02191690831515021790555092602001926001016020816000010492830192600103026127d1565b801561283b5782816101000a81549060ff021916905560010160208160000104928301926001030261280e565b505b50905061284a919061289f565b5090565b61287091905b8082111561286c576000816000905550600101612854565b5090565b90565b61289c91905b80821115612898576000818161288f91906128cf565b50600101612879565b5090565b90565b6128cc91905b808211156128c857600081816101000a81549060ff0219169055506001016128a5565b5090565b90565b50805460018160011615610100020316600290046000825580601f106128f55750612914565b601f016020900490600052602060002090810190612913919061284e565b5b50565b600081359050612926816136d8565b92915050565b600082601f83011261293d57600080fd5b813561295061294b82613500565b6134d3565b9150818183526020840193506020810190508360005b83811015612996578135860161297c88826129a0565b845260208401935060208301925050600181019050612966565b5050505092915050565b600082601f8301126129b157600080fd5b81356129c46129bf82613528565b6134d3565b915080825260208301602083018583830111156129e057600080fd5b6129eb838284613685565b50505092915050565b600082601f830112612a0557600080fd5b8135612a18612a1382613554565b6134d3565b91508082526020830160208301858383011115612a3457600080fd5b612a3f838284613685565b50505092915050565b600060208284031215612a5a57600080fd5b6000612a6884828501612917565b91505092915050565b60008060408385031215612a8457600080fd5b6000612a9285828601612917565b925050602083013567ffffffffffffffff811115612aaf57600080fd5b612abb858286016129f4565b9150509250929050565b600060208284031215612ad757600080fd5b600082013567ffffffffffffffff811115612af157600080fd5b612afd848285016129a0565b91505092915050565b600060208284031215612b1857600080fd5b600082013567ffffffffffffffff811115612b3257600080fd5b612b3e848285016129f4565b91505092915050565b60008060408385031215612b5a57600080fd5b600083013567ffffffffffffffff811115612b7457600080fd5b612b80858286016129f4565b9250506020612b9185828601612917565b9150509250929050565b600080600060608486031215612bb057600080fd5b600084013567ffffffffffffffff811115612bca57600080fd5b612bd6868287016129f4565b935050602084013567ffffffffffffffff811115612bf357600080fd5b612bff8682870161292c565b925050604084013567ffffffffffffffff811115612c1c57600080fd5b612c28868287016129f4565b9150509250925092565b60008060408385031215612c4557600080fd5b600083013567ffffffffffffffff811115612c5f57600080fd5b612c6b858286016129f4565b925050602083013567ffffffffffffffff811115612c8857600080fd5b612c94858286016129f4565b9150509250929050565b600080600060608486031215612cb357600080fd5b600084013567ffffffffffffffff811115612ccd57600080fd5b612cd9868287016129f4565b935050602084013567ffffffffffffffff811115612cf657600080fd5b612d02868287016129f4565b925050604084013567ffffffffffffffff811115612d1f57600080fd5b612d2b8682870161292c565b9150509250925092565b6000612d418383612e61565b60208301905092915050565b6000612d598383612ee9565b905092915050565b612d6a81613647565b82525050565b612d7981613635565b82525050565b612d8881613635565b82525050565b6000612d99826135a0565b612da381856135e6565b9350612dae83613580565b8060005b83811015612ddf578151612dc68882612d35565b9750612dd1836135cc565b925050600181019050612db2565b5085935050505092915050565b6000612df7826135ab565b612e0181856135f7565b935083602082028501612e1385613590565b8060005b85811015612e4f5784840389528151612e308582612d4d565b9450612e3b836135d9565b925060208a01995050600181019050612e17565b50829750879550505050505092915050565b612e6a81613659565b82525050565b612e7981613659565b82525050565b6000612e8a826135c1565b612e948185613619565b9350612ea4818560208601613694565b612ead816136c7565b840191505092915050565b6000612ec3826135c1565b612ecd818561362a565b9350612edd818560208601613694565b80840191505092915050565b6000612ef4826135b6565b612efe8185613608565b9350612f0e818560208601613694565b612f17816136c7565b840191505092915050565b6000612f2d826135b6565b612f378185613619565b9350612f47818560208601613694565b612f50816136c7565b840191505092915050565b6000612f66826135b6565b612f70818561362a565b9350612f80818560208601613694565b80840191505092915050565b6000612f99600c83613619565b91507f556e617574686f72697a656400000000000000000000000000000000000000006000830152602082019050919050565b6000612fd9601183613619565b91507f496e76616c6964204f776e6572736869700000000000000000000000000000006000830152602082019050919050565b6000613019600c8361362a565b91507f4d616e75666163747572657200000000000000000000000000000000000000006000830152600c82019050919050565b600060c0830160008301516130646000860182612d70565b506020830151848203602086015261307c8282612ee9565b915050604083015184820360408601526130968282612ee9565b91505060608301516130ab6060860182612e61565b5060808301516130be6080860182612e61565b5060a083015184820360a08601526130d68282612dec565b9150508091505092915050565b600060c08301600083015184820360008601526131008282612ee9565b91505060208301516131156020860182612d70565b5060408301516131286040860182612d70565b50606083015184820360608601526131408282612dec565b9150506080830151848203608086015261315a8282612d8e565b91505060a083015184820360a08601526131748282612ee9565b9150508091505092915050565b60006080830160008301516131996000860182612d70565b50602083015184820360208601526131b18282612ee9565b915050604083015184820360408601526131cb8282612ee9565b91505060608301516131e06060860182612e61565b508091505092915050565b60006131f78284612f5b565b915081905092915050565b600061320e8284612eb8565b915081905092915050565b60006132248261300c565b9150819050919050565b60006020820190506132436000830184612d61565b92915050565b600060608201905061325e6000830186612d7f565b81810360208301526132708185612f22565b905061327f6040830184612e70565b949350505050565b600060808201905061329c6000830187612d7f565b81810360208301526132ae8186612f22565b905081810360408301526132c28185612f22565b90506132d16060830184612e70565b95945050505050565b600060a0820190506132ef6000830188612d7f565b81810360208301526133018187612f22565b905081810360408301526133158186612f22565b90506133246060830185612e70565b6133316080830184612e70565b9695505050505050565b600060208201905081810360008301526133558184612e7f565b905092915050565b600060408201905081810360008301526133778185612e7f565b90506133866020830184612e70565b9392505050565b600060808201905081810360008301526133a78187612f22565b90506133b66020830186612d7f565b6133c36040830185612d7f565b81810360608301526133d58184612f22565b905095945050505050565b600060208201905081810360008301526133f981612f8c565b9050919050565b6000602082019050818103600083015261341981612fcc565b9050919050565b6000602082019050818103600083015261343a818461304c565b905092915050565b600060a082019050818103600083015261345c81886130e3565b905081810360208301526134708187612e7f565b905061347f6040830186612e70565b81810360608301526134918185613181565b905081810360808301526134a58184613181565b90509695505050505050565b600060208201905081810360008301526134cb8184613181565b905092915050565b6000604051905081810181811067ffffffffffffffff821117156134f657600080fd5b8060405250919050565b600067ffffffffffffffff82111561351757600080fd5b602082029050602081019050919050565b600067ffffffffffffffff82111561353f57600080fd5b601f19601f8301169050602081019050919050565b600067ffffffffffffffff82111561356b57600080fd5b601f19601f8301169050602081019050919050565b6000819050602082019050919050565b6000819050602082019050919050565b600081519050919050565b600081519050919050565b600081519050919050565b600081519050919050565b6000602082019050919050565b6000602082019050919050565b600082825260208201905092915050565b600082825260208201905092915050565b600082825260208201905092915050565b600082825260208201905092915050565b600081905092915050565b600061364082613665565b9050919050565b600061365282613665565b9050919050565b60008115159050919050565b600073ffffffffffffffffffffffffffffffffffffffff82169050919050565b82818337600083830152505050565b60005b838110156136b2578082015181840152602081019050613697565b838111156136c1576000848401525b50505050565b6000601f19601f8301169050919050565b6136e181613635565b81146136ec57600080fd5b5056fea365627a7a7231582074b215260d2f195bf62dc1aa83069db93980a29577ee409b10061884230896b86c6578706572696d656e74616cf564736f6c63430005100040",
  "source": "pragma solidity ^0.5.0;\r\npragma experimental ABIEncoderV2;\r\ncontract Main{\r\n    struct Farmer{\r\n        address id;\r\n        string name;\r\n        string region;\r\n        bool isVerified;\r\n        bool isValue; //to verify value exists in mapping or not\r\n        string [] rawProducts;        \r\n    }\r\n    struct Manufacturer{\r\n        address id;\r\n        string name;\r\n        mapping(string => address) rawProducts;\r\n        bool isRenewableUsed;\r\n    }\r\n\r\n    struct Product{\r\n        string name;\r\n        address ownership;\r\n        address manufacturer;\r\n        string[] rawProducts;\r\n        bool[] rawProductsVerification;\r\n        string serialNo;\r\n    }\r\n\r\n    // enum Role {Distributer, Retailer, Consumer, Manufacturer}\r\n\r\n    struct Stakeholder{\r\n        address id;\r\n        string name;\r\n        string role;\r\n        bool isValue; //to verify value exists in mapping or not\r\n    }\r\n\r\n    mapping(address => Farmer) public farmers;\r\n    mapping(address => Manufacturer) public manufacturers;\r\n    mapping(string => Product) public products;\r\n    mapping(address => Stakeholder) public stakeholders;\r\n\r\n    address payable public admin;\r\n    constructor() public {\r\n        admin = msg.sender;        \r\n    }\r\n\r\n    // Modifier to ensure only the admin access a function\r\n    modifier verifyAdmin( address id) {\r\n        require(id == admin, \"Unauthorized\");\r\n        _;\r\n    }\r\n\r\n    /**\r\n     * Function to get the role of the passed address\r\n     */\r\n    function checkIdentity(address id) public view returns(string memory) {\r\n        if(farmers[id].isValue) return \"Farmer\";\r\n        else if(stakeholders[id].isValue) return stakeholders[id].role;\r\n        else return \"NewAddress\";\r\n    }\r\n\r\n    /**\r\n     * Function to add a new farmer on the application\r\n     */\r\n    function registerFarmer(\r\n        string memory name,\r\n        string memory region,\r\n        string[] memory rawProducts\r\n    ) public {\r\n        farmers[msg.sender] = Farmer(msg.sender,name,region,false,true,rawProducts);\r\n    }\r\n    /**\r\n     * Function to verify a farmer\r\n     */\r\n    function verifyFarmer(address id) public verifyAdmin(msg.sender) {\r\n        farmers[id].isVerified = true;\r\n    }\r\n    /**\r\n     * function to find a farmer by address\r\n     */\r\n    function findFarmer(address id) public view returns(Farmer memory){\r\n        return farmers[id];\r\n    }\r\n\r\n    // /**\r\n    //  * Function to add a new manufacturer on the application\r\n    //  */\r\n    // function registerManufacturer(string memory name) public {\r\n    //     manufacturers[msg.sender] = Manufacturer({\r\n    //         id: msg.sender,\r\n    //         name: name,\r\n    //         isRenewableUsed: false\r\n    //     });\r\n    // }\r\n    /**\r\n     * Function to set the isRenewableUsed for a manufacturer\r\n     */\r\n    function updateManufacturerRenewable(address id) public verifyAdmin(msg.sender){\r\n        manufacturers[id].isRenewableUsed = true;\r\n    }\r\n    /**\r\n     * Function to add a rawproduct for a manufacturer\r\n     */\r\n    function updateManufacturerRawProducts(        \r\n        string memory rawProductName,\r\n        address farmerAddress\r\n    ) public {\r\n        manufacturers[msg.sender].rawProducts[rawProductName] = farmerAddress;\r\n    }\r\n    /**\r\n     * function to find a manufacturer by address\r\n     */\r\n    function findManufacturer(address id) public view returns(string memory,bool){\r\n        return(\r\n            manufacturers[id].name,\r\n            manufacturers[id].isRenewableUsed\r\n        );\r\n    }\r\n\r\n    function registerStakeHolder(\r\n        string memory name,\r\n        string memory role\r\n    ) public {\r\n        stakeholders[msg.sender] = Stakeholder(msg.sender,name,role,true);\r\n        if(keccak256(abi.encodePacked(role)) == keccak256(abi.encodePacked(\"Manufacturer\"))){\r\n            manufacturers[msg.sender] = Manufacturer({\r\n                id: msg.sender,\r\n                name: name,\r\n                isRenewableUsed: false\r\n            });\r\n        }\r\n    }\r\n\r\n    /**\r\n     * function to find a stackholder by address\r\n     */\r\n    function findStackholder(address id) public view returns(Stakeholder memory){\r\n        return stakeholders[id];\r\n    }\r\n\r\n    function launchProduct(\r\n        string memory name,\r\n        string[] memory rawProducts,\r\n        string memory serialNo\r\n    ) public {\r\n        bool[] memory rawProductsVerification = new bool[](rawProducts.length);\r\n        for(uint i=0;i<rawProducts.length;i++){\r\n            rawProductsVerification[i] = farmers[manufacturers[msg.sender].rawProducts[rawProducts[i]]].isVerified;\r\n        }\r\n        products[serialNo] = Product(name,msg.sender,msg.sender,rawProducts,rawProductsVerification,serialNo);\r\n    }\r\n\r\n    function transferOwnership(\r\n        address newOwner,\r\n        string memory serialNo\r\n    ) public {\r\n        require(products[serialNo].ownership==msg.sender,\"Invalid Ownership\");\r\n        products[serialNo].ownership = newOwner;\r\n    }\r\n\r\n    function verifyProduct(\r\n        string memory serialNo\r\n    ) public view returns (Product memory, string memory, bool, Stakeholder memory, Stakeholder memory){\r\n        Product memory product = products[serialNo];\r\n        Manufacturer memory manufacturerDetails = manufacturers[product.manufacturer];\r\n        Stakeholder memory manufacturer = stakeholders[product.manufacturer];\r\n        Stakeholder memory currentOwner = stakeholders[product.ownership];\r\n        return(\r\n            product,            \r\n            manufacturerDetails.name,\r\n            manufacturerDetails.isRenewableUsed,\r\n            manufacturer,\r\n            currentOwner\r\n        );\r\n    }\r\n\r\n}",
  "sourcePath": "C:\\Users\\Lakshya Bansal\\Desktop\\Major project\\supply-chain\\src\\Contracts\\Main.sol",
  "compiler": {
    "name": "solc",
    "version": "0.5.16+commit.9c3226ce.Emscripten.clang"
  },
  "schemaVersion": "3.4.3",
  "updatedAt": "2021-10-16T10:49:34.778Z",
  "networkType": "ethereum",
  "devdoc": {
    "methods": {}
  },
  "userdoc": {
    "methods": {
      "checkIdentity(address)": {
        "notice": "Function to get the role of the passed address"
      },
      "findFarmer(address)": {
        "notice": "function to find a farmer by address"
      },
      "findManufacturer(address)": {
        "notice": "function to find a manufacturer by address"
      },
      "findStackholder(address)": {
        "notice": "function to find a stackholder by address"
      },
      "registerFarmer(string,string,string[])": {
        "notice": "Function to add a new farmer on the application"
      },
      "updateManufacturerRawProducts(string,address)": {
        "notice": "Function to add a rawproduct for a manufacturer"
      },
      "updateManufacturerRenewable(address)": {
        "notice": "Function to set the isRenewableUsed for a manufacturer"
      },
      "verifyFarmer(address)": {
        "notice": "Function to verify a farmer"
      }
    }
  }
}