{
  "contractName": "Main",
  "abi": [
    {
      "inputs": [],
      "payable": false,
      "stateMutability": "nonpayable",
      "type": "constructor"
    },
    {
      "constant": true,
      "inputs": [],
      "name": "admin",
      "outputs": [
        {
          "internalType": "address payable",
          "name": "",
          "type": "address"
        }
      ],
      "payable": false,
      "stateMutability": "view",
      "type": "function"
    },
    {
      "constant": true,
      "inputs": [
        {
          "internalType": "address",
          "name": "",
          "type": "address"
        }
      ],
      "name": "farmers",
      "outputs": [
        {
          "internalType": "address",
          "name": "id",
          "type": "address"
        },
        {
          "internalType": "string",
          "name": "name",
          "type": "string"
        },
        {
          "internalType": "string",
          "name": "region",
          "type": "string"
        },
        {
          "internalType": "bool",
          "name": "isVerified",
          "type": "bool"
        }
      ],
      "payable": false,
      "stateMutability": "view",
      "type": "function"
    },
    {
      "constant": true,
      "inputs": [
        {
          "internalType": "address",
          "name": "",
          "type": "address"
        }
      ],
      "name": "manufacturers",
      "outputs": [
        {
          "internalType": "address",
          "name": "id",
          "type": "address"
        },
        {
          "internalType": "string",
          "name": "name",
          "type": "string"
        },
        {
          "internalType": "bool",
          "name": "isRenewableUsed",
          "type": "bool"
        }
      ],
      "payable": false,
      "stateMutability": "view",
      "type": "function"
    },
    {
      "constant": true,
      "inputs": [
        {
          "internalType": "string",
          "name": "",
          "type": "string"
        }
      ],
      "name": "products",
      "outputs": [
        {
          "internalType": "string",
          "name": "name",
          "type": "string"
        },
        {
          "internalType": "address",
          "name": "ownership",
          "type": "address"
        },
        {
          "internalType": "address",
          "name": "manufacturer",
          "type": "address"
        },
        {
          "internalType": "string",
          "name": "serialNo",
          "type": "string"
        }
      ],
      "payable": false,
      "stateMutability": "view",
      "type": "function"
    },
    {
      "constant": true,
      "inputs": [
        {
          "internalType": "address",
          "name": "",
          "type": "address"
        }
      ],
      "name": "stakeholders",
      "outputs": [
        {
          "internalType": "address",
          "name": "id",
          "type": "address"
        },
        {
          "internalType": "string",
          "name": "name",
          "type": "string"
        },
        {
          "internalType": "string",
          "name": "role",
          "type": "string"
        }
      ],
      "payable": false,
      "stateMutability": "view",
      "type": "function"
    },
    {
      "constant": false,
      "inputs": [
        {
          "internalType": "string",
          "name": "name",
          "type": "string"
        },
        {
          "internalType": "string",
          "name": "region",
          "type": "string"
        },
        {
          "internalType": "string[]",
          "name": "rawProducts",
          "type": "string[]"
        }
      ],
      "name": "registerFarmer",
      "outputs": [],
      "payable": false,
      "stateMutability": "nonpayable",
      "type": "function"
    },
    {
      "constant": false,
      "inputs": [
        {
          "internalType": "address",
          "name": "id",
          "type": "address"
        }
      ],
      "name": "verifyFarmer",
      "outputs": [],
      "payable": false,
      "stateMutability": "nonpayable",
      "type": "function"
    },
    {
      "constant": true,
      "inputs": [
        {
          "internalType": "address",
          "name": "id",
          "type": "address"
        }
      ],
      "name": "findFarmer",
      "outputs": [
        {
          "components": [
            {
              "internalType": "address",
              "name": "id",
              "type": "address"
            },
            {
              "internalType": "string",
              "name": "name",
              "type": "string"
            },
            {
              "internalType": "string",
              "name": "region",
              "type": "string"
            },
            {
              "internalType": "bool",
              "name": "isVerified",
              "type": "bool"
            },
            {
              "internalType": "string[]",
              "name": "rawProducts",
              "type": "string[]"
            }
          ],
          "internalType": "struct Main.Farmer",
          "name": "",
          "type": "tuple"
        }
      ],
      "payable": false,
      "stateMutability": "view",
      "type": "function"
    },
    {
      "constant": false,
      "inputs": [
        {
          "internalType": "address",
          "name": "id",
          "type": "address"
        }
      ],
      "name": "updateManufacturerRenewable",
      "outputs": [],
      "payable": false,
      "stateMutability": "nonpayable",
      "type": "function"
    },
    {
      "constant": false,
      "inputs": [
        {
          "internalType": "string",
          "name": "rawProductName",
          "type": "string"
        },
        {
          "internalType": "address",
          "name": "farmerAddress",
          "type": "address"
        }
      ],
      "name": "updateManufacturerRawProducts",
      "outputs": [],
      "payable": false,
      "stateMutability": "nonpayable",
      "type": "function"
    },
    {
      "constant": true,
      "inputs": [
        {
          "internalType": "address",
          "name": "id",
          "type": "address"
        }
      ],
      "name": "findManufacturer",
      "outputs": [
        {
          "internalType": "string",
          "name": "",
          "type": "string"
        },
        {
          "internalType": "bool",
          "name": "",
          "type": "bool"
        }
      ],
      "payable": false,
      "stateMutability": "view",
      "type": "function"
    },
    {
      "constant": false,
      "inputs": [
        {
          "internalType": "string",
          "name": "name",
          "type": "string"
        },
        {
          "internalType": "string",
          "name": "role",
          "type": "string"
        }
      ],
      "name": "registerStakeHolder",
      "outputs": [],
      "payable": false,
      "stateMutability": "nonpayable",
      "type": "function"
    },
    {
      "constant": false,
      "inputs": [
        {
          "internalType": "string",
          "name": "name",
          "type": "string"
        },
        {
          "internalType": "string[]",
          "name": "rawProducts",
          "type": "string[]"
        },
        {
          "internalType": "string",
          "name": "serialNo",
          "type": "string"
        }
      ],
      "name": "launchProduct",
      "outputs": [],
      "payable": false,
      "stateMutability": "nonpayable",
      "type": "function"
    },
    {
      "constant": false,
      "inputs": [
        {
          "internalType": "address",
          "name": "newOwner",
          "type": "address"
        },
        {
          "internalType": "string",
          "name": "serialNo",
          "type": "string"
        }
      ],
      "name": "transferOwnership",
      "outputs": [],
      "payable": false,
      "stateMutability": "nonpayable",
      "type": "function"
    }
  ],
  "bytecode": "0x608060405234801561001057600080fd5b5033600460006101000a81548173ffffffffffffffffffffffffffffffffffffffff021916908373ffffffffffffffffffffffffffffffffffffffff160217905550612231806100616000396000f3fe608060405234801561001057600080fd5b50600436106100ea5760003560e01c80636be6ffe81161008c578063c07cfca911610066578063c07cfca914610274578063e5625543146102a6578063edf5a5be146102c2578063f851a440146102de576100ea565b80636be6ffe81461022057806395fa56fd1461023c578063b465b0a014610258576100ea565b806324e54bd4116100c857806324e54bd41461016e57806330dd2afa1461019f578063401b2168146101bb5780636b5eb09c146101ee576100ea565b80630186a423146100ef57806304b5dc7c14610122578063235db9f514610152575b600080fd5b610109600480360361010491908101906118e6565b6102fc565b6040516101199493929190611f56565b60405180910390f35b61013c60048036036101379190810190611869565b6104b2565b6040516101499190611fe9565b60405180910390f35b61016c60048036036101679190810190611869565b6107a8565b005b61018860048036036101839190810190611869565b610897565b604051610196929190611f26565b60405180910390f35b6101b960048036036101b49190810190611a7e565b6109d2565b005b6101d560048036036101d09190810190611869565b610b16565b6040516101e59493929190611ed3565b60405180910390f35b61020860048036036102039190810190611869565b610ca3565b60405161021793929190611e50565b60405180910390f35b61023a60048036036102359190810190611927565b610d92565b005b61025660048036036102519190810190611a12565b610e33565b005b610272600480360361026d919081019061197b565b611078565b005b61028e60048036036102899190810190611869565b6111d6565b60405161029d93929190611e8e565b60405180910390f35b6102c060048036036102bb9190810190611869565b611350565b005b6102dc60048036036102d79190810190611892565b61143f565b005b6102e6611552565b6040516102f39190611e35565b60405180910390f35b600281805160208101820180518482526020830160208501208183528095505050505050600091509050806000018054600181600116156101000203166002900480601f0160208091040260200160405190810160405280929190818152602001828054600181600116156101000203166002900480156103be5780601f10610393576101008083540402835291602001916103be565b820191906000526020600020905b8154815290600101906020018083116103a157829003601f168201915b5050505050908060010160009054906101000a900473ffffffffffffffffffffffffffffffffffffffff16908060020160009054906101000a900473ffffffffffffffffffffffffffffffffffffffff1690806004018054600181600116156101000203166002900480601f0160208091040260200160405190810160405280929190818152602001828054600181600116156101000203166002900480156104a85780601f1061047d576101008083540402835291602001916104a8565b820191906000526020600020905b81548152906001019060200180831161048b57829003601f168201915b5050505050905084565b6104ba611578565b6000808373ffffffffffffffffffffffffffffffffffffffff1673ffffffffffffffffffffffffffffffffffffffff1681526020019081526020016000206040518060a00160405290816000820160009054906101000a900473ffffffffffffffffffffffffffffffffffffffff1673ffffffffffffffffffffffffffffffffffffffff1673ffffffffffffffffffffffffffffffffffffffff168152602001600182018054600181600116156101000203166002900480601f0160208091040260200160405190810160405280929190818152602001828054600181600116156101000203166002900480156105f25780601f106105c7576101008083540402835291602001916105f2565b820191906000526020600020905b8154815290600101906020018083116105d557829003601f168201915b50505050508152602001600282018054600181600116156101000203166002900480601f0160208091040260200160405190810160405280929190818152602001828054600181600116156101000203166002900480156106945780601f1061066957610100808354040283529160200191610694565b820191906000526020600020905b81548152906001019060200180831161067757829003601f168201915b505050505081526020016003820160009054906101000a900460ff1615151515815260200160048201805480602002602001604051908101604052809291908181526020016000905b82821015610799578382906000526020600020018054600181600116156101000203166002900480601f0160208091040260200160405190810160405280929190818152602001828054600181600116156101000203166002900480156107855780601f1061075a57610100808354040283529160200191610785565b820191906000526020600020905b81548152906001019060200180831161076857829003601f168201915b5050505050815260200190600101906106dd565b50505050815250509050919050565b33600460009054906101000a900473ffffffffffffffffffffffffffffffffffffffff1673ffffffffffffffffffffffffffffffffffffffff168173ffffffffffffffffffffffffffffffffffffffff1614610839576040517f08c379a000000000000000000000000000000000000000000000000000000000815260040161083090611fa9565b60405180910390fd5b60016000808473ffffffffffffffffffffffffffffffffffffffff1673ffffffffffffffffffffffffffffffffffffffff16815260200190815260200160002060030160006101000a81548160ff0219169083151502179055505050565b60606000600160008473ffffffffffffffffffffffffffffffffffffffff1673ffffffffffffffffffffffffffffffffffffffff168152602001908152602001600020600101600160008573ffffffffffffffffffffffffffffffffffffffff1673ffffffffffffffffffffffffffffffffffffffff16815260200190815260200160002060030160009054906101000a900460ff16818054600181600116156101000203166002900480601f0160208091040260200160405190810160405280929190818152602001828054600181600116156101000203166002900480156109c25780601f10610997576101008083540402835291602001916109c2565b820191906000526020600020905b8154815290600101906020018083116109a557829003601f168201915b5050505050915091509150915091565b6040518060a001604052803373ffffffffffffffffffffffffffffffffffffffff168152602001848152602001838152602001600015158152602001828152506000803373ffffffffffffffffffffffffffffffffffffffff1673ffffffffffffffffffffffffffffffffffffffff16815260200190815260200160002060008201518160000160006101000a81548173ffffffffffffffffffffffffffffffffffffffff021916908373ffffffffffffffffffffffffffffffffffffffff1602179055506020820151816001019080519060200190610ab39291906115bf565b506040820151816002019080519060200190610ad09291906115bf565b5060608201518160030160006101000a81548160ff0219169083151502179055506080820151816004019080519060200190610b0d92919061163f565b50905050505050565b60006020528060005260406000206000915090508060000160009054906101000a900473ffffffffffffffffffffffffffffffffffffffff1690806001018054600181600116156101000203166002900480601f016020809104026020016040519081016040528092919081815260200182805460018160011615610100020316600290048015610be85780601f10610bbd57610100808354040283529160200191610be8565b820191906000526020600020905b815481529060010190602001808311610bcb57829003601f168201915b505050505090806002018054600181600116156101000203166002900480601f016020809104026020016040519081016040528092919081815260200182805460018160011615610100020316600290048015610c865780601f10610c5b57610100808354040283529160200191610c86565b820191906000526020600020905b815481529060010190602001808311610c6957829003601f168201915b5050505050908060030160009054906101000a900460ff16905084565b60016020528060005260406000206000915090508060000160009054906101000a900473ffffffffffffffffffffffffffffffffffffffff1690806001018054600181600116156101000203166002900480601f016020809104026020016040519081016040528092919081815260200182805460018160011615610100020316600290048015610d755780601f10610d4a57610100808354040283529160200191610d75565b820191906000526020600020905b815481529060010190602001808311610d5857829003601f168201915b5050505050908060030160009054906101000a900460ff16905083565b80600160003373ffffffffffffffffffffffffffffffffffffffff1673ffffffffffffffffffffffffffffffffffffffff16815260200190815260200160002060020183604051610de39190611e09565b908152602001604051809103902060006101000a81548173ffffffffffffffffffffffffffffffffffffffff021916908373ffffffffffffffffffffffffffffffffffffffff1602179055505050565b60405180606001604052803373ffffffffffffffffffffffffffffffffffffffff16815260200183815260200182815250600360003373ffffffffffffffffffffffffffffffffffffffff1673ffffffffffffffffffffffffffffffffffffffff16815260200190815260200160002060008201518160000160006101000a81548173ffffffffffffffffffffffffffffffffffffffff021916908373ffffffffffffffffffffffffffffffffffffffff1602179055506020820151816001019080519060200190610f069291906115bf565b506040820151816002019080519060200190610f239291906115bf565b50905050604051602001610f3690611e20565b6040516020818303038152906040528051906020012081604051602001610f5d9190611e09565b6040516020818303038152906040528051906020012014156110745760405180606001604052803373ffffffffffffffffffffffffffffffffffffffff16815260200183815260200160001515815250600160003373ffffffffffffffffffffffffffffffffffffffff1673ffffffffffffffffffffffffffffffffffffffff16815260200190815260200160002060008201518160000160006101000a81548173ffffffffffffffffffffffffffffffffffffffff021916908373ffffffffffffffffffffffffffffffffffffffff160217905550602082015181600101908051906020019061104f9291906115bf565b5060408201518160030160006101000a81548160ff0219169083151502179055509050505b5050565b6040518060a001604052808481526020013373ffffffffffffffffffffffffffffffffffffffff1681526020013373ffffffffffffffffffffffffffffffffffffffff168152602001838152602001828152506002826040516110db9190611e09565b908152602001604051809103902060008201518160000190805190602001906111059291906115bf565b5060208201518160010160006101000a81548173ffffffffffffffffffffffffffffffffffffffff021916908373ffffffffffffffffffffffffffffffffffffffff16021790555060408201518160020160006101000a81548173ffffffffffffffffffffffffffffffffffffffff021916908373ffffffffffffffffffffffffffffffffffffffff16021790555060608201518160030190805190602001906111b092919061163f565b5060808201518160040190805190602001906111cd9291906115bf565b50905050505050565b60036020528060005260406000206000915090508060000160009054906101000a900473ffffffffffffffffffffffffffffffffffffffff1690806001018054600181600116156101000203166002900480601f0160208091040260200160405190810160405280929190818152602001828054600181600116156101000203166002900480156112a85780601f1061127d576101008083540402835291602001916112a8565b820191906000526020600020905b81548152906001019060200180831161128b57829003601f168201915b505050505090806002018054600181600116156101000203166002900480601f0160208091040260200160405190810160405280929190818152602001828054600181600116156101000203166002900480156113465780601f1061131b57610100808354040283529160200191611346565b820191906000526020600020905b81548152906001019060200180831161132957829003601f168201915b5050505050905083565b33600460009054906101000a900473ffffffffffffffffffffffffffffffffffffffff1673ffffffffffffffffffffffffffffffffffffffff168173ffffffffffffffffffffffffffffffffffffffff16146113e1576040517f08c379a00000000000000000000000000000000000000000000000000000000081526004016113d890611fa9565b60405180910390fd5b60018060008473ffffffffffffffffffffffffffffffffffffffff1673ffffffffffffffffffffffffffffffffffffffff16815260200190815260200160002060030160006101000a81548160ff0219169083151502179055505050565b3373ffffffffffffffffffffffffffffffffffffffff166002826040516114669190611e09565b908152602001604051809103902060010160009054906101000a900473ffffffffffffffffffffffffffffffffffffffff1673ffffffffffffffffffffffffffffffffffffffff16146114ee576040517f08c379a00000000000000000000000000000000000000000000000000000000081526004016114e590611fc9565b60405180910390fd5b816002826040516114ff9190611e09565b908152602001604051809103902060010160006101000a81548173ffffffffffffffffffffffffffffffffffffffff021916908373ffffffffffffffffffffffffffffffffffffffff1602179055505050565b600460009054906101000a900473ffffffffffffffffffffffffffffffffffffffff1681565b6040518060a00160405280600073ffffffffffffffffffffffffffffffffffffffff1681526020016060815260200160608152602001600015158152602001606081525090565b828054600181600116156101000203166002900490600052602060002090601f016020900481019282601f1061160057805160ff191683800117855561162e565b8280016001018555821561162e579182015b8281111561162d578251825591602001919060010190611612565b5b50905061163b919061169f565b5090565b82805482825590600052602060002090810192821561168e579160200282015b8281111561168d57825182908051906020019061167d9291906115bf565b509160200191906001019061165f565b5b50905061169b91906116c4565b5090565b6116c191905b808211156116bd5760008160009055506001016116a5565b5090565b90565b6116ed91905b808211156116e957600081816116e091906116f0565b506001016116ca565b5090565b90565b50805460018160011615610100020316600290046000825580601f106117165750611735565b601f016020900490600052602060002090810190611734919061169f565b5b50565b600081359050611747816121d7565b92915050565b600082601f83011261175e57600080fd5b813561177161176c82612038565b61200b565b9150818183526020840193506020810190508360005b838110156117b7578135860161179d88826117c1565b845260208401935060208301925050600181019050611787565b5050505092915050565b600082601f8301126117d257600080fd5b81356117e56117e082612060565b61200b565b9150808252602083016020830185838301111561180157600080fd5b61180c838284612184565b50505092915050565b600082601f83011261182657600080fd5b81356118396118348261208c565b61200b565b9150808252602083016020830185838301111561185557600080fd5b611860838284612184565b50505092915050565b60006020828403121561187b57600080fd5b600061188984828501611738565b91505092915050565b600080604083850312156118a557600080fd5b60006118b385828601611738565b925050602083013567ffffffffffffffff8111156118d057600080fd5b6118dc85828601611815565b9150509250929050565b6000602082840312156118f857600080fd5b600082013567ffffffffffffffff81111561191257600080fd5b61191e848285016117c1565b91505092915050565b6000806040838503121561193a57600080fd5b600083013567ffffffffffffffff81111561195457600080fd5b61196085828601611815565b925050602061197185828601611738565b9150509250929050565b60008060006060848603121561199057600080fd5b600084013567ffffffffffffffff8111156119aa57600080fd5b6119b686828701611815565b935050602084013567ffffffffffffffff8111156119d357600080fd5b6119df8682870161174d565b925050604084013567ffffffffffffffff8111156119fc57600080fd5b611a0886828701611815565b9150509250925092565b60008060408385031215611a2557600080fd5b600083013567ffffffffffffffff811115611a3f57600080fd5b611a4b85828601611815565b925050602083013567ffffffffffffffff811115611a6857600080fd5b611a7485828601611815565b9150509250929050565b600080600060608486031215611a9357600080fd5b600084013567ffffffffffffffff811115611aad57600080fd5b611ab986828701611815565b935050602084013567ffffffffffffffff811115611ad657600080fd5b611ae286828701611815565b925050604084013567ffffffffffffffff811115611aff57600080fd5b611b0b8682870161174d565b9150509250925092565b6000611b218383611c53565b905092915050565b611b3281612146565b82525050565b611b4181612134565b82525050565b611b5081612134565b82525050565b6000611b61826120c8565b611b6b81856120f6565b935083602082028501611b7d856120b8565b8060005b85811015611bb95784840389528151611b9a8582611b15565b9450611ba5836120e9565b925060208a01995050600181019050611b81565b50829750879550505050505092915050565b611bd481612158565b82525050565b611be381612158565b82525050565b6000611bf4826120de565b611bfe8185612118565b9350611c0e818560208601612193565b611c17816121c6565b840191505092915050565b6000611c2d826120de565b611c378185612129565b9350611c47818560208601612193565b80840191505092915050565b6000611c5e826120d3565b611c688185612107565b9350611c78818560208601612193565b611c81816121c6565b840191505092915050565b6000611c97826120d3565b611ca18185612118565b9350611cb1818560208601612193565b611cba816121c6565b840191505092915050565b6000611cd2600c83612118565b91507f556e617574686f72697a656400000000000000000000000000000000000000006000830152602082019050919050565b6000611d12601183612118565b91507f496e76616c6964204f776e6572736869700000000000000000000000000000006000830152602082019050919050565b6000611d52600c83612129565b91507f4d616e75666163747572657200000000000000000000000000000000000000006000830152600c82019050919050565b600060a083016000830151611d9d6000860182611b38565b5060208301518482036020860152611db58282611c53565b91505060408301518482036040860152611dcf8282611c53565b9150506060830151611de46060860182611bcb565b5060808301518482036080860152611dfc8282611b56565b9150508091505092915050565b6000611e158284611c22565b915081905092915050565b6000611e2b82611d45565b9150819050919050565b6000602082019050611e4a6000830184611b29565b92915050565b6000606082019050611e656000830186611b47565b8181036020830152611e778185611c8c565b9050611e866040830184611bda565b949350505050565b6000606082019050611ea36000830186611b47565b8181036020830152611eb58185611c8c565b90508181036040830152611ec98184611c8c565b9050949350505050565b6000608082019050611ee86000830187611b47565b8181036020830152611efa8186611c8c565b90508181036040830152611f0e8185611c8c565b9050611f1d6060830184611bda565b95945050505050565b60006040820190508181036000830152611f408185611be9565b9050611f4f6020830184611bda565b9392505050565b60006080820190508181036000830152611f708187611c8c565b9050611f7f6020830186611b47565b611f8c6040830185611b47565b8181036060830152611f9e8184611c8c565b905095945050505050565b60006020820190508181036000830152611fc281611cc5565b9050919050565b60006020820190508181036000830152611fe281611d05565b9050919050565b600060208201905081810360008301526120038184611d85565b905092915050565b6000604051905081810181811067ffffffffffffffff8211171561202e57600080fd5b8060405250919050565b600067ffffffffffffffff82111561204f57600080fd5b602082029050602081019050919050565b600067ffffffffffffffff82111561207757600080fd5b601f19601f8301169050602081019050919050565b600067ffffffffffffffff8211156120a357600080fd5b601f19601f8301169050602081019050919050565b6000819050602082019050919050565b600081519050919050565b600081519050919050565b600081519050919050565b6000602082019050919050565b600082825260208201905092915050565b600082825260208201905092915050565b600082825260208201905092915050565b600081905092915050565b600061213f82612164565b9050919050565b600061215182612164565b9050919050565b60008115159050919050565b600073ffffffffffffffffffffffffffffffffffffffff82169050919050565b82818337600083830152505050565b60005b838110156121b1578082015181840152602081019050612196565b838111156121c0576000848401525b50505050565b6000601f19601f8301169050919050565b6121e081612134565b81146121eb57600080fd5b5056fea365627a7a72315820de185c8f32bf8ae1eef9d431f0deffba77fd0127fd0b26584b830554c99fdeb86c6578706572696d656e74616cf564736f6c63430005100040",
  "source": "pragma solidity ^0.5.0;\r\npragma experimental ABIEncoderV2;\r\ncontract Main{\r\n    struct Farmer{\r\n        address id;\r\n        string name;\r\n        string region;\r\n        bool isVerified;\r\n        string [] rawProducts;        \r\n    }\r\n    struct Manufacturer{\r\n        address id;\r\n        string name;\r\n        mapping(string => address) rawProducts;\r\n        bool isRenewableUsed;\r\n    }\r\n\r\n    struct Product{\r\n        string name;\r\n        address ownership;\r\n        address manufacturer;\r\n        string[] rawProducts;\r\n        string serialNo;\r\n    }\r\n\r\n    // enum Role {Distributer, Retailer, Consumer, Manufacturer}\r\n\r\n    struct Stakeholder{\r\n        address id;\r\n        string name;\r\n        string role;\r\n    }\r\n\r\n    mapping(address => Farmer) public farmers;\r\n    mapping(address => Manufacturer) public manufacturers;\r\n    mapping(string => Product) public products;\r\n    mapping(address => Stakeholder) public stakeholders;\r\n\r\n    address payable public admin;\r\n    constructor() public {\r\n        admin = msg.sender;        \r\n    }\r\n\r\n    // Modifier to ensure only the admin access a function\r\n    modifier verifyAdmin( address id) {\r\n        require(id == admin, \"Unauthorized\");\r\n        _;\r\n    }\r\n\r\n    /**\r\n     * Function to add a new farmer on the application\r\n     */\r\n    function registerFarmer(\r\n        string memory name,\r\n        string memory region,\r\n        string[] memory rawProducts\r\n    ) public {\r\n        farmers[msg.sender] = Farmer(msg.sender,name,region,false,rawProducts);\r\n    }\r\n    /**\r\n     * Function to verify a farmer\r\n     */\r\n    function verifyFarmer(address id) public verifyAdmin(msg.sender) {\r\n        farmers[id].isVerified = true;\r\n    }\r\n    /**\r\n     * function to find a farmer by address\r\n     */\r\n    function findFarmer(address id) public view returns(Farmer memory){\r\n        return farmers[id];\r\n    }\r\n\r\n    // /**\r\n    //  * Function to add a new manufacturer on the application\r\n    //  */\r\n    // function registerManufacturer(string memory name) public {\r\n    //     manufacturers[msg.sender] = Manufacturer({\r\n    //         id: msg.sender,\r\n    //         name: name,\r\n    //         isRenewableUsed: false\r\n    //     });\r\n    // }\r\n    /**\r\n     * Function to set the isRenewableUsed for a manufacturer\r\n     */\r\n    function updateManufacturerRenewable(address id) public verifyAdmin(msg.sender){\r\n        manufacturers[id].isRenewableUsed = true;\r\n    }\r\n    /**\r\n     * Function to add a rawproduct for a manufacturer\r\n     */\r\n    function updateManufacturerRawProducts(        \r\n        string memory rawProductName,\r\n        address farmerAddress\r\n    ) public {\r\n        manufacturers[msg.sender].rawProducts[rawProductName] = farmerAddress;\r\n    }\r\n    /**\r\n     * function to find a manufacturer by address\r\n     */\r\n    function findManufacturer(address id) public view returns(string memory,bool){\r\n        return(\r\n            manufacturers[id].name,\r\n            manufacturers[id].isRenewableUsed\r\n        );\r\n    }\r\n\r\n    function registerStakeHolder(\r\n        string memory name,\r\n        string memory role\r\n    ) public {\r\n        stakeholders[msg.sender] = Stakeholder(msg.sender,name,role);\r\n        if(keccak256(abi.encodePacked(role)) == keccak256(abi.encodePacked(\"Manufacturer\"))){\r\n            manufacturers[msg.sender] = Manufacturer({\r\n                id: msg.sender,\r\n                name: name,\r\n                isRenewableUsed: false\r\n            });\r\n        }\r\n    }\r\n\r\n    function launchProduct(\r\n        string memory name,\r\n        string[] memory rawProducts,\r\n        string memory serialNo\r\n    ) public {\r\n        products[serialNo] = Product(name,msg.sender,msg.sender,rawProducts,serialNo);\r\n    }\r\n\r\n    function transferOwnership(\r\n        address newOwner,\r\n        string memory serialNo\r\n    ) public {\r\n        require(products[serialNo].ownership==msg.sender,\"Invalid Ownership\");\r\n        products[serialNo].ownership = newOwner;\r\n    }\r\n\r\n}",
  "sourcePath": "C:\\Users\\Lakshya Bansal\\Desktop\\Major project\\supply-chain\\src\\Contracts\\Main.sol",
  "compiler": {
    "name": "solc",
    "version": "0.5.16+commit.9c3226ce.Emscripten.clang"
  },
  "schemaVersion": "3.4.3",
  "updatedAt": "2021-10-06T18:29:30.263Z",
  "devdoc": {
    "methods": {}
  },
  "userdoc": {
    "methods": {
      "findFarmer(address)": {
        "notice": "function to find a farmer by address"
      },
      "findManufacturer(address)": {
        "notice": "function to find a manufacturer by address"
      },
      "registerFarmer(string,string,string[])": {
        "notice": "Function to add a new farmer on the application"
      },
      "updateManufacturerRawProducts(string,address)": {
        "notice": "Function to add a rawproduct for a manufacturer"
      },
      "updateManufacturerRenewable(address)": {
        "notice": "Function to set the isRenewableUsed for a manufacturer"
      },
      "verifyFarmer(address)": {
        "notice": "Function to verify a farmer"
      }
    }
  }
}