{
  "contractName": "Main",
  "abi": [
    {
      "inputs": [],
      "payable": false,
      "stateMutability": "nonpayable",
      "type": "constructor"
    },
    {
      "constant": true,
      "inputs": [],
      "name": "admin",
      "outputs": [
        {
          "internalType": "address payable",
          "name": "",
          "type": "address"
        }
      ],
      "payable": false,
      "stateMutability": "view",
      "type": "function"
    },
    {
      "constant": true,
      "inputs": [
        {
          "internalType": "address",
          "name": "",
          "type": "address"
        }
      ],
      "name": "farmers",
      "outputs": [
        {
          "internalType": "address",
          "name": "id",
          "type": "address"
        },
        {
          "internalType": "string",
          "name": "name",
          "type": "string"
        },
        {
          "internalType": "string",
          "name": "region",
          "type": "string"
        },
        {
          "internalType": "bool",
          "name": "isVerified",
          "type": "bool"
        },
        {
          "internalType": "bool",
          "name": "isValue",
          "type": "bool"
        }
      ],
      "payable": false,
      "stateMutability": "view",
      "type": "function"
    },
    {
      "constant": true,
      "inputs": [
        {
          "internalType": "uint256",
          "name": "",
          "type": "uint256"
        }
      ],
      "name": "farmersArray",
      "outputs": [
        {
          "internalType": "address",
          "name": "",
          "type": "address"
        }
      ],
      "payable": false,
      "stateMutability": "view",
      "type": "function"
    },
    {
      "constant": true,
      "inputs": [
        {
          "internalType": "address",
          "name": "",
          "type": "address"
        }
      ],
      "name": "manufacturers",
      "outputs": [
        {
          "internalType": "address",
          "name": "id",
          "type": "address"
        },
        {
          "internalType": "string",
          "name": "name",
          "type": "string"
        },
        {
          "internalType": "bool",
          "name": "isRenewableUsed",
          "type": "bool"
        }
      ],
      "payable": false,
      "stateMutability": "view",
      "type": "function"
    },
    {
      "constant": true,
      "inputs": [
        {
          "internalType": "uint256",
          "name": "",
          "type": "uint256"
        }
      ],
      "name": "manufacturersArray",
      "outputs": [
        {
          "internalType": "address",
          "name": "",
          "type": "address"
        }
      ],
      "payable": false,
      "stateMutability": "view",
      "type": "function"
    },
    {
      "constant": true,
      "inputs": [
        {
          "internalType": "string",
          "name": "",
          "type": "string"
        }
      ],
      "name": "products",
      "outputs": [
        {
          "internalType": "string",
          "name": "name",
          "type": "string"
        },
        {
          "internalType": "address",
          "name": "ownership",
          "type": "address"
        },
        {
          "internalType": "address",
          "name": "manufacturer",
          "type": "address"
        },
        {
          "internalType": "string",
          "name": "serialNo",
          "type": "string"
        }
      ],
      "payable": false,
      "stateMutability": "view",
      "type": "function"
    },
    {
      "constant": true,
      "inputs": [
        {
          "internalType": "address",
          "name": "",
          "type": "address"
        }
      ],
      "name": "stakeholders",
      "outputs": [
        {
          "internalType": "address",
          "name": "id",
          "type": "address"
        },
        {
          "internalType": "string",
          "name": "name",
          "type": "string"
        },
        {
          "internalType": "string",
          "name": "role",
          "type": "string"
        },
        {
          "internalType": "bool",
          "name": "isValue",
          "type": "bool"
        }
      ],
      "payable": false,
      "stateMutability": "view",
      "type": "function"
    },
    {
      "constant": true,
      "inputs": [
        {
          "internalType": "address",
          "name": "id",
          "type": "address"
        }
      ],
      "name": "checkIdentity",
      "outputs": [
        {
          "internalType": "string",
          "name": "",
          "type": "string"
        }
      ],
      "payable": false,
      "stateMutability": "view",
      "type": "function"
    },
    {
      "constant": false,
      "inputs": [
        {
          "internalType": "string",
          "name": "name",
          "type": "string"
        },
        {
          "internalType": "string",
          "name": "region",
          "type": "string"
        },
        {
          "internalType": "string[]",
          "name": "rawProducts",
          "type": "string[]"
        }
      ],
      "name": "registerFarmer",
      "outputs": [],
      "payable": false,
      "stateMutability": "nonpayable",
      "type": "function"
    },
    {
      "constant": false,
      "inputs": [
        {
          "internalType": "address",
          "name": "id",
          "type": "address"
        }
      ],
      "name": "verifyFarmer",
      "outputs": [],
      "payable": false,
      "stateMutability": "nonpayable",
      "type": "function"
    },
    {
      "constant": true,
      "inputs": [
        {
          "internalType": "address",
          "name": "id",
          "type": "address"
        }
      ],
      "name": "findFarmer",
      "outputs": [
        {
          "components": [
            {
              "internalType": "address",
              "name": "id",
              "type": "address"
            },
            {
              "internalType": "string",
              "name": "name",
              "type": "string"
            },
            {
              "internalType": "string",
              "name": "region",
              "type": "string"
            },
            {
              "internalType": "bool",
              "name": "isVerified",
              "type": "bool"
            },
            {
              "internalType": "bool",
              "name": "isValue",
              "type": "bool"
            },
            {
              "internalType": "string[]",
              "name": "rawProducts",
              "type": "string[]"
            }
          ],
          "internalType": "struct Main.Farmer",
          "name": "",
          "type": "tuple"
        }
      ],
      "payable": false,
      "stateMutability": "view",
      "type": "function"
    },
    {
      "constant": true,
      "inputs": [],
      "name": "getFarmersArray",
      "outputs": [
        {
          "internalType": "address[]",
          "name": "",
          "type": "address[]"
        }
      ],
      "payable": false,
      "stateMutability": "view",
      "type": "function"
    },
    {
      "constant": false,
      "inputs": [
        {
          "internalType": "address",
          "name": "id",
          "type": "address"
        }
      ],
      "name": "updateManufacturerRenewable",
      "outputs": [],
      "payable": false,
      "stateMutability": "nonpayable",
      "type": "function"
    },
    {
      "constant": false,
      "inputs": [
        {
          "internalType": "string[]",
          "name": "rawProducts",
          "type": "string[]"
        },
        {
          "internalType": "address[]",
          "name": "farmerAddresses",
          "type": "address[]"
        }
      ],
      "name": "updateManufacturerRawProducts",
      "outputs": [],
      "payable": false,
      "stateMutability": "nonpayable",
      "type": "function"
    },
    {
      "constant": true,
      "inputs": [
        {
          "internalType": "address",
          "name": "id",
          "type": "address"
        }
      ],
      "name": "findManufacturer",
      "outputs": [
        {
          "internalType": "string",
          "name": "",
          "type": "string"
        },
        {
          "internalType": "bool",
          "name": "",
          "type": "bool"
        },
        {
          "internalType": "address",
          "name": "",
          "type": "address"
        }
      ],
      "payable": false,
      "stateMutability": "view",
      "type": "function"
    },
    {
      "constant": true,
      "inputs": [],
      "name": "getManufacturersArray",
      "outputs": [
        {
          "internalType": "address[]",
          "name": "",
          "type": "address[]"
        }
      ],
      "payable": false,
      "stateMutability": "view",
      "type": "function"
    },
    {
      "constant": false,
      "inputs": [
        {
          "internalType": "string",
          "name": "name",
          "type": "string"
        },
        {
          "internalType": "string",
          "name": "role",
          "type": "string"
        }
      ],
      "name": "registerStakeHolder",
      "outputs": [],
      "payable": false,
      "stateMutability": "nonpayable",
      "type": "function"
    },
    {
      "constant": true,
      "inputs": [
        {
          "internalType": "address",
          "name": "id",
          "type": "address"
        }
      ],
      "name": "findStakeholder",
      "outputs": [
        {
          "components": [
            {
              "internalType": "address",
              "name": "id",
              "type": "address"
            },
            {
              "internalType": "string",
              "name": "name",
              "type": "string"
            },
            {
              "internalType": "string",
              "name": "role",
              "type": "string"
            },
            {
              "internalType": "bool",
              "name": "isValue",
              "type": "bool"
            }
          ],
          "internalType": "struct Main.Stakeholder",
          "name": "",
          "type": "tuple"
        }
      ],
      "payable": false,
      "stateMutability": "view",
      "type": "function"
    },
    {
      "constant": false,
      "inputs": [
        {
          "internalType": "string",
          "name": "name",
          "type": "string"
        },
        {
          "internalType": "string[]",
          "name": "rawProducts",
          "type": "string[]"
        },
        {
          "internalType": "string",
          "name": "serialNo",
          "type": "string"
        }
      ],
      "name": "launchProduct",
      "outputs": [],
      "payable": false,
      "stateMutability": "nonpayable",
      "type": "function"
    },
    {
      "constant": false,
      "inputs": [
        {
          "internalType": "address",
          "name": "newOwner",
          "type": "address"
        },
        {
          "internalType": "string",
          "name": "serialNo",
          "type": "string"
        }
      ],
      "name": "transferOwnership",
      "outputs": [],
      "payable": false,
      "stateMutability": "nonpayable",
      "type": "function"
    },
    {
      "constant": true,
      "inputs": [
        {
          "internalType": "string",
          "name": "serialNo",
          "type": "string"
        }
      ],
      "name": "verifyProduct",
      "outputs": [
        {
          "components": [
            {
              "internalType": "string",
              "name": "name",
              "type": "string"
            },
            {
              "internalType": "address",
              "name": "ownership",
              "type": "address"
            },
            {
              "internalType": "address",
              "name": "manufacturer",
              "type": "address"
            },
            {
              "internalType": "string[]",
              "name": "rawProducts",
              "type": "string[]"
            },
            {
              "internalType": "bool[]",
              "name": "rawProductsVerification",
              "type": "bool[]"
            },
            {
              "internalType": "string",
              "name": "serialNo",
              "type": "string"
            }
          ],
          "internalType": "struct Main.Product",
          "name": "",
          "type": "tuple"
        },
        {
          "internalType": "string",
          "name": "",
          "type": "string"
        },
        {
          "internalType": "bool",
          "name": "",
          "type": "bool"
        },
        {
          "components": [
            {
              "internalType": "address",
              "name": "id",
              "type": "address"
            },
            {
              "internalType": "string",
              "name": "name",
              "type": "string"
            },
            {
              "internalType": "string",
              "name": "role",
              "type": "string"
            },
            {
              "internalType": "bool",
              "name": "isValue",
              "type": "bool"
            }
          ],
          "internalType": "struct Main.Stakeholder",
          "name": "",
          "type": "tuple"
        }
      ],
      "payable": false,
      "stateMutability": "view",
      "type": "function"
    }
  ],
  "bytecode": "0x608060405234801561001057600080fd5b5033600660006101000a81548173ffffffffffffffffffffffffffffffffffffffff021916908373ffffffffffffffffffffffffffffffffffffffff160217905550613b22806100616000396000f3fe608060405234801561001057600080fd5b50600436106101375760003560e01c806392efc453116100b8578063c07cfca91161007c578063c07cfca9146103a4578063e5625543146103d7578063e95cccb1146103f3578063edf5a5be14610423578063ef34c5c51461043f578063f851a4401461045d57610137565b806392efc453146102ed57806395fa56fd1461032057806399499ca21461033c578063a0158da314610358578063b465b0a01461038857610137565b8063401b2168116100ff578063401b21681461020957806351f0322c1461023d5780636b5eb09c1461025b57806374e4f0811461028d5780638b0cce63146102bd57610137565b80630186a4231461013c57806304b5dc7c1461016f578063235db9f51461019f57806324e54bd4146101bb57806330dd2afa146101ed575b600080fd5b61015660048036036101519190810190612db2565b61047b565b6040516101669493929190613710565b60405180910390f35b61018960048036036101849190810190612cc9565b610631565b60405161019691906137a3565b60405180910390f35b6101b960048036036101b49190810190612cc9565b610942565b005b6101d560048036036101d09190810190612cc9565b610a31565b6040516101e4939291906136d2565b60405180910390f35b61020760048036036102029190810190612f37565b610b72565b005b610223600480360361021e9190810190612cc9565b610d45565b60405161023495949392919061362d565b60405180910390f35b610245610ee5565b604051610252919061368e565b60405180910390f35b61027560048036036102709190810190612cc9565b610f73565b6040516102849392919061359c565b60405180910390f35b6102a760048036036102a29190810190612fce565b611062565b6040516102b49190613566565b60405180910390f35b6102d760048036036102d29190810190612fce565b61109e565b6040516102e49190613566565b60405180910390f35b61030760048036036103029190810190612df3565b6110da565b60405161031794939291906137c5565b60405180910390f35b61033a60048036036103359190810190612ecb565b611810565b005b61035660048036036103519190810190612d46565b611ae4565b005b610372600480360361036d9190810190612cc9565b611bc8565b60405161037f919061381f565b60405180910390f35b6103a2600480360361039d9190810190612e34565b611dd6565b005b6103be60048036036103b99190810190612cc9565b6120a8565b6040516103ce94939291906135da565b60405180910390f35b6103f160048036036103ec9190810190612cc9565b612235565b005b61040d60048036036104089190810190612cc9565b612324565b60405161041a91906136b0565b60405180910390f35b61043d60048036036104389190810190612cf2565b6125bf565b005b6104476126d2565b604051610454919061368e565b60405180910390f35b610465612760565b6040516104729190613581565b60405180910390f35b600281805160208101820180518482526020830160208501208183528095505050505050600091509050806000018054600181600116156101000203166002900480601f01602080910402602001604051908101604052809291908181526020018280546001816001161561010002031660029004801561053d5780601f106105125761010080835404028352916020019161053d565b820191906000526020600020905b81548152906001019060200180831161052057829003601f168201915b5050505050908060010160009054906101000a900473ffffffffffffffffffffffffffffffffffffffff16908060020160009054906101000a900473ffffffffffffffffffffffffffffffffffffffff1690806005018054600181600116156101000203166002900480601f0160208091040260200160405190810160405280929190818152602001828054600181600116156101000203166002900480156106275780601f106105fc57610100808354040283529160200191610627565b820191906000526020600020905b81548152906001019060200180831161060a57829003601f168201915b5050505050905084565b610639612786565b6000808373ffffffffffffffffffffffffffffffffffffffff1673ffffffffffffffffffffffffffffffffffffffff1681526020019081526020016000206040518060c00160405290816000820160009054906101000a900473ffffffffffffffffffffffffffffffffffffffff1673ffffffffffffffffffffffffffffffffffffffff1673ffffffffffffffffffffffffffffffffffffffff168152602001600182018054600181600116156101000203166002900480601f0160208091040260200160405190810160405280929190818152602001828054600181600116156101000203166002900480156107715780601f1061074657610100808354040283529160200191610771565b820191906000526020600020905b81548152906001019060200180831161075457829003601f168201915b50505050508152602001600282018054600181600116156101000203166002900480601f0160208091040260200160405190810160405280929190818152602001828054600181600116156101000203166002900480156108135780601f106107e857610100808354040283529160200191610813565b820191906000526020600020905b8154815290600101906020018083116107f657829003601f168201915b505050505081526020016003820160009054906101000a900460ff161515151581526020016003820160019054906101000a900460ff1615151515815260200160048201805480602002602001604051908101604052809291908181526020016000905b82821015610933578382906000526020600020018054600181600116156101000203166002900480601f01602080910402602001604051908101604052809291908181526020018280546001816001161561010002031660029004801561091f5780601f106108f45761010080835404028352916020019161091f565b820191906000526020600020905b81548152906001019060200180831161090257829003601f168201915b505050505081526020019060010190610877565b50505050815250509050919050565b33600660009054906101000a900473ffffffffffffffffffffffffffffffffffffffff1673ffffffffffffffffffffffffffffffffffffffff168173ffffffffffffffffffffffffffffffffffffffff16146109d3576040517f08c379a00000000000000000000000000000000000000000000000000000000081526004016109ca90613763565b60405180910390fd5b60016000808473ffffffffffffffffffffffffffffffffffffffff1673ffffffffffffffffffffffffffffffffffffffff16815260200190815260200160002060030160006101000a81548160ff0219169083151502179055505050565b6060600080600160008573ffffffffffffffffffffffffffffffffffffffff1673ffffffffffffffffffffffffffffffffffffffff168152602001908152602001600020600101600160008673ffffffffffffffffffffffffffffffffffffffff1673ffffffffffffffffffffffffffffffffffffffff16815260200190815260200160002060030160009054906101000a900460ff1685828054600181600116156101000203166002900480601f016020809104026020016040519081016040528092919081815260200182805460018160011615610100020316600290048015610b5e5780601f10610b3357610100808354040283529160200191610b5e565b820191906000526020600020905b815481529060010190602001808311610b4157829003601f168201915b505050505092509250925092509193909250565b6040518060c001604052803373ffffffffffffffffffffffffffffffffffffffff168152602001848152602001838152602001600015158152602001600115158152602001828152506000803373ffffffffffffffffffffffffffffffffffffffff1673ffffffffffffffffffffffffffffffffffffffff16815260200190815260200160002060008201518160000160006101000a81548173ffffffffffffffffffffffffffffffffffffffff021916908373ffffffffffffffffffffffffffffffffffffffff1602179055506020820151816001019080519060200190610c5c9291906127d6565b506040820151816002019080519060200190610c799291906127d6565b5060608201518160030160006101000a81548160ff02191690831515021790555060808201518160030160016101000a81548160ff02191690831515021790555060a0820151816004019080519060200190610cd6929190612856565b5090505060043390806001815401808255809150509060018203906000526020600020016000909192909190916101000a81548173ffffffffffffffffffffffffffffffffffffffff021916908373ffffffffffffffffffffffffffffffffffffffff16021790555050505050565b60006020528060005260406000206000915090508060000160009054906101000a900473ffffffffffffffffffffffffffffffffffffffff1690806001018054600181600116156101000203166002900480601f016020809104026020016040519081016040528092919081815260200182805460018160011615610100020316600290048015610e175780601f10610dec57610100808354040283529160200191610e17565b820191906000526020600020905b815481529060010190602001808311610dfa57829003601f168201915b505050505090806002018054600181600116156101000203166002900480601f016020809104026020016040519081016040528092919081815260200182805460018160011615610100020316600290048015610eb55780601f10610e8a57610100808354040283529160200191610eb5565b820191906000526020600020905b815481529060010190602001808311610e9857829003601f168201915b5050505050908060030160009054906101000a900460ff16908060030160019054906101000a900460ff16905085565b60606004805480602002602001604051908101604052809291908181526020018280548015610f6957602002820191906000526020600020905b8160009054906101000a900473ffffffffffffffffffffffffffffffffffffffff1673ffffffffffffffffffffffffffffffffffffffff1681526020019060010190808311610f1f575b5050505050905090565b60016020528060005260406000206000915090508060000160009054906101000a900473ffffffffffffffffffffffffffffffffffffffff1690806001018054600181600116156101000203166002900480601f0160208091040260200160405190810160405280929190818152602001828054600181600116156101000203166002900480156110455780601f1061101a57610100808354040283529160200191611045565b820191906000526020600020905b81548152906001019060200180831161102857829003601f168201915b5050505050908060030160009054906101000a900460ff16905083565b6005818154811061106f57fe5b906000526020600020016000915054906101000a900473ffffffffffffffffffffffffffffffffffffffff1681565b600481815481106110ab57fe5b906000526020600020016000915054906101000a900473ffffffffffffffffffffffffffffffffffffffff1681565b6110e26128b6565b606060006110ee612918565b6110f66128b6565b600286604051611106919061353a565b90815260200160405180910390206040518060c0016040529081600082018054600181600116156101000203166002900480601f0160208091040260200160405190810160405280929190818152602001828054600181600116156101000203166002900480156111b85780601f1061118d576101008083540402835291602001916111b8565b820191906000526020600020905b81548152906001019060200180831161119b57829003601f168201915b505050505081526020016001820160009054906101000a900473ffffffffffffffffffffffffffffffffffffffff1673ffffffffffffffffffffffffffffffffffffffff1673ffffffffffffffffffffffffffffffffffffffff1681526020016002820160009054906101000a900473ffffffffffffffffffffffffffffffffffffffff1673ffffffffffffffffffffffffffffffffffffffff1673ffffffffffffffffffffffffffffffffffffffff16815260200160038201805480602002602001604051908101604052809291908181526020016000905b8282101561134e578382906000526020600020018054600181600116156101000203166002900480601f01602080910402602001604051908101604052809291908181526020018280546001816001161561010002031660029004801561133a5780601f1061130f5761010080835404028352916020019161133a565b820191906000526020600020905b81548152906001019060200180831161131d57829003601f168201915b505050505081526020019060010190611292565b505050508152602001600482018054806020026020016040519081016040528092919081815260200182805480156113ca57602002820191906000526020600020906000905b82829054906101000a900460ff161515815260200190600101906020826000010492830192600103820291508084116113945790505b50505050508152602001600582018054600181600116156101000203166002900480601f01602080910402602001604051908101604052809291908181526020018280546001816001161561010002031660029004801561146c5780601f106114415761010080835404028352916020019161146c565b820191906000526020600020905b81548152906001019060200180831161144f57829003601f168201915b505050505081525050905061147f612958565b60016000836040015173ffffffffffffffffffffffffffffffffffffffff1673ffffffffffffffffffffffffffffffffffffffff1681526020019081526020016000206040518060600160405290816000820160009054906101000a900473ffffffffffffffffffffffffffffffffffffffff1673ffffffffffffffffffffffffffffffffffffffff1673ffffffffffffffffffffffffffffffffffffffff168152602001600182018054600181600116156101000203166002900480601f0160208091040260200160405190810160405280929190818152602001828054600181600116156101000203166002900480156115bc5780601f10611591576101008083540402835291602001916115bc565b820191906000526020600020905b81548152906001019060200180831161159f57829003601f168201915b505050505081526020016003820160009054906101000a900460ff16151515158152505090506115ea612918565b60036000846020015173ffffffffffffffffffffffffffffffffffffffff1673ffffffffffffffffffffffffffffffffffffffff1681526020019081526020016000206040518060800160405290816000820160009054906101000a900473ffffffffffffffffffffffffffffffffffffffff1673ffffffffffffffffffffffffffffffffffffffff1673ffffffffffffffffffffffffffffffffffffffff168152602001600182018054600181600116156101000203166002900480601f0160208091040260200160405190810160405280929190818152602001828054600181600116156101000203166002900480156117275780601f106116fc57610100808354040283529160200191611727565b820191906000526020600020905b81548152906001019060200180831161170a57829003601f168201915b50505050508152602001600282018054600181600116156101000203166002900480601f0160208091040260200160405190810160405280929190818152602001828054600181600116156101000203166002900480156117c95780601f1061179e576101008083540402835291602001916117c9565b820191906000526020600020905b8154815290600101906020018083116117ac57829003601f168201915b505050505081526020016003820160009054906101000a900460ff161515151581525050905082826020015183604001518382925096509650965096505050509193509193565b60405180608001604052803373ffffffffffffffffffffffffffffffffffffffff16815260200183815260200182815260200160011515815250600360003373ffffffffffffffffffffffffffffffffffffffff1673ffffffffffffffffffffffffffffffffffffffff16815260200190815260200160002060008201518160000160006101000a81548173ffffffffffffffffffffffffffffffffffffffff021916908373ffffffffffffffffffffffffffffffffffffffff16021790555060208201518160010190805190602001906118ec9291906127d6565b5060408201518160020190805190602001906119099291906127d6565b5060608201518160030160006101000a81548160ff02191690831515021790555090505060405160200161193c90613551565b6040516020818303038152906040528051906020012081604051602001611963919061353a565b604051602081830303815290604052805190602001201415611ae05760405180606001604052803373ffffffffffffffffffffffffffffffffffffffff16815260200183815260200160001515815250600160003373ffffffffffffffffffffffffffffffffffffffff1673ffffffffffffffffffffffffffffffffffffffff16815260200190815260200160002060008201518160000160006101000a81548173ffffffffffffffffffffffffffffffffffffffff021916908373ffffffffffffffffffffffffffffffffffffffff1602179055506020820151816001019080519060200190611a559291906127d6565b5060408201518160030160006101000a81548160ff02191690831515021790555090505060053390806001815401808255809150509060018203906000526020600020016000909192909190916101000a81548173ffffffffffffffffffffffffffffffffffffffff021916908373ffffffffffffffffffffffffffffffffffffffff160217905550505b5050565b60008090505b8251811015611bc357818181518110611aff57fe5b6020026020010151600160003373ffffffffffffffffffffffffffffffffffffffff1673ffffffffffffffffffffffffffffffffffffffff168152602001908152602001600020600201848381518110611b5557fe5b6020026020010151604051611b6a9190613523565b908152602001604051809103902060006101000a81548173ffffffffffffffffffffffffffffffffffffffff021916908373ffffffffffffffffffffffffffffffffffffffff1602179055508080600101915050611aea565b505050565b611bd0612918565b600360008373ffffffffffffffffffffffffffffffffffffffff1673ffffffffffffffffffffffffffffffffffffffff1681526020019081526020016000206040518060800160405290816000820160009054906101000a900473ffffffffffffffffffffffffffffffffffffffff1673ffffffffffffffffffffffffffffffffffffffff1673ffffffffffffffffffffffffffffffffffffffff168152602001600182018054600181600116156101000203166002900480601f016020809104026020016040519081016040528092919081815260200182805460018160011615610100020316600290048015611d095780601f10611cde57610100808354040283529160200191611d09565b820191906000526020600020905b815481529060010190602001808311611cec57829003601f168201915b50505050508152602001600282018054600181600116156101000203166002900480601f016020809104026020016040519081016040528092919081815260200182805460018160011615610100020316600290048015611dab5780601f10611d8057610100808354040283529160200191611dab565b820191906000526020600020905b815481529060010190602001808311611d8e57829003601f168201915b505050505081526020016003820160009054906101000a900460ff1615151515815250509050919050565b60608251604051908082528060200260200182016040528015611e085781602001602082028038833980820191505090505b50905060008090505b8351811015611f2557600080600160003373ffffffffffffffffffffffffffffffffffffffff1673ffffffffffffffffffffffffffffffffffffffff168152602001908152602001600020600201868481518110611e6b57fe5b6020026020010151604051611e809190613523565b908152602001604051809103902060009054906101000a900473ffffffffffffffffffffffffffffffffffffffff1673ffffffffffffffffffffffffffffffffffffffff1673ffffffffffffffffffffffffffffffffffffffff16815260200190815260200160002060030160009054906101000a900460ff16828281518110611f0657fe5b6020026020010190151590811515815250508080600101915050611e11565b506040518060c001604052808581526020013373ffffffffffffffffffffffffffffffffffffffff1681526020013373ffffffffffffffffffffffffffffffffffffffff16815260200184815260200182815260200183815250600283604051611f8f919061353a565b90815260200160405180910390206000820151816000019080519060200190611fb99291906127d6565b5060208201518160010160006101000a81548173ffffffffffffffffffffffffffffffffffffffff021916908373ffffffffffffffffffffffffffffffffffffffff16021790555060408201518160020160006101000a81548173ffffffffffffffffffffffffffffffffffffffff021916908373ffffffffffffffffffffffffffffffffffffffff1602179055506060820151816003019080519060200190612064929190612856565b506080820151816004019080519060200190612081929190612991565b5060a082015181600501908051906020019061209e9291906127d6565b5090505050505050565b60036020528060005260406000206000915090508060000160009054906101000a900473ffffffffffffffffffffffffffffffffffffffff1690806001018054600181600116156101000203166002900480601f01602080910402602001604051908101604052809291908181526020018280546001816001161561010002031660029004801561217a5780601f1061214f5761010080835404028352916020019161217a565b820191906000526020600020905b81548152906001019060200180831161215d57829003601f168201915b505050505090806002018054600181600116156101000203166002900480601f0160208091040260200160405190810160405280929190818152602001828054600181600116156101000203166002900480156122185780601f106121ed57610100808354040283529160200191612218565b820191906000526020600020905b8154815290600101906020018083116121fb57829003601f168201915b5050505050908060030160009054906101000a900460ff16905084565b33600660009054906101000a900473ffffffffffffffffffffffffffffffffffffffff1673ffffffffffffffffffffffffffffffffffffffff168173ffffffffffffffffffffffffffffffffffffffff16146122c6576040517f08c379a00000000000000000000000000000000000000000000000000000000081526004016122bd90613763565b60405180910390fd5b60018060008473ffffffffffffffffffffffffffffffffffffffff1673ffffffffffffffffffffffffffffffffffffffff16815260200190815260200160002060030160006101000a81548160ff0219169083151502179055505050565b6060600660009054906101000a900473ffffffffffffffffffffffffffffffffffffffff1673ffffffffffffffffffffffffffffffffffffffff168273ffffffffffffffffffffffffffffffffffffffff1614156123b9576040518060400160405280600581526020017f41646d696e00000000000000000000000000000000000000000000000000000081525090506125ba565b6000808373ffffffffffffffffffffffffffffffffffffffff1673ffffffffffffffffffffffffffffffffffffffff16815260200190815260200160002060030160019054906101000a900460ff161561244a576040518060400160405280600681526020017f4661726d6572000000000000000000000000000000000000000000000000000081525090506125ba565b600360008373ffffffffffffffffffffffffffffffffffffffff1673ffffffffffffffffffffffffffffffffffffffff16815260200190815260200160002060030160009054906101000a900460ff161561258157600360008373ffffffffffffffffffffffffffffffffffffffff1673ffffffffffffffffffffffffffffffffffffffff1681526020019081526020016000206002018054600181600116156101000203166002900480601f0160208091040260200160405190810160405280929190818152602001828054600181600116156101000203166002900480156125755780601f1061254a57610100808354040283529160200191612575565b820191906000526020600020905b81548152906001019060200180831161255857829003601f168201915b505050505090506125ba565b6040518060400160405280600a81526020017f4e6577416464726573730000000000000000000000000000000000000000000081525090505b919050565b3373ffffffffffffffffffffffffffffffffffffffff166002826040516125e6919061353a565b908152602001604051809103902060010160009054906101000a900473ffffffffffffffffffffffffffffffffffffffff1673ffffffffffffffffffffffffffffffffffffffff161461266e576040517f08c379a000000000000000000000000000000000000000000000000000000000815260040161266590613783565b60405180910390fd5b8160028260405161267f919061353a565b908152602001604051809103902060010160006101000a81548173ffffffffffffffffffffffffffffffffffffffff021916908373ffffffffffffffffffffffffffffffffffffffff1602179055505050565b6060600580548060200260200160405190810160405280929190818152602001828054801561275657602002820191906000526020600020905b8160009054906101000a900473ffffffffffffffffffffffffffffffffffffffff1673ffffffffffffffffffffffffffffffffffffffff168152602001906001019080831161270c575b5050505050905090565b600660009054906101000a900473ffffffffffffffffffffffffffffffffffffffff1681565b6040518060c00160405280600073ffffffffffffffffffffffffffffffffffffffff1681526020016060815260200160608152602001600015158152602001600015158152602001606081525090565b828054600181600116156101000203166002900490600052602060002090601f016020900481019282601f1061281757805160ff1916838001178555612845565b82800160010185558215612845579182015b82811115612844578251825591602001919060010190612829565b5b5090506128529190612a37565b5090565b8280548282559060005260206000209081019282156128a5579160200282015b828111156128a45782518290805190602001906128949291906127d6565b5091602001919060010190612876565b5b5090506128b29190612a5c565b5090565b6040518060c0016040528060608152602001600073ffffffffffffffffffffffffffffffffffffffff168152602001600073ffffffffffffffffffffffffffffffffffffffff1681526020016060815260200160608152602001606081525090565b6040518060800160405280600073ffffffffffffffffffffffffffffffffffffffff16815260200160608152602001606081526020016000151581525090565b6040518060600160405280600073ffffffffffffffffffffffffffffffffffffffff168152602001606081526020016000151581525090565b82805482825590600052602060002090601f01602090048101928215612a265791602002820160005b838211156129f757835183826101000a81548160ff02191690831515021790555092602001926001016020816000010492830192600103026129ba565b8015612a245782816101000a81549060ff02191690556001016020816000010492830192600103026129f7565b505b509050612a339190612a88565b5090565b612a5991905b80821115612a55576000816000905550600101612a3d565b5090565b90565b612a8591905b80821115612a815760008181612a789190612ab8565b50600101612a62565b5090565b90565b612ab591905b80821115612ab157600081816101000a81549060ff021916905550600101612a8e565b5090565b90565b50805460018160011615610100020316600290046000825580601f10612ade5750612afd565b601f016020900490600052602060002090810190612afc9190612a37565b5b50565b600081359050612b0f81613ab1565b92915050565b600082601f830112612b2657600080fd5b8135612b39612b348261386e565b613841565b91508181835260208401935060208101905083856020840282011115612b5e57600080fd5b60005b83811015612b8e5781612b748882612b00565b845260208401935060208301925050600181019050612b61565b5050505092915050565b600082601f830112612ba957600080fd5b8135612bbc612bb782613896565b613841565b9150818183526020840193506020810190508360005b83811015612c025781358601612be88882612c0c565b845260208401935060208301925050600181019050612bd2565b5050505092915050565b600082601f830112612c1d57600080fd5b8135612c30612c2b826138be565b613841565b91508082526020830160208301858383011115612c4c57600080fd5b612c57838284613a5e565b50505092915050565b600082601f830112612c7157600080fd5b8135612c84612c7f826138ea565b613841565b91508082526020830160208301858383011115612ca057600080fd5b612cab838284613a5e565b50505092915050565b600081359050612cc381613ac8565b92915050565b600060208284031215612cdb57600080fd5b6000612ce984828501612b00565b91505092915050565b60008060408385031215612d0557600080fd5b6000612d1385828601612b00565b925050602083013567ffffffffffffffff811115612d3057600080fd5b612d3c85828601612c60565b9150509250929050565b60008060408385031215612d5957600080fd5b600083013567ffffffffffffffff811115612d7357600080fd5b612d7f85828601612b98565b925050602083013567ffffffffffffffff811115612d9c57600080fd5b612da885828601612b15565b9150509250929050565b600060208284031215612dc457600080fd5b600082013567ffffffffffffffff811115612dde57600080fd5b612dea84828501612c0c565b91505092915050565b600060208284031215612e0557600080fd5b600082013567ffffffffffffffff811115612e1f57600080fd5b612e2b84828501612c60565b91505092915050565b600080600060608486031215612e4957600080fd5b600084013567ffffffffffffffff811115612e6357600080fd5b612e6f86828701612c60565b935050602084013567ffffffffffffffff811115612e8c57600080fd5b612e9886828701612b98565b925050604084013567ffffffffffffffff811115612eb557600080fd5b612ec186828701612c60565b9150509250925092565b60008060408385031215612ede57600080fd5b600083013567ffffffffffffffff811115612ef857600080fd5b612f0485828601612c60565b925050602083013567ffffffffffffffff811115612f2157600080fd5b612f2d85828601612c60565b9150509250929050565b600080600060608486031215612f4c57600080fd5b600084013567ffffffffffffffff811115612f6657600080fd5b612f7286828701612c60565b935050602084013567ffffffffffffffff811115612f8f57600080fd5b612f9b86828701612c60565b925050604084013567ffffffffffffffff811115612fb857600080fd5b612fc486828701612b98565b9150509250925092565b600060208284031215612fe057600080fd5b6000612fee84828501612cb4565b91505092915050565b6000613003838361304a565b60208301905092915050565b600061301b8383613199565b60208301905092915050565b60006130338383613221565b905092915050565b61304481613a16565b82525050565b61305381613a04565b82525050565b61306281613a04565b82525050565b600061307382613946565b61307d81856139a4565b935061308883613916565b8060005b838110156130b95781516130a08882612ff7565b97506130ab8361397d565b92505060018101905061308c565b5085935050505092915050565b60006130d182613951565b6130db81856139b5565b93506130e683613926565b8060005b838110156131175781516130fe888261300f565b97506131098361398a565b9250506001810190506130ea565b5085935050505092915050565b600061312f8261395c565b61313981856139c6565b93508360208202850161314b85613936565b8060005b8581101561318757848403895281516131688582613027565b945061317383613997565b925060208a0199505060018101905061314f565b50829750879550505050505092915050565b6131a281613a28565b82525050565b6131b181613a28565b82525050565b60006131c282613972565b6131cc81856139e8565b93506131dc818560208601613a6d565b6131e581613aa0565b840191505092915050565b60006131fb82613972565b61320581856139f9565b9350613215818560208601613a6d565b80840191505092915050565b600061322c82613967565b61323681856139d7565b9350613246818560208601613a6d565b61324f81613aa0565b840191505092915050565b600061326582613967565b61326f81856139e8565b935061327f818560208601613a6d565b61328881613aa0565b840191505092915050565b600061329e82613967565b6132a881856139f9565b93506132b8818560208601613a6d565b80840191505092915050565b60006132d1600c836139e8565b91507f556e617574686f72697a656400000000000000000000000000000000000000006000830152602082019050919050565b60006133116011836139e8565b91507f496e76616c6964204f776e6572736869700000000000000000000000000000006000830152602082019050919050565b6000613351600c836139f9565b91507f4d616e75666163747572657200000000000000000000000000000000000000006000830152600c82019050919050565b600060c08301600083015161339c600086018261304a565b50602083015184820360208601526133b48282613221565b915050604083015184820360408601526133ce8282613221565b91505060608301516133e36060860182613199565b5060808301516133f66080860182613199565b5060a083015184820360a086015261340e8282613124565b9150508091505092915050565b600060c08301600083015184820360008601526134388282613221565b915050602083015161344d602086018261304a565b506040830151613460604086018261304a565b50606083015184820360608601526134788282613124565b9150506080830151848203608086015261349282826130c6565b91505060a083015184820360a08601526134ac8282613221565b9150508091505092915050565b60006080830160008301516134d1600086018261304a565b50602083015184820360208601526134e98282613221565b915050604083015184820360408601526135038282613221565b91505060608301516135186060860182613199565b508091505092915050565b600061352f8284613293565b915081905092915050565b600061354682846131f0565b915081905092915050565b600061355c82613344565b9150819050919050565b600060208201905061357b6000830184613059565b92915050565b6000602082019050613596600083018461303b565b92915050565b60006060820190506135b16000830186613059565b81810360208301526135c3818561325a565b90506135d260408301846131a8565b949350505050565b60006080820190506135ef6000830187613059565b8181036020830152613601818661325a565b90508181036040830152613615818561325a565b905061362460608301846131a8565b95945050505050565b600060a0820190506136426000830188613059565b8181036020830152613654818761325a565b90508181036040830152613668818661325a565b905061367760608301856131a8565b61368460808301846131a8565b9695505050505050565b600060208201905081810360008301526136a88184613068565b905092915050565b600060208201905081810360008301526136ca81846131b7565b905092915050565b600060608201905081810360008301526136ec81866131b7565b90506136fb60208301856131a8565b6137086040830184613059565b949350505050565b6000608082019050818103600083015261372a818761325a565b90506137396020830186613059565b6137466040830185613059565b8181036060830152613758818461325a565b905095945050505050565b6000602082019050818103600083015261377c816132c4565b9050919050565b6000602082019050818103600083015261379c81613304565b9050919050565b600060208201905081810360008301526137bd8184613384565b905092915050565b600060808201905081810360008301526137df818761341b565b905081810360208301526137f381866131b7565b905061380260408301856131a8565b818103606083015261381481846134b9565b905095945050505050565b6000602082019050818103600083015261383981846134b9565b905092915050565b6000604051905081810181811067ffffffffffffffff8211171561386457600080fd5b8060405250919050565b600067ffffffffffffffff82111561388557600080fd5b602082029050602081019050919050565b600067ffffffffffffffff8211156138ad57600080fd5b602082029050602081019050919050565b600067ffffffffffffffff8211156138d557600080fd5b601f19601f8301169050602081019050919050565b600067ffffffffffffffff82111561390157600080fd5b601f19601f8301169050602081019050919050565b6000819050602082019050919050565b6000819050602082019050919050565b6000819050602082019050919050565b600081519050919050565b600081519050919050565b600081519050919050565b600081519050919050565b600081519050919050565b6000602082019050919050565b6000602082019050919050565b6000602082019050919050565b600082825260208201905092915050565b600082825260208201905092915050565b600082825260208201905092915050565b600082825260208201905092915050565b600082825260208201905092915050565b600081905092915050565b6000613a0f82613a34565b9050919050565b6000613a2182613a34565b9050919050565b60008115159050919050565b600073ffffffffffffffffffffffffffffffffffffffff82169050919050565b6000819050919050565b82818337600083830152505050565b60005b83811015613a8b578082015181840152602081019050613a70565b83811115613a9a576000848401525b50505050565b6000601f19601f8301169050919050565b613aba81613a04565b8114613ac557600080fd5b50565b613ad181613a54565b8114613adc57600080fd5b5056fea365627a7a72315820cd38badc2144d296b6af4661f30c8cdc1d5163ac3ca59deb4e3001d9f7d5abbc6c6578706572696d656e74616cf564736f6c63430005100040",
  "source": "pragma solidity ^0.5.0;\r\npragma experimental ABIEncoderV2;\r\ncontract Main{\r\n    struct Farmer{\r\n        address id;\r\n        string name;\r\n        string region;\r\n        bool isVerified;\r\n        bool isValue; //to verify value exists in mapping or not\r\n        string [] rawProducts;        \r\n    }\r\n    struct Manufacturer{\r\n        address id;\r\n        string name;\r\n        mapping(string => address) rawProducts;\r\n        bool isRenewableUsed;\r\n    }\r\n\r\n    struct Product{\r\n        string name;\r\n        address ownership;\r\n        address manufacturer;\r\n        string[] rawProducts;\r\n        bool[] rawProductsVerification;\r\n        string serialNo;\r\n    }\r\n\r\n    // enum Role {Distributer, Retailer, Consumer, Manufacturer}\r\n\r\n    struct Stakeholder{\r\n        address id;\r\n        string name;\r\n        string role;\r\n        bool isValue; //to verify value exists in mapping or not\r\n    }\r\n\r\n    mapping(address => Farmer) public farmers;\r\n    mapping(address => Manufacturer) public manufacturers;\r\n    mapping(string => Product) public products;\r\n    mapping(address => Stakeholder) public stakeholders;\r\n    \r\n    address [] public farmersArray;\r\n    address [] public manufacturersArray;\r\n\r\n    address payable public admin;\r\n    constructor() public {\r\n        admin = msg.sender;        \r\n    }\r\n\r\n    // Modifier to ensure only the admin access a function\r\n    modifier verifyAdmin( address id) {\r\n        require(id == admin, \"Unauthorized\");\r\n        _;\r\n    }\r\n\r\n    /**\r\n     * Function to get the role of the passed address\r\n     */\r\n    function checkIdentity(address id) public view returns(string memory) {\r\n        if(id == admin) return \"Admin\";\r\n        else if(farmers[id].isValue) return \"Farmer\";\r\n        else if(stakeholders[id].isValue) return stakeholders[id].role;\r\n        else return \"NewAddress\";\r\n    }\r\n\r\n    /**\r\n     * Function to add a new farmer on the application\r\n     */\r\n    function registerFarmer(\r\n        string memory name,\r\n        string memory region,\r\n        string[] memory rawProducts\r\n    ) public {\r\n        farmers[msg.sender] = Farmer(msg.sender,name,region,false,true,rawProducts);\r\n        farmersArray.push(msg.sender);\r\n    }\r\n    /**\r\n     * Function to verify a farmer\r\n     */\r\n    function verifyFarmer(address id) public verifyAdmin(msg.sender) {\r\n        farmers[id].isVerified = true;\r\n    }\r\n    /**\r\n     * function to find a farmer by address\r\n     */\r\n    function findFarmer(address id) public view returns(Farmer memory){\r\n        return farmers[id];\r\n    }\r\n\r\n    /**\r\n     * function to return array of address of all farmers\r\n     */\r\n    function getFarmersArray() public view returns(address[] memory){\r\n        return farmersArray;\r\n    }\r\n\r\n    // /**\r\n    //  * Function to add a new manufacturer on the application\r\n    //  */\r\n    // function registerManufacturer(string memory name) public {\r\n    //     manufacturers[msg.sender] = Manufacturer({\r\n    //         id: msg.sender,\r\n    //         name: name,\r\n    //         isRenewableUsed: false\r\n    //     });\r\n    // }\r\n    /**\r\n     * Function to set the isRenewableUsed for a manufacturer\r\n     */\r\n    function updateManufacturerRenewable(address id) public verifyAdmin(msg.sender){\r\n        manufacturers[id].isRenewableUsed = true;\r\n    }\r\n    /**\r\n     * Function to add a rawproduct for a manufacturer\r\n     */\r\n    function updateManufacturerRawProducts(        \r\n        string[] memory rawProducts,\r\n        address[] memory farmerAddresses\r\n    ) public {\r\n        //manufacturers[msg.sender].rawProducts[rawProductName] = farmerAddress;\r\n        for(uint i = 0;i< rawProducts.length; i++){\r\n            manufacturers[msg.sender].rawProducts[rawProducts[i]] = farmerAddresses[i];\r\n        }\r\n    }\r\n    /**\r\n     * function to find a manufacturer by address\r\n     */\r\n    function findManufacturer(address id) public view returns(string memory, bool, address){\r\n        return(\r\n            manufacturers[id].name,\r\n            manufacturers[id].isRenewableUsed,\r\n            id\r\n        );\r\n    }\r\n\r\n    /**\r\n     * function to return array of address of all manufacturers\r\n     */\r\n    function getManufacturersArray() public view returns(address[] memory){\r\n        return manufacturersArray;\r\n    }\r\n\r\n    function registerStakeHolder(\r\n        string memory name,\r\n        string memory role\r\n    ) public {\r\n        stakeholders[msg.sender] = Stakeholder(msg.sender,name,role,true);\r\n        if(keccak256(abi.encodePacked(role)) == keccak256(abi.encodePacked(\"Manufacturer\"))){\r\n            manufacturers[msg.sender] = Manufacturer({\r\n                id: msg.sender,\r\n                name: name,\r\n                isRenewableUsed: false\r\n            });\r\n            manufacturersArray.push(msg.sender);\r\n        }\r\n    }\r\n\r\n    /**\r\n     * function to find a stackholder by address\r\n     */\r\n    function findStakeholder(address id) public view returns(Stakeholder memory){\r\n        return stakeholders[id];\r\n    }\r\n\r\n    function launchProduct(\r\n        string memory name,\r\n        string[] memory rawProducts,\r\n        string memory serialNo\r\n    ) public {\r\n        bool[] memory rawProductsVerification = new bool[](rawProducts.length);\r\n        for(uint i=0;i<rawProducts.length;i++){\r\n            rawProductsVerification[i] = farmers[manufacturers[msg.sender].rawProducts[rawProducts[i]]].isVerified;\r\n        }\r\n        products[serialNo] = Product(name,msg.sender,msg.sender,rawProducts,rawProductsVerification,serialNo);\r\n    }\r\n\r\n    function transferOwnership(\r\n        address newOwner,\r\n        string memory serialNo\r\n    ) public {\r\n        require(products[serialNo].ownership==msg.sender,\"Invalid Ownership\");\r\n        products[serialNo].ownership = newOwner;\r\n    }\r\n\r\n    function verifyProduct(\r\n        string memory serialNo\r\n    ) public view returns (Product memory, string memory, bool, Stakeholder memory){\r\n        Product memory product = products[serialNo];\r\n        Manufacturer memory manufacturerDetails = manufacturers[product.manufacturer];\r\n        // Stakeholder memory manufacturer = stakeholders[product.manufacturer];\r\n        Stakeholder memory currentOwner = stakeholders[product.ownership];\r\n        return(\r\n            product,            \r\n            manufacturerDetails.name,\r\n            manufacturerDetails.isRenewableUsed,\r\n            currentOwner\r\n        );\r\n    }\r\n\r\n}",
  "sourcePath": "D:\\Blockchain\\supply-chain\\src\\Contracts\\Main.sol",
  "compiler": {
    "name": "solc",
    "version": "0.5.16+commit.9c3226ce.Emscripten.clang"
  },
  "schemaVersion": "3.4.3",
  "updatedAt": "2021-12-02T20:10:06.248Z",
  "networkType": "ethereum",
  "devdoc": {
    "methods": {}
  },
  "userdoc": {
    "methods": {
      "checkIdentity(address)": {
        "notice": "Function to get the role of the passed address"
      },
      "findFarmer(address)": {
        "notice": "function to find a farmer by address"
      },
      "findManufacturer(address)": {
        "notice": "function to find a manufacturer by address"
      },
      "findStakeholder(address)": {
        "notice": "function to find a stackholder by address"
      },
      "getFarmersArray()": {
        "notice": "function to return array of address of all farmers"
      },
      "getManufacturersArray()": {
        "notice": "function to return array of address of all manufacturers"
      },
      "registerFarmer(string,string,string[])": {
        "notice": "Function to add a new farmer on the application"
      },
      "updateManufacturerRawProducts(string[],address[])": {
        "notice": "Function to add a rawproduct for a manufacturer"
      },
      "updateManufacturerRenewable(address)": {
        "notice": "Function to set the isRenewableUsed for a manufacturer"
      },
      "verifyFarmer(address)": {
        "notice": "Function to verify a farmer"
      }
    }
  }
}