{
  "contractName": "Manufacturer",
  "abi": [
    {
      "inputs": [],
      "payable": false,
      "stateMutability": "nonpayable",
      "type": "constructor"
    },
    {
      "constant": true,
      "inputs": [],
      "name": "getManufacturersList",
      "outputs": [
        {
          "internalType": "address[]",
          "name": "",
          "type": "address[]"
        }
      ],
      "payable": false,
      "stateMutability": "view",
      "type": "function"
    },
    {
      "constant": true,
      "inputs": [
        {
          "internalType": "address",
          "name": "id",
          "type": "address"
        }
      ],
      "name": "getManufacturer",
      "outputs": [
        {
          "components": [
            {
              "internalType": "address",
              "name": "id",
              "type": "address"
            },
            {
              "internalType": "string",
              "name": "name",
              "type": "string"
            },
            {
              "internalType": "string[]",
              "name": "rawProducts",
              "type": "string[]"
            },
            {
              "internalType": "bool",
              "name": "isRenewableUsed",
              "type": "bool"
            },
            {
              "internalType": "bool",
              "name": "isValue",
              "type": "bool"
            }
          ],
          "internalType": "struct Manufacturer.Manufacturer",
          "name": "",
          "type": "tuple"
        }
      ],
      "payable": false,
      "stateMutability": "view",
      "type": "function"
    },
    {
      "constant": false,
      "inputs": [
        {
          "internalType": "string",
          "name": "name",
          "type": "string"
        },
        {
          "internalType": "string[]",
          "name": "rawProducts",
          "type": "string[]"
        },
        {
          "internalType": "address[]",
          "name": "farmerAddress",
          "type": "address[]"
        }
      ],
      "name": "addManufacturer",
      "outputs": [],
      "payable": false,
      "stateMutability": "nonpayable",
      "type": "function"
    },
    {
      "constant": false,
      "inputs": [
        {
          "internalType": "string[]",
          "name": "rawProducts",
          "type": "string[]"
        },
        {
          "internalType": "address[]",
          "name": "farmerAddress",
          "type": "address[]"
        }
      ],
      "name": "updateRawProducts",
      "outputs": [],
      "payable": false,
      "stateMutability": "nonpayable",
      "type": "function"
    },
    {
      "constant": true,
      "inputs": [
        {
          "internalType": "address",
          "name": "id",
          "type": "address"
        },
        {
          "internalType": "string",
          "name": "rawProduct",
          "type": "string"
        }
      ],
      "name": "getRawProductInfo",
      "outputs": [
        {
          "internalType": "address",
          "name": "",
          "type": "address"
        }
      ],
      "payable": false,
      "stateMutability": "view",
      "type": "function"
    },
    {
      "constant": false,
      "inputs": [
        {
          "internalType": "address",
          "name": "id",
          "type": "address"
        }
      ],
      "name": "verifyManufacturer",
      "outputs": [],
      "payable": false,
      "stateMutability": "nonpayable",
      "type": "function"
    }
  ],
  "bytecode": "0x608060405234801561001057600080fd5b50336000806101000a81548173ffffffffffffffffffffffffffffffffffffffff021916908373ffffffffffffffffffffffffffffffffffffffff1602179055506117ed806100606000396000f3fe608060405234801561001057600080fd5b50600436106100625760003560e01c8063191bcef614610067578063aba1160d14610097578063b8abb570146100b3578063b9477b81146100e3578063d64a3d8b146100ff578063f1cca5941461011b575b600080fd5b610081600480360361007c9190810190610f14565b610139565b60405161008e91906114ec565b60405180910390f35b6100b160048036036100ac9190810190610f91565b6103a9565b005b6100cd60048036036100c89190810190610f3d565b6106c7565b6040516100da919061148f565b60405180910390f35b6100fd60048036036100f89190810190610ffd565b610731565b005b61011960048036036101149190810190610f14565b6109a3565b005b610123610a90565b60405161013091906114aa565b60405180910390f35b610141610b1e565b600260008373ffffffffffffffffffffffffffffffffffffffff1673ffffffffffffffffffffffffffffffffffffffff1681526020019081526020016000206040518060a00160405290816000820160009054906101000a900473ffffffffffffffffffffffffffffffffffffffff1673ffffffffffffffffffffffffffffffffffffffff1673ffffffffffffffffffffffffffffffffffffffff168152602001600182018054600181600116156101000203166002900480601f01602080910402602001604051908101604052809291908181526020018280546001816001161561010002031660029004801561027a5780601f1061024f5761010080835404028352916020019161027a565b820191906000526020600020905b81548152906001019060200180831161025d57829003601f168201915b5050505050815260200160028201805480602002602001604051908101604052809291908181526020016000905b82821015610364578382906000526020600020018054600181600116156101000203166002900480601f0160208091040260200160405190810160405280929190818152602001828054600181600116156101000203166002900480156103505780601f1061032557610100808354040283529160200191610350565b820191906000526020600020905b81548152906001019060200180831161033357829003601f168201915b5050505050815260200190600101906102a8565b5050505081526020016003820160009054906101000a900460ff161515151581526020016003820160019054906101000a900460ff1615151515815250509050919050565b60008090505b82518110156106c25760008090505b600260003373ffffffffffffffffffffffffffffffffffffffff1673ffffffffffffffffffffffffffffffffffffffff1681526020019081526020016000206002018054905081101561057e5783828151811061041757fe5b602002602001015160405160200161042f919061144a565b60405160208183030381529060405280519060200120600260003373ffffffffffffffffffffffffffffffffffffffff1673ffffffffffffffffffffffffffffffffffffffff168152602001908152602001600020600201828154811061049257fe5b906000526020600020016040516020016104ac9190611478565b604051602081830303815290604052805190602001201415610571578282815181106104d457fe5b60200260200101516003338685815181106104eb57fe5b60200260200101516040516020016105049291906113fa565b6040516020818303038152906040526040516105209190611461565b908152602001604051809103902060006101000a81548173ffffffffffffffffffffffffffffffffffffffff021916908373ffffffffffffffffffffffffffffffffffffffff16021790555061057e565b80806001019150506103be565b50600260003373ffffffffffffffffffffffffffffffffffffffff1673ffffffffffffffffffffffffffffffffffffffff1681526020019081526020016000206002018382815181106105cd57fe5b6020026020010151908060018154018082558091505090600182039060005260206000200160009091929091909150908051906020019061060f929190610b67565b505081818151811061061d57fe5b602002602001015160033385848151811061063457fe5b602002602001015160405160200161064d9291906113fa565b6040516020818303038152906040526040516106699190611461565b908152602001604051809103902060006101000a81548173ffffffffffffffffffffffffffffffffffffffff021916908373ffffffffffffffffffffffffffffffffffffffff16021790555080806001019150506103af565b505050565b6000600383836040516020016106de929190611422565b6040516020818303038152906040526040516106fa9190611461565b908152602001604051809103902060009054906101000a900473ffffffffffffffffffffffffffffffffffffffff16905092915050565b60013390806001815401808255809150509060018203906000526020600020016000909192909190916101000a81548173ffffffffffffffffffffffffffffffffffffffff021916908373ffffffffffffffffffffffffffffffffffffffff160217905550506040518060a001604052803373ffffffffffffffffffffffffffffffffffffffff16815260200184815260200183815260200160001515815260200160011515815250600260003373ffffffffffffffffffffffffffffffffffffffff1673ffffffffffffffffffffffffffffffffffffffff16815260200190815260200160002060008201518160000160006101000a81548173ffffffffffffffffffffffffffffffffffffffff021916908373ffffffffffffffffffffffffffffffffffffffff160217905550602082015181600101908051906020019061087c929190610be7565b506040820151816002019080519060200190610899929190610c67565b5060608201518160030160006101000a81548160ff02191690831515021790555060808201518160030160016101000a81548160ff02191690831515021790555090505060008090505b825181101561099d578181815181106108f857fe5b602002602001015160033385848151811061090f57fe5b60200260200101516040516020016109289291906113fa565b6040516020818303038152906040526040516109449190611461565b908152602001604051809103902060006101000a81548173ffffffffffffffffffffffffffffffffffffffff021916908373ffffffffffffffffffffffffffffffffffffffff16021790555080806001019150506108e3565b50505050565b6000809054906101000a900473ffffffffffffffffffffffffffffffffffffffff1673ffffffffffffffffffffffffffffffffffffffff163373ffffffffffffffffffffffffffffffffffffffff1614610a32576040517f08c379a0000000000000000000000000000000000000000000000000000000008152600401610a29906114cc565b60405180910390fd5b6001600260008373ffffffffffffffffffffffffffffffffffffffff1673ffffffffffffffffffffffffffffffffffffffff16815260200190815260200160002060030160006101000a81548160ff02191690831515021790555050565b60606001805480602002602001604051908101604052809291908181526020018280548015610b1457602002820191906000526020600020905b8160009054906101000a900473ffffffffffffffffffffffffffffffffffffffff1673ffffffffffffffffffffffffffffffffffffffff1681526020019060010190808311610aca575b5050505050905090565b6040518060a00160405280600073ffffffffffffffffffffffffffffffffffffffff16815260200160608152602001606081526020016000151581526020016000151581525090565b828054600181600116156101000203166002900490600052602060002090601f016020900481019282601f10610ba857805160ff1916838001178555610bd6565b82800160010185558215610bd6579182015b82811115610bd5578251825591602001919060010190610bba565b5b509050610be39190610cc7565b5090565b828054600181600116156101000203166002900490600052602060002090601f016020900481019282601f10610c2857805160ff1916838001178555610c56565b82800160010185558215610c56579182015b82811115610c55578251825591602001919060010190610c3a565b5b509050610c639190610cc7565b5090565b828054828255906000526020600020908101928215610cb6579160200282015b82811115610cb5578251829080519060200190610ca5929190610be7565b5091602001919060010190610c87565b5b509050610cc39190610cec565b5090565b610ce991905b80821115610ce5576000816000905550600101610ccd565b5090565b90565b610d1591905b80821115610d115760008181610d089190610d18565b50600101610cf2565b5090565b90565b50805460018160011615610100020316600290046000825580601f10610d3e5750610d5d565b601f016020900490600052602060002090810190610d5c9190610cc7565b5b50565b600081359050610d6f81611793565b92915050565b600082601f830112610d8657600080fd5b8135610d99610d948261153b565b61150e565b91508181835260208401935060208101905083856020840282011115610dbe57600080fd5b60005b83811015610dee5781610dd48882610d60565b845260208401935060208301925050600181019050610dc1565b5050505092915050565b600082601f830112610e0957600080fd5b8135610e1c610e1782611563565b61150e565b9150818183526020840193506020810190508360005b83811015610e625781358601610e488882610e6c565b845260208401935060208301925050600181019050610e32565b5050505092915050565b600082601f830112610e7d57600080fd5b8135610e90610e8b8261158b565b61150e565b91508082526020830160208301858383011115610eac57600080fd5b610eb78382846116fd565b50505092915050565b600082601f830112610ed157600080fd5b8135610ee4610edf826115b7565b61150e565b91508082526020830160208301858383011115610f0057600080fd5b610f0b8382846116fd565b50505092915050565b600060208284031215610f2657600080fd5b6000610f3484828501610d60565b91505092915050565b60008060408385031215610f5057600080fd5b6000610f5e85828601610d60565b925050602083013567ffffffffffffffff811115610f7b57600080fd5b610f8785828601610ec0565b9150509250929050565b60008060408385031215610fa457600080fd5b600083013567ffffffffffffffff811115610fbe57600080fd5b610fca85828601610df8565b925050602083013567ffffffffffffffff811115610fe757600080fd5b610ff385828601610d75565b9150509250929050565b60008060006060848603121561101257600080fd5b600084013567ffffffffffffffff81111561102c57600080fd5b61103886828701610ec0565b935050602084013567ffffffffffffffff81111561105557600080fd5b61106186828701610df8565b925050604084013567ffffffffffffffff81111561107e57600080fd5b61108a86828701610d75565b9150509250925092565b60006110a083836110d7565b60208301905092915050565b60006110b8838361121f565b905092915050565b6110d16110cc826116bf565b611751565b82525050565b6110e0816116ad565b82525050565b6110ef816116ad565b82525050565b611106611101826116ad565b61173f565b82525050565b600061111782611618565b611121818561165e565b935061112c836115e3565b8060005b8381101561115d5781516111448882611094565b975061114f83611644565b925050600181019050611130565b5085935050505092915050565b600061117582611623565b61117f818561166f565b935083602082028501611191856115f3565b8060005b858110156111cd57848403895281516111ae85826110ac565b94506111b983611651565b925060208a01995050600181019050611195565b50829750879550505050505092915050565b6111e8816116d1565b82525050565b60006111f982611639565b61120381856116a2565b935061121381856020860161170c565b80840191505092915050565b600061122a8261162e565b6112348185611680565b935061124481856020860161170c565b61124d81611775565b840191505092915050565b60006112638261162e565b61126d81856116a2565b935061127d81856020860161170c565b80840191505092915050565b6000815460018116600081146112a657600181146112cb5761130f565b607f60028304166112b781876116a2565b955060ff198316865280860193505061130f565b600282046112d981876116a2565b95506112e485611603565b60005b82811015611306578154818901526001820191506020810190506112e7565b82880195505050505b505092915050565b6000611324603783611691565b91507f4d616e7566616374757265723a3a7665726966793a204f6e6c792061646d696e60008301527f2063616e2076657269667920616e206964656e746974790000000000000000006020830152604082019050919050565b600060a08301600083015161139560008601826110d7565b50602083015184820360208601526113ad828261121f565b915050604083015184820360408601526113c7828261116a565b91505060608301516113dc60608601826111df565b5060808301516113ef60808601826111df565b508091505092915050565b600061140682856110c0565b6014820191506114168284611258565b91508190509392505050565b600061142e82856110f5565b60148201915061143e82846111ee565b91508190509392505050565b60006114568284611258565b915081905092915050565b600061146d82846111ee565b915081905092915050565b60006114848284611289565b915081905092915050565b60006020820190506114a460008301846110e6565b92915050565b600060208201905081810360008301526114c4818461110c565b905092915050565b600060208201905081810360008301526114e581611317565b9050919050565b60006020820190508181036000830152611506818461137d565b905092915050565b6000604051905081810181811067ffffffffffffffff8211171561153157600080fd5b8060405250919050565b600067ffffffffffffffff82111561155257600080fd5b602082029050602081019050919050565b600067ffffffffffffffff82111561157a57600080fd5b602082029050602081019050919050565b600067ffffffffffffffff8211156115a257600080fd5b601f19601f8301169050602081019050919050565b600067ffffffffffffffff8211156115ce57600080fd5b601f19601f8301169050602081019050919050565b6000819050602082019050919050565b6000819050602082019050919050565b60008190508160005260206000209050919050565b600081519050919050565b600081519050919050565b600081519050919050565b600081519050919050565b6000602082019050919050565b6000602082019050919050565b600082825260208201905092915050565b600082825260208201905092915050565b600082825260208201905092915050565b600082825260208201905092915050565b600081905092915050565b60006116b8826116dd565b9050919050565b60006116ca826116dd565b9050919050565b60008115159050919050565b600073ffffffffffffffffffffffffffffffffffffffff82169050919050565b82818337600083830152505050565b60005b8381101561172a57808201518184015260208101905061170f565b83811115611739576000848401525b50505050565b600061174a82611763565b9050919050565b600061175c82611763565b9050919050565b600061176e82611786565b9050919050565b6000601f19601f8301169050919050565b60008160601b9050919050565b61179c816116ad565b81146117a757600080fd5b5056fea365627a7a723158207102d61a4c4c6a9edb66beef2d5fadb3597346edf745340f15967f3183295eff6c6578706572696d656e74616cf564736f6c63430005100040",
  "source": "pragma solidity >=0.4.22 <0.9.0;\r\npragma experimental ABIEncoderV2;\r\ncontract Manufacturer {    \r\n    struct Manufacturer{\r\n        address id;\r\n        string name;\r\n        string[] rawProducts;        \r\n        bool isRenewableUsed;\r\n        bool isValue; //to verify value exists in mapping or not\r\n    }\r\n    address private adminAddress;\r\n    address [] private manufacturersList;\r\n    mapping(address => Manufacturer) private manufacturers;            \r\n    mapping(string => address) private farmerAddresses; //Mapping to store raw material supplier address for a manufacturer\r\n    \r\n    constructor() public {\r\n        adminAddress = msg.sender;        \r\n    }\r\n\r\n    //get list of ids of all manufacturers\r\n    function getManufacturersList() public view returns(address[] memory){\r\n        return manufacturersList;\r\n    }\r\n\r\n    //Get manufacturer by id\r\n    function getManufacturer(address id) public view returns(Manufacturer memory){\r\n        return manufacturers[id];\r\n    }\r\n\r\n    //Adding new manufacturer\r\n    function addManufacturer(\r\n        string memory name, \r\n        string[] memory rawProducts,\r\n        address[] memory farmerAddress\r\n    ) public {        \r\n        manufacturersList.push(msg.sender);                \r\n        manufacturers[msg.sender] = Manufacturer(msg.sender, name, rawProducts, false, true);\r\n        for(uint i=0; i<rawProducts.length; i++){            \r\n            farmerAddresses[string(abi.encodePacked(msg.sender, rawProducts[i]))] = farmerAddress[i];    \r\n        }   \r\n    }\r\n\r\n    //Updating raw products information for a manufacturer\r\n    function updateRawProducts(        \r\n        string[] memory rawProducts,\r\n        address[] memory farmerAddress\r\n    ) public {\r\n        for(uint i = 0;i< rawProducts.length; i++){\r\n            for(uint j=0; j<manufacturers[msg.sender].rawProducts.length; j++){                \r\n                if(keccak256(abi.encodePacked(manufacturers[msg.sender].rawProducts[j])) == keccak256(abi.encodePacked(rawProducts[i]))){\r\n                    farmerAddresses[string(abi.encodePacked(msg.sender, rawProducts[i]))] = farmerAddress[i];\r\n                    break;\r\n                }\r\n            }\r\n            manufacturers[msg.sender].rawProducts.push(rawProducts[i]);\r\n            farmerAddresses[string(abi.encodePacked(msg.sender, rawProducts[i]))] = farmerAddress[i];\r\n        }\r\n    }\r\n\r\n    //Get raw material supplier(farmer) address for a manufacturer\r\n    function getRawProductInfo(\r\n        address id,\r\n        string memory rawProduct        \r\n    ) public view returns (address){\r\n        return farmerAddresses[string(abi.encodePacked(id, rawProduct))];\r\n    }\r\n\r\n    //Verify manufacturer source of energy\r\n    function verifyManufacturer(address id) public {\r\n        require(msg.sender == adminAddress, \"Manufacturer::verify: Only admin can verify an identity\");\r\n        manufacturers[id].isRenewableUsed = true;\r\n    }\r\n}",
  "sourcePath": "D:\\Blockchain\\supply-chain\\src\\Contracts\\Manufacturer.sol",
  "compiler": {
    "name": "solc",
    "version": "0.5.16+commit.9c3226ce.Emscripten.clang"
  },
  "schemaVersion": "3.4.3",
  "updatedAt": "2021-12-25T08:26:53.576Z",
  "networkType": "ethereum",
  "devdoc": {
    "methods": {}
  },
  "userdoc": {
    "methods": {}
  }
}