{
  "contractName": "Manufacturer",
  "abi": [
    {
      "inputs": [],
      "payable": false,
      "stateMutability": "nonpayable",
      "type": "constructor"
    },
    {
      "constant": true,
      "inputs": [],
      "name": "getManufacturersList",
      "outputs": [
        {
          "internalType": "address[]",
          "name": "",
          "type": "address[]"
        }
      ],
      "payable": false,
      "stateMutability": "view",
      "type": "function"
    },
    {
      "constant": true,
      "inputs": [
        {
          "internalType": "address",
          "name": "id",
          "type": "address"
        }
      ],
      "name": "getManufacturer",
      "outputs": [
        {
          "components": [
            {
              "internalType": "address",
              "name": "id",
              "type": "address"
            },
            {
              "internalType": "string",
              "name": "name",
              "type": "string"
            },
            {
              "internalType": "string[]",
              "name": "rawProducts",
              "type": "string[]"
            },
            {
              "internalType": "bool",
              "name": "isRenewableUsed",
              "type": "bool"
            },
            {
              "internalType": "bool",
              "name": "isValue",
              "type": "bool"
            }
          ],
          "internalType": "struct Manufacturer.Manufacturer",
          "name": "",
          "type": "tuple"
        }
      ],
      "payable": false,
      "stateMutability": "view",
      "type": "function"
    },
    {
      "constant": false,
      "inputs": [
        {
          "internalType": "string",
          "name": "name",
          "type": "string"
        },
        {
          "internalType": "string[]",
          "name": "rawProducts",
          "type": "string[]"
        },
        {
          "internalType": "address[]",
          "name": "farmerAddress",
          "type": "address[]"
        }
      ],
      "name": "addManufacturer",
      "outputs": [],
      "payable": false,
      "stateMutability": "nonpayable",
      "type": "function"
    },
    {
      "constant": false,
      "inputs": [
        {
          "internalType": "string[]",
          "name": "rawProducts",
          "type": "string[]"
        },
        {
          "internalType": "address[]",
          "name": "farmerAddress",
          "type": "address[]"
        }
      ],
      "name": "updateRawProducts",
      "outputs": [],
      "payable": false,
      "stateMutability": "nonpayable",
      "type": "function"
    },
    {
      "constant": true,
      "inputs": [
        {
          "internalType": "address",
          "name": "id",
          "type": "address"
        },
        {
          "internalType": "string",
          "name": "rawProduct",
          "type": "string"
        }
      ],
      "name": "getRawProductInfo",
      "outputs": [
        {
          "internalType": "address",
          "name": "",
          "type": "address"
        }
      ],
      "payable": false,
      "stateMutability": "view",
      "type": "function"
    },
    {
      "constant": false,
      "inputs": [
        {
          "internalType": "address",
          "name": "id",
          "type": "address"
        }
      ],
      "name": "verifyManufacturer",
      "outputs": [],
      "payable": false,
      "stateMutability": "nonpayable",
      "type": "function"
    }
  ],
  "bytecode": "0x608060405234801561001057600080fd5b50336000806101000a81548173ffffffffffffffffffffffffffffffffffffffff021916908373ffffffffffffffffffffffffffffffffffffffff160217905550611805806100606000396000f3fe608060405234801561001057600080fd5b50600436106100625760003560e01c8063191bcef614610067578063aba1160d14610097578063b8abb570146100b3578063b9477b81146100e3578063d64a3d8b146100ff578063f1cca5941461011b575b600080fd5b610081600480360361007c9190810190610f2c565b610139565b60405161008e9190611504565b60405180910390f35b6100b160048036036100ac9190810190610fa9565b6103a9565b005b6100cd60048036036100c89190810190610f55565b6106df565b6040516100da91906114a7565b60405180910390f35b6100fd60048036036100f89190810190611015565b610749565b005b61011960048036036101149190810190610f2c565b6109bb565b005b610123610aa8565b60405161013091906114c2565b60405180910390f35b610141610b36565b600260008373ffffffffffffffffffffffffffffffffffffffff1673ffffffffffffffffffffffffffffffffffffffff1681526020019081526020016000206040518060a00160405290816000820160009054906101000a900473ffffffffffffffffffffffffffffffffffffffff1673ffffffffffffffffffffffffffffffffffffffff1673ffffffffffffffffffffffffffffffffffffffff168152602001600182018054600181600116156101000203166002900480601f01602080910402602001604051908101604052809291908181526020018280546001816001161561010002031660029004801561027a5780601f1061024f5761010080835404028352916020019161027a565b820191906000526020600020905b81548152906001019060200180831161025d57829003601f168201915b5050505050815260200160028201805480602002602001604051908101604052809291908181526020016000905b82821015610364578382906000526020600020018054600181600116156101000203166002900480601f0160208091040260200160405190810160405280929190818152602001828054600181600116156101000203166002900480156103505780601f1061032557610100808354040283529160200191610350565b820191906000526020600020905b81548152906001019060200180831161033357829003601f168201915b5050505050815260200190600101906102a8565b5050505081526020016003820160009054906101000a900460ff161515151581526020016003820160019054906101000a900460ff1615151515815250509050919050565b60008090505b82518110156106da57600080905060008090505b600260003373ffffffffffffffffffffffffffffffffffffffff1673ffffffffffffffffffffffffffffffffffffffff168152602001908152602001600020600201805490508110156105875784838151811061041c57fe5b60200260200101516040516020016104349190611462565b60405160208183030381529060405280519060200120600260003373ffffffffffffffffffffffffffffffffffffffff1673ffffffffffffffffffffffffffffffffffffffff168152602001908152602001600020600201828154811061049757fe5b906000526020600020016040516020016104b19190611490565b60405160208183030381529060405280519060200120141561057a578383815181106104d957fe5b60200260200101516003338786815181106104f057fe5b6020026020010151604051602001610509929190611412565b6040516020818303038152906040526040516105259190611479565b908152602001604051809103902060006101000a81548173ffffffffffffffffffffffffffffffffffffffff021916908373ffffffffffffffffffffffffffffffffffffffff16021790555060019150610587565b80806001019150506103c3565b506000151581151514156106cc57600260003373ffffffffffffffffffffffffffffffffffffffff1673ffffffffffffffffffffffffffffffffffffffff1681526020019081526020016000206002018483815181106105e357fe5b60200260200101519080600181540180825580915050906001820390600052602060002001600090919290919091509080519060200190610625929190610b7f565b505082828151811061063357fe5b602002602001015160033386858151811061064a57fe5b6020026020010151604051602001610663929190611412565b60405160208183030381529060405260405161067f9190611479565b908152602001604051809103902060006101000a81548173ffffffffffffffffffffffffffffffffffffffff021916908373ffffffffffffffffffffffffffffffffffffffff1602179055505b5080806001019150506103af565b505050565b6000600383836040516020016106f692919061143a565b6040516020818303038152906040526040516107129190611479565b908152602001604051809103902060009054906101000a900473ffffffffffffffffffffffffffffffffffffffff16905092915050565b60013390806001815401808255809150509060018203906000526020600020016000909192909190916101000a81548173ffffffffffffffffffffffffffffffffffffffff021916908373ffffffffffffffffffffffffffffffffffffffff160217905550506040518060a001604052803373ffffffffffffffffffffffffffffffffffffffff16815260200184815260200183815260200160001515815260200160011515815250600260003373ffffffffffffffffffffffffffffffffffffffff1673ffffffffffffffffffffffffffffffffffffffff16815260200190815260200160002060008201518160000160006101000a81548173ffffffffffffffffffffffffffffffffffffffff021916908373ffffffffffffffffffffffffffffffffffffffff1602179055506020820151816001019080519060200190610894929190610bff565b5060408201518160020190805190602001906108b1929190610c7f565b5060608201518160030160006101000a81548160ff02191690831515021790555060808201518160030160016101000a81548160ff02191690831515021790555090505060008090505b82518110156109b55781818151811061091057fe5b602002602001015160033385848151811061092757fe5b6020026020010151604051602001610940929190611412565b60405160208183030381529060405260405161095c9190611479565b908152602001604051809103902060006101000a81548173ffffffffffffffffffffffffffffffffffffffff021916908373ffffffffffffffffffffffffffffffffffffffff16021790555080806001019150506108fb565b50505050565b6000809054906101000a900473ffffffffffffffffffffffffffffffffffffffff1673ffffffffffffffffffffffffffffffffffffffff163373ffffffffffffffffffffffffffffffffffffffff1614610a4a576040517f08c379a0000000000000000000000000000000000000000000000000000000008152600401610a41906114e4565b60405180910390fd5b6001600260008373ffffffffffffffffffffffffffffffffffffffff1673ffffffffffffffffffffffffffffffffffffffff16815260200190815260200160002060030160006101000a81548160ff02191690831515021790555050565b60606001805480602002602001604051908101604052809291908181526020018280548015610b2c57602002820191906000526020600020905b8160009054906101000a900473ffffffffffffffffffffffffffffffffffffffff1673ffffffffffffffffffffffffffffffffffffffff1681526020019060010190808311610ae2575b5050505050905090565b6040518060a00160405280600073ffffffffffffffffffffffffffffffffffffffff16815260200160608152602001606081526020016000151581526020016000151581525090565b828054600181600116156101000203166002900490600052602060002090601f016020900481019282601f10610bc057805160ff1916838001178555610bee565b82800160010185558215610bee579182015b82811115610bed578251825591602001919060010190610bd2565b5b509050610bfb9190610cdf565b5090565b828054600181600116156101000203166002900490600052602060002090601f016020900481019282601f10610c4057805160ff1916838001178555610c6e565b82800160010185558215610c6e579182015b82811115610c6d578251825591602001919060010190610c52565b5b509050610c7b9190610cdf565b5090565b828054828255906000526020600020908101928215610cce579160200282015b82811115610ccd578251829080519060200190610cbd929190610bff565b5091602001919060010190610c9f565b5b509050610cdb9190610d04565b5090565b610d0191905b80821115610cfd576000816000905550600101610ce5565b5090565b90565b610d2d91905b80821115610d295760008181610d209190610d30565b50600101610d0a565b5090565b90565b50805460018160011615610100020316600290046000825580601f10610d565750610d75565b601f016020900490600052602060002090810190610d749190610cdf565b5b50565b600081359050610d87816117ab565b92915050565b600082601f830112610d9e57600080fd5b8135610db1610dac82611553565b611526565b91508181835260208401935060208101905083856020840282011115610dd657600080fd5b60005b83811015610e065781610dec8882610d78565b845260208401935060208301925050600181019050610dd9565b5050505092915050565b600082601f830112610e2157600080fd5b8135610e34610e2f8261157b565b611526565b9150818183526020840193506020810190508360005b83811015610e7a5781358601610e608882610e84565b845260208401935060208301925050600181019050610e4a565b5050505092915050565b600082601f830112610e9557600080fd5b8135610ea8610ea3826115a3565b611526565b91508082526020830160208301858383011115610ec457600080fd5b610ecf838284611715565b50505092915050565b600082601f830112610ee957600080fd5b8135610efc610ef7826115cf565b611526565b91508082526020830160208301858383011115610f1857600080fd5b610f23838284611715565b50505092915050565b600060208284031215610f3e57600080fd5b6000610f4c84828501610d78565b91505092915050565b60008060408385031215610f6857600080fd5b6000610f7685828601610d78565b925050602083013567ffffffffffffffff811115610f9357600080fd5b610f9f85828601610ed8565b9150509250929050565b60008060408385031215610fbc57600080fd5b600083013567ffffffffffffffff811115610fd657600080fd5b610fe285828601610e10565b925050602083013567ffffffffffffffff811115610fff57600080fd5b61100b85828601610d8d565b9150509250929050565b60008060006060848603121561102a57600080fd5b600084013567ffffffffffffffff81111561104457600080fd5b61105086828701610ed8565b935050602084013567ffffffffffffffff81111561106d57600080fd5b61107986828701610e10565b925050604084013567ffffffffffffffff81111561109657600080fd5b6110a286828701610d8d565b9150509250925092565b60006110b883836110ef565b60208301905092915050565b60006110d08383611237565b905092915050565b6110e96110e4826116d7565b611769565b82525050565b6110f8816116c5565b82525050565b611107816116c5565b82525050565b61111e611119826116c5565b611757565b82525050565b600061112f82611630565b6111398185611676565b9350611144836115fb565b8060005b8381101561117557815161115c88826110ac565b97506111678361165c565b925050600181019050611148565b5085935050505092915050565b600061118d8261163b565b6111978185611687565b9350836020820285016111a98561160b565b8060005b858110156111e557848403895281516111c685826110c4565b94506111d183611669565b925060208a019950506001810190506111ad565b50829750879550505050505092915050565b611200816116e9565b82525050565b600061121182611651565b61121b81856116ba565b935061122b818560208601611724565b80840191505092915050565b600061124282611646565b61124c8185611698565b935061125c818560208601611724565b6112658161178d565b840191505092915050565b600061127b82611646565b61128581856116ba565b9350611295818560208601611724565b80840191505092915050565b6000815460018116600081146112be57600181146112e357611327565b607f60028304166112cf81876116ba565b955060ff1983168652808601935050611327565b600282046112f181876116ba565b95506112fc8561161b565b60005b8281101561131e578154818901526001820191506020810190506112ff565b82880195505050505b505092915050565b600061133c6037836116a9565b91507f4d616e7566616374757265723a3a7665726966793a204f6e6c792061646d696e60008301527f2063616e2076657269667920616e206964656e746974790000000000000000006020830152604082019050919050565b600060a0830160008301516113ad60008601826110ef565b50602083015184820360208601526113c58282611237565b915050604083015184820360408601526113df8282611182565b91505060608301516113f460608601826111f7565b50608083015161140760808601826111f7565b508091505092915050565b600061141e82856110d8565b60148201915061142e8284611270565b91508190509392505050565b6000611446828561110d565b6014820191506114568284611206565b91508190509392505050565b600061146e8284611270565b915081905092915050565b60006114858284611206565b915081905092915050565b600061149c82846112a1565b915081905092915050565b60006020820190506114bc60008301846110fe565b92915050565b600060208201905081810360008301526114dc8184611124565b905092915050565b600060208201905081810360008301526114fd8161132f565b9050919050565b6000602082019050818103600083015261151e8184611395565b905092915050565b6000604051905081810181811067ffffffffffffffff8211171561154957600080fd5b8060405250919050565b600067ffffffffffffffff82111561156a57600080fd5b602082029050602081019050919050565b600067ffffffffffffffff82111561159257600080fd5b602082029050602081019050919050565b600067ffffffffffffffff8211156115ba57600080fd5b601f19601f8301169050602081019050919050565b600067ffffffffffffffff8211156115e657600080fd5b601f19601f8301169050602081019050919050565b6000819050602082019050919050565b6000819050602082019050919050565b60008190508160005260206000209050919050565b600081519050919050565b600081519050919050565b600081519050919050565b600081519050919050565b6000602082019050919050565b6000602082019050919050565b600082825260208201905092915050565b600082825260208201905092915050565b600082825260208201905092915050565b600082825260208201905092915050565b600081905092915050565b60006116d0826116f5565b9050919050565b60006116e2826116f5565b9050919050565b60008115159050919050565b600073ffffffffffffffffffffffffffffffffffffffff82169050919050565b82818337600083830152505050565b60005b83811015611742578082015181840152602081019050611727565b83811115611751576000848401525b50505050565b60006117628261177b565b9050919050565b60006117748261177b565b9050919050565b60006117868261179e565b9050919050565b6000601f19601f8301169050919050565b60008160601b9050919050565b6117b4816116c5565b81146117bf57600080fd5b5056fea365627a7a7231582058d4e13e1e5a6523e90cad200413dd66d4501dde3d8d85531987f6adb4eece8a6c6578706572696d656e74616cf564736f6c63430005100040",
  "source": "pragma solidity >=0.4.22 <0.9.0;\npragma experimental ABIEncoderV2;\ncontract Manufacturer {    \n    struct Manufacturer{\n        address id;\n        string name;\n        string[] rawProducts;        \n        bool isRenewableUsed;\n        bool isValue; //to verify value exists in mapping or not\n    }\n    address private adminAddress;\n    address [] private manufacturersList;\n    mapping(address => Manufacturer) private manufacturers;            \n    mapping(string => address) private farmerAddresses; //Mapping to store raw material supplier address for a manufacturer\n    \n    constructor() public {\n        adminAddress = msg.sender;        \n    }\n\n    //get list of ids of all manufacturers\n    function getManufacturersList() public view returns(address[] memory){\n        return manufacturersList;\n    }\n\n    //Get manufacturer by id\n    function getManufacturer(address id) public view returns(Manufacturer memory){\n        return manufacturers[id];\n    }\n\n    //Adding new manufacturer\n    function addManufacturer(\n        string memory name, \n        string[] memory rawProducts,\n        address[] memory farmerAddress\n    ) public {        \n        manufacturersList.push(msg.sender);                \n        manufacturers[msg.sender] = Manufacturer(msg.sender, name, rawProducts, false, true);\n        for(uint i=0; i<rawProducts.length; i++){            \n            farmerAddresses[string(abi.encodePacked(msg.sender, rawProducts[i]))] = farmerAddress[i];    \n        }   \n    }\n\n    //Updating raw products information for a manufacturer\n    function updateRawProducts(        \n        string[] memory rawProducts,\n        address[] memory farmerAddress\n    ) public {\n        for(uint i = 0;i< rawProducts.length; i++){\n            bool isExist = false;\n            for(uint j=0; j<manufacturers[msg.sender].rawProducts.length; j++){                \n                if(keccak256(abi.encodePacked(manufacturers[msg.sender].rawProducts[j])) == keccak256(abi.encodePacked(rawProducts[i]))){\n                    farmerAddresses[string(abi.encodePacked(msg.sender, rawProducts[i]))] = farmerAddress[i];\n                    isExist = true;\n                    break;\n                }\n            }\n            if(isExist==false){\n                manufacturers[msg.sender].rawProducts.push(rawProducts[i]);\n                farmerAddresses[string(abi.encodePacked(msg.sender, rawProducts[i]))] = farmerAddress[i];\n            }\n        }\n    }\n\n    //Get raw material supplier(farmer) address for a manufacturer\n    function getRawProductInfo(\n        address id,\n        string memory rawProduct        \n    ) public view returns (address){\n        return farmerAddresses[string(abi.encodePacked(id, rawProduct))];\n    }\n\n    //Verify manufacturer source of energy\n    function verifyManufacturer(address id) public {\n        require(msg.sender == adminAddress, \"Manufacturer::verify: Only admin can verify an identity\");\n        manufacturers[id].isRenewableUsed = true;\n    }\n}",
  "sourcePath": "/home/lakshya/Desktop/Projects/Blockchain/SupplyChain/supply-chain/src/Contracts/Manufacturer.sol",
  "compiler": {
    "name": "solc",
    "version": "0.5.16+commit.9c3226ce.Emscripten.clang"
  },
  "schemaVersion": "3.4.4",
  "updatedAt": "2022-01-13T18:39:13.632Z",
  "networkType": "ethereum",
  "devdoc": {
    "methods": {}
  },
  "userdoc": {
    "methods": {}
  }
}