{
  "contractName": "Manufacturer",
  "abi": [
    {
      "inputs": [],
      "payable": false,
      "stateMutability": "nonpayable",
      "type": "constructor"
    },
    {
      "constant": true,
      "inputs": [],
      "name": "getManufacturersList",
      "outputs": [
        {
          "internalType": "address[]",
          "name": "",
          "type": "address[]"
        }
      ],
      "payable": false,
      "stateMutability": "view",
      "type": "function"
    },
    {
      "constant": true,
      "inputs": [
        {
          "internalType": "address",
          "name": "id",
          "type": "address"
        }
      ],
      "name": "getManufacturer",
      "outputs": [
        {
          "internalType": "string",
          "name": "",
          "type": "string"
        },
        {
          "internalType": "bool",
          "name": "",
          "type": "bool"
        },
        {
          "internalType": "bool",
          "name": "",
          "type": "bool"
        }
      ],
      "payable": false,
      "stateMutability": "view",
      "type": "function"
    },
    {
      "constant": false,
      "inputs": [
        {
          "internalType": "string",
          "name": "name",
          "type": "string"
        }
      ],
      "name": "addManufacturer",
      "outputs": [],
      "payable": false,
      "stateMutability": "nonpayable",
      "type": "function"
    },
    {
      "constant": false,
      "inputs": [
        {
          "internalType": "string[]",
          "name": "rawProducts",
          "type": "string[]"
        },
        {
          "internalType": "address[]",
          "name": "farmerAddresses",
          "type": "address[]"
        }
      ],
      "name": "addRawProducts",
      "outputs": [],
      "payable": false,
      "stateMutability": "nonpayable",
      "type": "function"
    },
    {
      "constant": false,
      "inputs": [
        {
          "internalType": "address",
          "name": "id",
          "type": "address"
        }
      ],
      "name": "verifyManufacturer",
      "outputs": [],
      "payable": false,
      "stateMutability": "nonpayable",
      "type": "function"
    }
  ],
  "bytecode": "0x608060405234801561001057600080fd5b50336000806101000a81548173ffffffffffffffffffffffffffffffffffffffff021916908373ffffffffffffffffffffffffffffffffffffffff160217905550610d87806100606000396000f3fe608060405234801561001057600080fd5b50600436106100575760003560e01c8063191bcef61461005c5780638af546a01461008e5780638f5ae799146100aa578063d64a3d8b146100c6578063f1cca594146100e2575b600080fd5b6100766004803603610071919081019061088b565b610100565b60405161008593929190610afe565b60405180910390f35b6100a860048036036100a391908101906108b4565b610290565b005b6100c460048036036100bf9190810190610920565b610374565b005b6100e060048036036100db919081019061088b565b6104b7565b005b6100ea6105a4565b6040516100f79190610adc565b60405180910390f35b6060600080600260008573ffffffffffffffffffffffffffffffffffffffff1673ffffffffffffffffffffffffffffffffffffffff168152602001908152602001600020600101600260008673ffffffffffffffffffffffffffffffffffffffff1673ffffffffffffffffffffffffffffffffffffffff16815260200190815260200160002060030160009054906101000a900460ff16600260008773ffffffffffffffffffffffffffffffffffffffff1673ffffffffffffffffffffffffffffffffffffffff16815260200190815260200160002060030160019054906101000a900460ff16828054600181600116156101000203166002900480601f01602080910402602001604051908101604052809291908181526020018280546001816001161561010002031660029004801561027c5780601f106102515761010080835404028352916020019161027c565b820191906000526020600020905b81548152906001019060200180831161025f57829003601f168201915b505050505092509250925092509193909250565b60008090505b825181101561036f578181815181106102ab57fe5b6020026020010151600260003373ffffffffffffffffffffffffffffffffffffffff1673ffffffffffffffffffffffffffffffffffffffff16815260200190815260200160002060020184838151811061030157fe5b60200260200101516040516103169190610ac5565b908152602001604051809103902060006101000a81548173ffffffffffffffffffffffffffffffffffffffff021916908373ffffffffffffffffffffffffffffffffffffffff1602179055508080600101915050610296565b505050565b60013390806001815401808255809150509060018203906000526020600020016000909192909190916101000a81548173ffffffffffffffffffffffffffffffffffffffff021916908373ffffffffffffffffffffffffffffffffffffffff160217905550506000600260003373ffffffffffffffffffffffffffffffffffffffff1673ffffffffffffffffffffffffffffffffffffffff1681526020019081526020016000209050338160000160006101000a81548173ffffffffffffffffffffffffffffffffffffffff021916908373ffffffffffffffffffffffffffffffffffffffff16021790555081816001019080519060200190610478929190610632565b5060008160030160006101000a81548160ff02191690831515021790555060018160030160016101000a81548160ff0219169083151502179055505050565b6000809054906101000a900473ffffffffffffffffffffffffffffffffffffffff1673ffffffffffffffffffffffffffffffffffffffff163373ffffffffffffffffffffffffffffffffffffffff1614610546576040517f08c379a000000000000000000000000000000000000000000000000000000000815260040161053d90610b3c565b60405180910390fd5b6001600260008373ffffffffffffffffffffffffffffffffffffffff1673ffffffffffffffffffffffffffffffffffffffff16815260200190815260200160002060030160006101000a81548160ff02191690831515021790555050565b6060600180548060200260200160405190810160405280929190818152602001828054801561062857602002820191906000526020600020905b8160009054906101000a900473ffffffffffffffffffffffffffffffffffffffff1673ffffffffffffffffffffffffffffffffffffffff16815260200190600101908083116105de575b5050505050905090565b828054600181600116156101000203166002900490600052602060002090601f016020900481019282601f1061067357805160ff19168380011785556106a1565b828001600101855582156106a1579182015b828111156106a0578251825591602001919060010190610685565b5b5090506106ae91906106b2565b5090565b6106d491905b808211156106d05760008160009055506001016106b8565b5090565b90565b6000813590506106e681610d2d565b92915050565b600082601f8301126106fd57600080fd5b813561071061070b82610b89565b610b5c565b9150818183526020840193506020810190508385602084028201111561073557600080fd5b60005b83811015610765578161074b88826106d7565b845260208401935060208301925050600181019050610738565b5050505092915050565b600082601f83011261078057600080fd5b813561079361078e82610bb1565b610b5c565b9150818183526020840193506020810190508360005b838110156107d957813586016107bf88826107e3565b8452602084019350602083019250506001810190506107a9565b5050505092915050565b600082601f8301126107f457600080fd5b813561080761080282610bd9565b610b5c565b9150808252602083016020830185838301111561082357600080fd5b61082e838284610cda565b50505092915050565b600082601f83011261084857600080fd5b813561085b61085682610c05565b610b5c565b9150808252602083016020830185838301111561087757600080fd5b610882838284610cda565b50505092915050565b60006020828403121561089d57600080fd5b60006108ab848285016106d7565b91505092915050565b600080604083850312156108c757600080fd5b600083013567ffffffffffffffff8111156108e157600080fd5b6108ed8582860161076f565b925050602083013567ffffffffffffffff81111561090a57600080fd5b610916858286016106ec565b9150509250929050565b60006020828403121561093257600080fd5b600082013567ffffffffffffffff81111561094c57600080fd5b61095884828501610837565b91505092915050565b600061096d8383610979565b60208301905092915050565b61098281610c9c565b82525050565b600061099382610c41565b61099d8185610c6f565b93506109a883610c31565b8060005b838110156109d95781516109c08882610961565b97506109cb83610c62565b9250506001810190506109ac565b5085935050505092915050565b6109ef81610cae565b82525050565b6000610a0082610c57565b610a0a8185610c80565b9350610a1a818560208601610ce9565b610a2381610d1c565b840191505092915050565b6000610a3982610c4c565b610a438185610c91565b9350610a53818560208601610ce9565b80840191505092915050565b6000610a6c603783610c80565b91507f4d616e7566616374757265723a3a7665726966793a204f6e6c792061646d696e60008301527f2063616e2076657269667920616e206964656e746974790000000000000000006020830152604082019050919050565b6000610ad18284610a2e565b915081905092915050565b60006020820190508181036000830152610af68184610988565b905092915050565b60006060820190508181036000830152610b1881866109f5565b9050610b2760208301856109e6565b610b3460408301846109e6565b949350505050565b60006020820190508181036000830152610b5581610a5f565b9050919050565b6000604051905081810181811067ffffffffffffffff82111715610b7f57600080fd5b8060405250919050565b600067ffffffffffffffff821115610ba057600080fd5b602082029050602081019050919050565b600067ffffffffffffffff821115610bc857600080fd5b602082029050602081019050919050565b600067ffffffffffffffff821115610bf057600080fd5b601f19601f8301169050602081019050919050565b600067ffffffffffffffff821115610c1c57600080fd5b601f19601f8301169050602081019050919050565b6000819050602082019050919050565b600081519050919050565b600081519050919050565b600081519050919050565b6000602082019050919050565b600082825260208201905092915050565b600082825260208201905092915050565b600081905092915050565b6000610ca782610cba565b9050919050565b60008115159050919050565b600073ffffffffffffffffffffffffffffffffffffffff82169050919050565b82818337600083830152505050565b60005b83811015610d07578082015181840152602081019050610cec565b83811115610d16576000848401525b50505050565b6000601f19601f8301169050919050565b610d3681610c9c565b8114610d4157600080fd5b5056fea365627a7a723158209cdc4009fbc42d058636efae69d16de80fbe8085c7cb52d37330ebe2da1ff8be6c6578706572696d656e74616cf564736f6c63430005100040",
  "source": "pragma solidity >=0.4.22 <0.9.0;\r\npragma experimental ABIEncoderV2;\r\ncontract Manufacturer {    \r\n    struct Manufacturer{\r\n        address id;\r\n        string name;\r\n        mapping(string => address) rawProducts;\r\n        bool isRenewableUsed;\r\n        bool isValue; //to verify value exists in mapping or not\r\n    }\r\n    address private adminAddress;\r\n    address [] private manufacturersList;\r\n    mapping(address => Manufacturer) private manufacturers;        \r\n\r\n    constructor() public {\r\n        adminAddress = msg.sender;        \r\n    }\r\n\r\n    //get list of ids of all manufacturers\r\n    function getManufacturersList() public view returns(address[] memory){\r\n        return manufacturersList;\r\n    }\r\n\r\n    //Get manufacturer by id\r\n    function getManufacturer(address id) public view returns(string memory, bool, bool){\r\n        return(\r\n            manufacturers[id].name,\r\n            manufacturers[id].isRenewableUsed,\r\n            manufacturers[id].isValue            \r\n        );\r\n    }\r\n\r\n    //Adding new manufacturer\r\n    function addManufacturer(string memory name) public {        \r\n        manufacturersList.push(msg.sender);\r\n        Manufacturer storage manufacturer = manufacturers[msg.sender];\r\n        manufacturer.id = msg.sender;\r\n        manufacturer.name = name;\r\n        manufacturer.isRenewableUsed = false;    \r\n        manufacturer.isValue = true;    \r\n    }\r\n\r\n    //Adding raw products information for a manufacturer\r\n    function addRawProducts(        \r\n        string[] memory rawProducts,\r\n        address[] memory farmerAddresses\r\n    ) public {\r\n        for(uint i = 0;i< rawProducts.length; i++){\r\n            manufacturers[msg.sender].rawProducts[rawProducts[i]] = farmerAddresses[i];\r\n        }\r\n    }\r\n\r\n    //Verify manufacturer source of energy\r\n    function verifyManufacturer(address id) public {\r\n        require(msg.sender == adminAddress, \"Manufacturer::verify: Only admin can verify an identity\");\r\n        manufacturers[id].isRenewableUsed = true;\r\n    }\r\n}",
  "sourcePath": "D:\\Blockchain\\supply-chain\\src\\Contracts\\Manufacturer.sol",
  "compiler": {
    "name": "solc",
    "version": "0.5.16+commit.9c3226ce.Emscripten.clang"
  },
  "schemaVersion": "3.4.3",
  "updatedAt": "2021-12-19T14:18:18.161Z",
  "networkType": "ethereum",
  "devdoc": {
    "methods": {}
  },
  "userdoc": {
    "methods": {}
  }
}