{
  "contractName": "Product",
  "abi": [
    {
      "constant": true,
      "inputs": [
        {
          "internalType": "string",
          "name": "",
          "type": "string"
        }
      ],
      "name": "products",
      "outputs": [
        {
          "internalType": "string",
          "name": "id",
          "type": "string"
        },
        {
          "internalType": "string",
          "name": "name",
          "type": "string"
        },
        {
          "internalType": "address",
          "name": "ownership",
          "type": "address"
        },
        {
          "internalType": "address",
          "name": "manufacturer",
          "type": "address"
        },
        {
          "internalType": "bool",
          "name": "isValue",
          "type": "bool"
        }
      ],
      "payable": false,
      "stateMutability": "view",
      "type": "function"
    },
    {
      "constant": false,
      "inputs": [
        {
          "internalType": "string",
          "name": "id",
          "type": "string"
        },
        {
          "internalType": "string",
          "name": "name",
          "type": "string"
        },
        {
          "internalType": "string[]",
          "name": "rawProducts",
          "type": "string[]"
        }
      ],
      "name": "addProduct",
      "outputs": [],
      "payable": false,
      "stateMutability": "nonpayable",
      "type": "function"
    },
    {
      "constant": true,
      "inputs": [
        {
          "internalType": "string",
          "name": "id",
          "type": "string"
        }
      ],
      "name": "getProduct",
      "outputs": [
        {
          "components": [
            {
              "internalType": "string",
              "name": "id",
              "type": "string"
            },
            {
              "internalType": "string",
              "name": "name",
              "type": "string"
            },
            {
              "internalType": "address",
              "name": "ownership",
              "type": "address"
            },
            {
              "internalType": "address",
              "name": "manufacturer",
              "type": "address"
            },
            {
              "internalType": "string[]",
              "name": "rawProducts",
              "type": "string[]"
            },
            {
              "internalType": "bool",
              "name": "isValue",
              "type": "bool"
            }
          ],
          "internalType": "struct Product.Product",
          "name": "",
          "type": "tuple"
        }
      ],
      "payable": false,
      "stateMutability": "view",
      "type": "function"
    },
    {
      "constant": false,
      "inputs": [
        {
          "internalType": "address",
          "name": "newOwner",
          "type": "address"
        },
        {
          "internalType": "string",
          "name": "id",
          "type": "string"
        }
      ],
      "name": "updateOwnership",
      "outputs": [],
      "payable": false,
      "stateMutability": "nonpayable",
      "type": "function"
    }
  ],
  "bytecode": "0x608060405234801561001057600080fd5b50611316806100206000396000f3fe608060405234801561001057600080fd5b506004361061004c5760003560e01c80630186a4231461005157806368111cce146100855780638a275f8a146100b5578063f17eaca1146100d1575b600080fd5b61006b60048036036100669190810190610c44565b6100ed565b60405161007c95949392919061103f565b60405180910390f35b61009f600480360361009a9190810190610c85565b6102b6565b6040516100ac91906110e0565b60405180910390f35b6100cf60048036036100ca9190810190610bf0565b6105e2565b005b6100eb60048036036100e69190810190610cc6565b6106f5565b005b600081805160208101820180518482526020830160208501208183528095505050505050600091509050806000018054600181600116156101000203166002900480601f0160208091040260200160405190810160405280929190818152602001828054600181600116156101000203166002900480156101af5780601f10610184576101008083540402835291602001916101af565b820191906000526020600020905b81548152906001019060200180831161019257829003601f168201915b505050505090806001018054600181600116156101000203166002900480601f01602080910402602001604051908101604052809291908181526020018280546001816001161561010002031660029004801561024d5780601f106102225761010080835404028352916020019161024d565b820191906000526020600020905b81548152906001019060200180831161023057829003601f168201915b5050505050908060020160009054906101000a900473ffffffffffffffffffffffffffffffffffffffff16908060030160009054906101000a900473ffffffffffffffffffffffffffffffffffffffff16908060050160009054906101000a900460ff16905085565b6102be610862565b6000826040516102ce9190611028565b90815260200160405180910390206040518060c0016040529081600082018054600181600116156101000203166002900480601f0160208091040260200160405190810160405280929190818152602001828054600181600116156101000203166002900480156103805780601f1061035557610100808354040283529160200191610380565b820191906000526020600020905b81548152906001019060200180831161036357829003601f168201915b50505050508152602001600182018054600181600116156101000203166002900480601f0160208091040260200160405190810160405280929190818152602001828054600181600116156101000203166002900480156104225780601f106103f757610100808354040283529160200191610422565b820191906000526020600020905b81548152906001019060200180831161040557829003601f168201915b505050505081526020016002820160009054906101000a900473ffffffffffffffffffffffffffffffffffffffff1673ffffffffffffffffffffffffffffffffffffffff1673ffffffffffffffffffffffffffffffffffffffff1681526020016003820160009054906101000a900473ffffffffffffffffffffffffffffffffffffffff1673ffffffffffffffffffffffffffffffffffffffff1673ffffffffffffffffffffffffffffffffffffffff16815260200160048201805480602002602001604051908101604052809291908181526020016000905b828210156105b8578382906000526020600020018054600181600116156101000203166002900480601f0160208091040260200160405190810160405280929190818152602001828054600181600116156101000203166002900480156105a45780601f10610579576101008083540402835291602001916105a4565b820191906000526020600020905b81548152906001019060200180831161058757829003601f168201915b5050505050815260200190600101906104fc565b5050505081526020016005820160009054906101000a900460ff1615151515815250509050919050565b3373ffffffffffffffffffffffffffffffffffffffff166000826040516106099190611028565b908152602001604051809103902060020160009054906101000a900473ffffffffffffffffffffffffffffffffffffffff1673ffffffffffffffffffffffffffffffffffffffff1614610691576040517f08c379a0000000000000000000000000000000000000000000000000000000008152600401610688906110c0565b60405180910390fd5b816000826040516106a29190611028565b908152602001604051809103902060020160006101000a81548173ffffffffffffffffffffffffffffffffffffffff021916908373ffffffffffffffffffffffffffffffffffffffff1602179055505050565b600080846040516107069190611028565b90815260200160405180910390209050600015158160050160009054906101000a900460ff1615151461076e576040517f08c379a0000000000000000000000000000000000000000000000000000000008152600401610765906110a0565b60405180910390fd5b838160000190805190602001906107869291906108c6565b508281600101908051906020019061079f9291906108c6565b50338160020160006101000a81548173ffffffffffffffffffffffffffffffffffffffff021916908373ffffffffffffffffffffffffffffffffffffffff160217905550338160030160006101000a81548173ffffffffffffffffffffffffffffffffffffffff021916908373ffffffffffffffffffffffffffffffffffffffff1602179055508181600401908051906020019061083e929190610946565b5060018160050160006101000a81548160ff02191690831515021790555050505050565b6040518060c001604052806060815260200160608152602001600073ffffffffffffffffffffffffffffffffffffffff168152602001600073ffffffffffffffffffffffffffffffffffffffff168152602001606081526020016000151581525090565b828054600181600116156101000203166002900490600052602060002090601f016020900481019282601f1061090757805160ff1916838001178555610935565b82800160010185558215610935579182015b82811115610934578251825591602001919060010190610919565b5b50905061094291906109a6565b5090565b828054828255906000526020600020908101928215610995579160200282015b828111156109945782518290805190602001906109849291906109cb565b5091602001919060010190610966565b5b5090506109a29190610a4b565b5090565b6109c891905b808211156109c45760008160009055506001016109ac565b5090565b90565b828054600181600116156101000203166002900490600052602060002090601f016020900481019282601f10610a0c57805160ff1916838001178555610a3a565b82800160010185558215610a3a579182015b82811115610a39578251825591602001919060010190610a1e565b5b509050610a4791906109a6565b5090565b610a7491905b80821115610a705760008181610a679190610a77565b50600101610a51565b5090565b90565b50805460018160011615610100020316600290046000825580601f10610a9d5750610abc565b601f016020900490600052602060002090810190610abb91906109a6565b5b50565b600081359050610ace816112bc565b92915050565b600082601f830112610ae557600080fd5b8135610af8610af38261112f565b611102565b9150818183526020840193506020810190508360005b83811015610b3e5781358601610b248882610b48565b845260208401935060208301925050600181019050610b0e565b5050505092915050565b600082601f830112610b5957600080fd5b8135610b6c610b6782611157565b611102565b91508082526020830160208301858383011115610b8857600080fd5b610b93838284611269565b50505092915050565b600082601f830112610bad57600080fd5b8135610bc0610bbb82611183565b611102565b91508082526020830160208301858383011115610bdc57600080fd5b610be7838284611269565b50505092915050565b60008060408385031215610c0357600080fd5b6000610c1185828601610abf565b925050602083013567ffffffffffffffff811115610c2e57600080fd5b610c3a85828601610b9c565b9150509250929050565b600060208284031215610c5657600080fd5b600082013567ffffffffffffffff811115610c7057600080fd5b610c7c84828501610b48565b91505092915050565b600060208284031215610c9757600080fd5b600082013567ffffffffffffffff811115610cb157600080fd5b610cbd84828501610b9c565b91505092915050565b600080600060608486031215610cdb57600080fd5b600084013567ffffffffffffffff811115610cf557600080fd5b610d0186828701610b9c565b935050602084013567ffffffffffffffff811115610d1e57600080fd5b610d2a86828701610b9c565b925050604084013567ffffffffffffffff811115610d4757600080fd5b610d5386828701610ad4565b9150509250925092565b6000610d698383610e53565b905092915050565b610d7a8161122b565b82525050565b610d898161122b565b82525050565b6000610d9a826111bf565b610da481856111ed565b935083602082028501610db6856111af565b8060005b85811015610df25784840389528151610dd38582610d5d565b9450610dde836111e0565b925060208a01995050600181019050610dba565b50829750879550505050505092915050565b610e0d8161123d565b82525050565b610e1c8161123d565b82525050565b6000610e2d826111d5565b610e378185611220565b9350610e47818560208601611278565b80840191505092915050565b6000610e5e826111ca565b610e6881856111fe565b9350610e78818560208601611278565b610e81816112ab565b840191505092915050565b6000610e97826111ca565b610ea1818561120f565b9350610eb1818560208601611278565b610eba816112ab565b840191505092915050565b6000610ed260338361120f565b91507f50726f647563743a3a6164643a2050726f64756374207769746820736572696160008301527f6c206e6f20616c726561647920657869737473000000000000000000000000006020830152604082019050919050565b6000610f3860388361120f565b91507f50726f647563743a3a5472616e736665723a204f6e6c79206f776e657220636160008301527f6e207472616e7366657220746865206f776e65727368697000000000000000006020830152604082019050919050565b600060c0830160008301518482036000860152610fae8282610e53565b91505060208301518482036020860152610fc88282610e53565b9150506040830151610fdd6040860182610d71565b506060830151610ff06060860182610d71565b50608083015184820360808601526110088282610d8f565b91505060a083015161101d60a0860182610e04565b508091505092915050565b60006110348284610e22565b915081905092915050565b600060a08201905081810360008301526110598188610e8c565b9050818103602083015261106d8187610e8c565b905061107c6040830186610d80565b6110896060830185610d80565b6110966080830184610e13565b9695505050505050565b600060208201905081810360008301526110b981610ec5565b9050919050565b600060208201905081810360008301526110d981610f2b565b9050919050565b600060208201905081810360008301526110fa8184610f91565b905092915050565b6000604051905081810181811067ffffffffffffffff8211171561112557600080fd5b8060405250919050565b600067ffffffffffffffff82111561114657600080fd5b602082029050602081019050919050565b600067ffffffffffffffff82111561116e57600080fd5b601f19601f8301169050602081019050919050565b600067ffffffffffffffff82111561119a57600080fd5b601f19601f8301169050602081019050919050565b6000819050602082019050919050565b600081519050919050565b600081519050919050565b600081519050919050565b6000602082019050919050565b600082825260208201905092915050565b600082825260208201905092915050565b600082825260208201905092915050565b600081905092915050565b600061123682611249565b9050919050565b60008115159050919050565b600073ffffffffffffffffffffffffffffffffffffffff82169050919050565b82818337600083830152505050565b60005b8381101561129657808201518184015260208101905061127b565b838111156112a5576000848401525b50505050565b6000601f19601f8301169050919050565b6112c58161122b565b81146112d057600080fd5b5056fea365627a7a723158202eed0764e2b1b5fe8bf07bf88df862add6e568110948d6e35a559b6bdc16ef816c6578706572696d656e74616cf564736f6c63430005100040",
  "source": "pragma solidity >=0.4.22 <0.9.0;\npragma experimental ABIEncoderV2;\ncontract Product {\n    struct Product{\n        string id;\n        string name;\n        address ownership;\n        address manufacturer;\n        string[] rawProducts;  \n        bool isValue; //to verify value exists in mapping or not\n    }\n    mapping(string => Product) public products;\n\n    //add new product\n    function addProduct(\n        string memory id,\n        string memory name,\n        string[] memory rawProducts\n    ) public {\n        Product storage product = products[id];\n        require(product.isValue == false, \"Product::add: Product with serial no already exists\");\n        product.id = id;\n        product.name = name;\n        product.ownership = msg.sender;\n        product.manufacturer = msg.sender;\n        product.rawProducts = rawProducts;\n        product.isValue = true;        \n    }\n\n    //get product by id\n    function getProduct (string memory id) public view returns (Product memory) {\n        return products[id];\n    }\n\n    //update product ownership\n    function updateOwnership(\n        address newOwner,\n        string memory id\n    ) public {\n        require(products[id].ownership==msg.sender,\"Product::Transfer: Only owner can transfer the ownership\");\n        products[id].ownership = newOwner;\n    }\n\n}",
  "sourcePath": "/home/lakshya/Desktop/Projects/Blockchain/SupplyChain/supply-chain/src/Contracts/Product.sol",
  "compiler": {
    "name": "solc",
    "version": "0.5.16+commit.9c3226ce.Emscripten.clang"
  },
  "schemaVersion": "3.4.4",
  "updatedAt": "2022-01-13T18:39:13.638Z",
  "networkType": "ethereum",
  "devdoc": {
    "methods": {}
  },
  "userdoc": {
    "methods": {}
  }
}