{
  "contractName": "Product",
  "abi": [
    {
      "constant": true,
      "inputs": [
        {
          "internalType": "string",
          "name": "",
          "type": "string"
        }
      ],
      "name": "products",
      "outputs": [
        {
          "internalType": "string",
          "name": "id",
          "type": "string"
        },
        {
          "internalType": "string",
          "name": "name",
          "type": "string"
        },
        {
          "internalType": "address",
          "name": "ownership",
          "type": "address"
        },
        {
          "internalType": "address",
          "name": "manufacturer",
          "type": "address"
        }
      ],
      "payable": false,
      "stateMutability": "view",
      "type": "function"
    },
    {
      "constant": false,
      "inputs": [
        {
          "internalType": "string",
          "name": "id",
          "type": "string"
        },
        {
          "internalType": "string",
          "name": "name",
          "type": "string"
        },
        {
          "internalType": "string[]",
          "name": "rawProducts",
          "type": "string[]"
        }
      ],
      "name": "addProduct",
      "outputs": [],
      "payable": false,
      "stateMutability": "nonpayable",
      "type": "function"
    },
    {
      "constant": true,
      "inputs": [
        {
          "internalType": "string",
          "name": "id",
          "type": "string"
        }
      ],
      "name": "getProduct",
      "outputs": [
        {
          "components": [
            {
              "internalType": "string",
              "name": "id",
              "type": "string"
            },
            {
              "internalType": "string",
              "name": "name",
              "type": "string"
            },
            {
              "internalType": "address",
              "name": "ownership",
              "type": "address"
            },
            {
              "internalType": "address",
              "name": "manufacturer",
              "type": "address"
            },
            {
              "internalType": "string[]",
              "name": "rawProducts",
              "type": "string[]"
            }
          ],
          "internalType": "struct Product.Product",
          "name": "",
          "type": "tuple"
        }
      ],
      "payable": false,
      "stateMutability": "view",
      "type": "function"
    },
    {
      "constant": false,
      "inputs": [
        {
          "internalType": "address",
          "name": "newOwner",
          "type": "address"
        },
        {
          "internalType": "string",
          "name": "id",
          "type": "string"
        }
      ],
      "name": "updateOwnership",
      "outputs": [],
      "payable": false,
      "stateMutability": "nonpayable",
      "type": "function"
    }
  ],
  "bytecode": "0x608060405234801561001057600080fd5b5061117f806100206000396000f3fe608060405234801561001057600080fd5b506004361061004c5760003560e01c80630186a4231461005157806368111cce146100845780638a275f8a146100b4578063f17eaca1146100d0575b600080fd5b61006b60048036036100669190810190610b7e565b6100ec565b60405161007b9493929190610ee2565b60405180910390f35b61009e60048036036100999190810190610bbf565b6102a2565b6040516100ab9190610f55565b60405180910390f35b6100ce60048036036100c99190810190610b2a565b6105b3565b005b6100ea60048036036100e59190810190610c00565b6106c6565b005b600081805160208101820180518482526020830160208501208183528095505050505050600091509050806000018054600181600116156101000203166002900480601f0160208091040260200160405190810160405280929190818152602001828054600181600116156101000203166002900480156101ae5780601f10610183576101008083540402835291602001916101ae565b820191906000526020600020905b81548152906001019060200180831161019157829003601f168201915b505050505090806001018054600181600116156101000203166002900480601f01602080910402602001604051908101604052809291908181526020018280546001816001161561010002031660029004801561024c5780601f106102215761010080835404028352916020019161024c565b820191906000526020600020905b81548152906001019060200180831161022f57829003601f168201915b5050505050908060020160009054906101000a900473ffffffffffffffffffffffffffffffffffffffff16908060030160009054906101000a900473ffffffffffffffffffffffffffffffffffffffff16905084565b6102aa6107a5565b6000826040516102ba9190610ecb565b90815260200160405180910390206040518060a0016040529081600082018054600181600116156101000203166002900480601f01602080910402602001604051908101604052809291908181526020018280546001816001161561010002031660029004801561036c5780601f106103415761010080835404028352916020019161036c565b820191906000526020600020905b81548152906001019060200180831161034f57829003601f168201915b50505050508152602001600182018054600181600116156101000203166002900480601f01602080910402602001604051908101604052809291908181526020018280546001816001161561010002031660029004801561040e5780601f106103e35761010080835404028352916020019161040e565b820191906000526020600020905b8154815290600101906020018083116103f157829003601f168201915b505050505081526020016002820160009054906101000a900473ffffffffffffffffffffffffffffffffffffffff1673ffffffffffffffffffffffffffffffffffffffff1673ffffffffffffffffffffffffffffffffffffffff1681526020016003820160009054906101000a900473ffffffffffffffffffffffffffffffffffffffff1673ffffffffffffffffffffffffffffffffffffffff1673ffffffffffffffffffffffffffffffffffffffff16815260200160048201805480602002602001604051908101604052809291908181526020016000905b828210156105a4578382906000526020600020018054600181600116156101000203166002900480601f0160208091040260200160405190810160405280929190818152602001828054600181600116156101000203166002900480156105905780601f1061056557610100808354040283529160200191610590565b820191906000526020600020905b81548152906001019060200180831161057357829003601f168201915b5050505050815260200190600101906104e8565b50505050815250509050919050565b3373ffffffffffffffffffffffffffffffffffffffff166000826040516105da9190610ecb565b908152602001604051809103902060020160009054906101000a900473ffffffffffffffffffffffffffffffffffffffff1673ffffffffffffffffffffffffffffffffffffffff1614610662576040517f08c379a000000000000000000000000000000000000000000000000000000000815260040161065990610f35565b60405180910390fd5b816000826040516106739190610ecb565b908152602001604051809103902060020160006101000a81548173ffffffffffffffffffffffffffffffffffffffff021916908373ffffffffffffffffffffffffffffffffffffffff1602179055505050565b600080846040516106d79190610ecb565b90815260200160405180910390209050828160010190805190602001906106ff929190610800565b50338160020160006101000a81548173ffffffffffffffffffffffffffffffffffffffff021916908373ffffffffffffffffffffffffffffffffffffffff160217905550338160030160006101000a81548173ffffffffffffffffffffffffffffffffffffffff021916908373ffffffffffffffffffffffffffffffffffffffff1602179055508181600401908051906020019061079e929190610880565b5050505050565b6040518060a001604052806060815260200160608152602001600073ffffffffffffffffffffffffffffffffffffffff168152602001600073ffffffffffffffffffffffffffffffffffffffff168152602001606081525090565b828054600181600116156101000203166002900490600052602060002090601f016020900481019282601f1061084157805160ff191683800117855561086f565b8280016001018555821561086f579182015b8281111561086e578251825591602001919060010190610853565b5b50905061087c91906108e0565b5090565b8280548282559060005260206000209081019282156108cf579160200282015b828111156108ce5782518290805190602001906108be929190610905565b50916020019190600101906108a0565b5b5090506108dc9190610985565b5090565b61090291905b808211156108fe5760008160009055506001016108e6565b5090565b90565b828054600181600116156101000203166002900490600052602060002090601f016020900481019282601f1061094657805160ff1916838001178555610974565b82800160010185558215610974579182015b82811115610973578251825591602001919060010190610958565b5b50905061098191906108e0565b5090565b6109ae91905b808211156109aa57600081816109a191906109b1565b5060010161098b565b5090565b90565b50805460018160011615610100020316600290046000825580601f106109d757506109f6565b601f0160209004906000526020600020908101906109f591906108e0565b5b50565b600081359050610a0881611125565b92915050565b600082601f830112610a1f57600080fd5b8135610a32610a2d82610fa4565b610f77565b9150818183526020840193506020810190508360005b83811015610a785781358601610a5e8882610a82565b845260208401935060208301925050600181019050610a48565b5050505092915050565b600082601f830112610a9357600080fd5b8135610aa6610aa182610fcc565b610f77565b91508082526020830160208301858383011115610ac257600080fd5b610acd8382846110d2565b50505092915050565b600082601f830112610ae757600080fd5b8135610afa610af582610ff8565b610f77565b91508082526020830160208301858383011115610b1657600080fd5b610b218382846110d2565b50505092915050565b60008060408385031215610b3d57600080fd5b6000610b4b858286016109f9565b925050602083013567ffffffffffffffff811115610b6857600080fd5b610b7485828601610ad6565b9150509250929050565b600060208284031215610b9057600080fd5b600082013567ffffffffffffffff811115610baa57600080fd5b610bb684828501610a82565b91505092915050565b600060208284031215610bd157600080fd5b600082013567ffffffffffffffff811115610beb57600080fd5b610bf784828501610ad6565b91505092915050565b600080600060608486031215610c1557600080fd5b600084013567ffffffffffffffff811115610c2f57600080fd5b610c3b86828701610ad6565b935050602084013567ffffffffffffffff811115610c5857600080fd5b610c6486828701610ad6565b925050604084013567ffffffffffffffff811115610c8157600080fd5b610c8d86828701610a0e565b9150509250925092565b6000610ca38383610d6f565b905092915050565b610cb4816110a0565b82525050565b610cc3816110a0565b82525050565b6000610cd482611034565b610cde8185611062565b935083602082028501610cf085611024565b8060005b85811015610d2c5784840389528151610d0d8582610c97565b9450610d1883611055565b925060208a01995050600181019050610cf4565b50829750879550505050505092915050565b6000610d498261104a565b610d538185611095565b9350610d638185602086016110e1565b80840191505092915050565b6000610d7a8261103f565b610d848185611073565b9350610d948185602086016110e1565b610d9d81611114565b840191505092915050565b6000610db38261103f565b610dbd8185611084565b9350610dcd8185602086016110e1565b610dd681611114565b840191505092915050565b6000610dee603883611084565b91507f50726f647563743a3a5472616e736665723a204f6e6c79206f776e657220636160008301527f6e207472616e7366657220746865206f776e65727368697000000000000000006020830152604082019050919050565b600060a0830160008301518482036000860152610e648282610d6f565b91505060208301518482036020860152610e7e8282610d6f565b9150506040830151610e936040860182610cab565b506060830151610ea66060860182610cab565b5060808301518482036080860152610ebe8282610cc9565b9150508091505092915050565b6000610ed78284610d3e565b915081905092915050565b60006080820190508181036000830152610efc8187610da8565b90508181036020830152610f108186610da8565b9050610f1f6040830185610cba565b610f2c6060830184610cba565b95945050505050565b60006020820190508181036000830152610f4e81610de1565b9050919050565b60006020820190508181036000830152610f6f8184610e47565b905092915050565b6000604051905081810181811067ffffffffffffffff82111715610f9a57600080fd5b8060405250919050565b600067ffffffffffffffff821115610fbb57600080fd5b602082029050602081019050919050565b600067ffffffffffffffff821115610fe357600080fd5b601f19601f8301169050602081019050919050565b600067ffffffffffffffff82111561100f57600080fd5b601f19601f8301169050602081019050919050565b6000819050602082019050919050565b600081519050919050565b600081519050919050565b600081519050919050565b6000602082019050919050565b600082825260208201905092915050565b600082825260208201905092915050565b600082825260208201905092915050565b600081905092915050565b60006110ab826110b2565b9050919050565b600073ffffffffffffffffffffffffffffffffffffffff82169050919050565b82818337600083830152505050565b60005b838110156110ff5780820151818401526020810190506110e4565b8381111561110e576000848401525b50505050565b6000601f19601f8301169050919050565b61112e816110a0565b811461113957600080fd5b5056fea365627a7a7231582016ba6d9a41d0eddfe435e0cd2119287a2cdc84f0cba04170d086683022d0d1236c6578706572696d656e74616cf564736f6c63430005100040",
  "source": "pragma solidity >=0.4.22 <0.9.0;\r\npragma experimental ABIEncoderV2;\r\ncontract Product {\r\n    struct Product{\r\n        string id;\r\n        string name;\r\n        address ownership;\r\n        address manufacturer;\r\n        string[] rawProducts;  \r\n    }\r\n    mapping(string => Product) public products;\r\n\r\n    //add new product\r\n    function addProduct(\r\n        string memory id,\r\n        string memory name,\r\n        string[] memory rawProducts\r\n    ) public {\r\n        Product storage product = products[id];\r\n        product.name = name;\r\n        product.ownership = msg.sender;\r\n        product.manufacturer = msg.sender;\r\n        product.rawProducts = rawProducts;        \r\n    }\r\n\r\n    //get product by id\r\n    function getProduct (string memory id) public view returns (Product memory) {\r\n        return products[id];\r\n    }\r\n\r\n    //update product ownership\r\n    function updateOwnership(\r\n        address newOwner,\r\n        string memory id\r\n    ) public {\r\n        require(products[id].ownership==msg.sender,\"Product::Transfer: Only owner can transfer the ownership\");\r\n        products[id].ownership = newOwner;\r\n    }\r\n\r\n}",
  "sourcePath": "D:\\Blockchain\\supply-chain\\src\\Contracts\\Product.sol",
  "compiler": {
    "name": "solc",
    "version": "0.5.16+commit.9c3226ce.Emscripten.clang"
  },
  "schemaVersion": "3.4.3",
  "updatedAt": "2021-12-19T14:18:18.167Z",
  "networkType": "ethereum",
  "devdoc": {
    "methods": {}
  },
  "userdoc": {
    "methods": {}
  }
}