{
  "contractName": "StakeHolder",
  "abi": [
    {
      "inputs": [],
      "payable": false,
      "stateMutability": "nonpayable",
      "type": "constructor"
    },
    {
      "constant": true,
      "inputs": [
        {
          "internalType": "address",
          "name": "",
          "type": "address"
        }
      ],
      "name": "stakeholders",
      "outputs": [
        {
          "internalType": "address",
          "name": "id",
          "type": "address"
        },
        {
          "internalType": "string",
          "name": "name",
          "type": "string"
        },
        {
          "internalType": "string",
          "name": "role",
          "type": "string"
        },
        {
          "internalType": "bool",
          "name": "isValue",
          "type": "bool"
        }
      ],
      "payable": false,
      "stateMutability": "view",
      "type": "function"
    },
    {
      "constant": true,
      "inputs": [
        {
          "internalType": "address",
          "name": "id",
          "type": "address"
        }
      ],
      "name": "getStakeHolder",
      "outputs": [
        {
          "components": [
            {
              "internalType": "address",
              "name": "id",
              "type": "address"
            },
            {
              "internalType": "string",
              "name": "name",
              "type": "string"
            },
            {
              "internalType": "string",
              "name": "role",
              "type": "string"
            },
            {
              "internalType": "bool",
              "name": "isValue",
              "type": "bool"
            }
          ],
          "internalType": "struct StakeHolder.Stakeholder",
          "name": "",
          "type": "tuple"
        }
      ],
      "payable": false,
      "stateMutability": "view",
      "type": "function"
    },
    {
      "constant": false,
      "inputs": [
        {
          "internalType": "string",
          "name": "name",
          "type": "string"
        },
        {
          "internalType": "string",
          "name": "role",
          "type": "string"
        }
      ],
      "name": "addStakeHolder",
      "outputs": [],
      "payable": false,
      "stateMutability": "nonpayable",
      "type": "function"
    }
  ],
  "bytecode": "0x608060405234801561001057600080fd5b50336000806101000a81548173ffffffffffffffffffffffffffffffffffffffff021916908373ffffffffffffffffffffffffffffffffffffffff160217905550610a62806100606000396000f3fe608060405234801561001057600080fd5b50600436106100415760003560e01c806374dc243a14610046578063c07cfca914610076578063c48dbd05146100a9575b600080fd5b610060600480360361005b91908101906106cf565b6100c5565b60405161006d91906108cf565b60405180910390f35b610090600480360361008b91908101906106cf565b6102d3565b6040516100a0949392919061087c565b60405180910390f35b6100c360048036036100be91908101906106f8565b610460565b005b6100cd610581565b600160008373ffffffffffffffffffffffffffffffffffffffff1673ffffffffffffffffffffffffffffffffffffffff1681526020019081526020016000206040518060800160405290816000820160009054906101000a900473ffffffffffffffffffffffffffffffffffffffff1673ffffffffffffffffffffffffffffffffffffffff1673ffffffffffffffffffffffffffffffffffffffff168152602001600182018054600181600116156101000203166002900480601f0160208091040260200160405190810160405280929190818152602001828054600181600116156101000203166002900480156102065780601f106101db57610100808354040283529160200191610206565b820191906000526020600020905b8154815290600101906020018083116101e957829003601f168201915b50505050508152602001600282018054600181600116156101000203166002900480601f0160208091040260200160405190810160405280929190818152602001828054600181600116156101000203166002900480156102a85780601f1061027d576101008083540402835291602001916102a8565b820191906000526020600020905b81548152906001019060200180831161028b57829003601f168201915b505050505081526020016003820160009054906101000a900460ff1615151515815250509050919050565b60016020528060005260406000206000915090508060000160009054906101000a900473ffffffffffffffffffffffffffffffffffffffff1690806001018054600181600116156101000203166002900480601f0160208091040260200160405190810160405280929190818152602001828054600181600116156101000203166002900480156103a55780601f1061037a576101008083540402835291602001916103a5565b820191906000526020600020905b81548152906001019060200180831161038857829003601f168201915b505050505090806002018054600181600116156101000203166002900480601f0160208091040260200160405190810160405280929190818152602001828054600181600116156101000203166002900480156104435780601f1061041857610100808354040283529160200191610443565b820191906000526020600020905b81548152906001019060200180831161042657829003601f168201915b5050505050908060030160009054906101000a900460ff16905084565b60405180608001604052803373ffffffffffffffffffffffffffffffffffffffff16815260200183815260200182815260200160011515815250600160003373ffffffffffffffffffffffffffffffffffffffff1673ffffffffffffffffffffffffffffffffffffffff16815260200190815260200160002060008201518160000160006101000a81548173ffffffffffffffffffffffffffffffffffffffff021916908373ffffffffffffffffffffffffffffffffffffffff160217905550602082015181600101908051906020019061053c9291906105c1565b5060408201518160020190805190602001906105599291906105c1565b5060608201518160030160006101000a81548160ff0219169083151502179055509050505050565b6040518060800160405280600073ffffffffffffffffffffffffffffffffffffffff16815260200160608152602001606081526020016000151581525090565b828054600181600116156101000203166002900490600052602060002090601f016020900481019282601f1061060257805160ff1916838001178555610630565b82800160010185558215610630579182015b8281111561062f578251825591602001919060010190610614565b5b50905061063d9190610641565b5090565b61066391905b8082111561065f576000816000905550600101610647565b5090565b90565b60008135905061067581610a08565b92915050565b600082601f83011261068c57600080fd5b813561069f61069a8261091e565b6108f1565b915080825260208301602083018583830111156106bb57600080fd5b6106c68382846109b5565b50505092915050565b6000602082840312156106e157600080fd5b60006106ef84828501610666565b91505092915050565b6000806040838503121561070b57600080fd5b600083013567ffffffffffffffff81111561072557600080fd5b6107318582860161067b565b925050602083013567ffffffffffffffff81111561074e57600080fd5b61075a8582860161067b565b9150509250929050565b61076d81610977565b82525050565b61077c81610977565b82525050565b61078b81610989565b82525050565b61079a81610989565b82525050565b60006107ab8261094a565b6107b58185610955565b93506107c58185602086016109c4565b6107ce816109f7565b840191505092915050565b60006107e48261094a565b6107ee8185610966565b93506107fe8185602086016109c4565b610807816109f7565b840191505092915050565b600060808301600083015161082a6000860182610764565b506020830151848203602086015261084282826107a0565b9150506040830151848203604086015261085c82826107a0565b91505060608301516108716060860182610782565b508091505092915050565b60006080820190506108916000830187610773565b81810360208301526108a381866107d9565b905081810360408301526108b781856107d9565b90506108c66060830184610791565b95945050505050565b600060208201905081810360008301526108e98184610812565b905092915050565b6000604051905081810181811067ffffffffffffffff8211171561091457600080fd5b8060405250919050565b600067ffffffffffffffff82111561093557600080fd5b601f19601f8301169050602081019050919050565b600081519050919050565b600082825260208201905092915050565b600082825260208201905092915050565b600061098282610995565b9050919050565b60008115159050919050565b600073ffffffffffffffffffffffffffffffffffffffff82169050919050565b82818337600083830152505050565b60005b838110156109e25780820151818401526020810190506109c7565b838111156109f1576000848401525b50505050565b6000601f19601f8301169050919050565b610a1181610977565b8114610a1c57600080fd5b5056fea365627a7a72315820061a0ad7b679c4216fff66bbb636df2957c5abdda99f3e4abf7a8359c24a12dc6c6578706572696d656e74616cf564736f6c63430005100040",
  "source": "pragma solidity >=0.4.22 <0.9.0;\r\npragma experimental ABIEncoderV2;\r\ncontract StakeHolder {\r\n    struct Stakeholder{\r\n        address id;\r\n        string name;\r\n        string role;\r\n        bool isValue; //to verify value exists in mapping or not\r\n    }\r\n    address private adminAddress;\r\n    mapping(address => Stakeholder) public stakeholders;\r\n\r\n    constructor () public {\r\n        adminAddress = msg.sender;\r\n    }\r\n\r\n    //get stakeholder by id\r\n    function getStakeHolder(address id) public view returns(Stakeholder memory){\r\n        return stakeholders[id];\r\n    }\r\n\r\n    //Adding new stakeholder\r\n    function addStakeHolder(\r\n        string memory name,\r\n        string memory role\r\n    ) public {\r\n        stakeholders[msg.sender] = Stakeholder(msg.sender,name,role,true);        \r\n    }\r\n\r\n    \r\n\r\n}",
  "sourcePath": "D:\\Blockchain\\supply-chain\\src\\Contracts\\StakeHolder.sol",
  "compiler": {
    "name": "solc",
    "version": "0.5.16+commit.9c3226ce.Emscripten.clang"
  },
  "schemaVersion": "3.4.3",
  "updatedAt": "2021-12-25T08:26:53.592Z",
  "networkType": "ethereum",
  "devdoc": {
    "methods": {}
  },
  "userdoc": {
    "methods": {}
  }
}