{
  "contractName": "Admin",
  "abi": [
    {
      "inputs": [
        {
          "internalType": "address",
          "name": "_admin",
          "type": "address"
        }
      ],
      "stateMutability": "nonpayable",
      "type": "constructor"
    },
    {
      "inputs": [],
      "name": "admin",
      "outputs": [
        {
          "internalType": "address",
          "name": "",
          "type": "address"
        }
      ],
      "stateMutability": "view",
      "type": "function"
    },
    {
      "inputs": [
        {
          "internalType": "address",
          "name": "_account",
          "type": "address"
        }
      ],
      "name": "isAdmin",
      "outputs": [
        {
          "internalType": "bool",
          "name": "",
          "type": "bool"
        }
      ],
      "stateMutability": "view",
      "type": "function"
    }
  ],
  "bytecode": "0x608060405234801561001057600080fd5b506040516103313803806103318339818101604052810190610032919061008d565b806000806101000a81548173ffffffffffffffffffffffffffffffffffffffff021916908373ffffffffffffffffffffffffffffffffffffffff160217905550506100ff565b600081519050610087816100e8565b92915050565b60006020828403121561009f57600080fd5b60006100ad84828501610078565b91505092915050565b60006100c1826100c8565b9050919050565b600073ffffffffffffffffffffffffffffffffffffffff82169050919050565b6100f1816100b6565b81146100fc57600080fd5b50565b6102238061010e6000396000f3fe608060405234801561001057600080fd5b50600436106100365760003560e01c806324d7806c1461003b578063f851a4401461006b575b600080fd5b6100556004803603810190610050919061011b565b610089565b604051610062919061017d565b60405180910390f35b6100736100e2565b6040516100809190610162565b60405180910390f35b60008060009054906101000a900473ffffffffffffffffffffffffffffffffffffffff1673ffffffffffffffffffffffffffffffffffffffff168273ffffffffffffffffffffffffffffffffffffffff16149050919050565b60008054906101000a900473ffffffffffffffffffffffffffffffffffffffff1681565b600081359050610115816101d6565b92915050565b60006020828403121561012d57600080fd5b600061013b84828501610106565b91505092915050565b61014d81610198565b82525050565b61015c816101aa565b82525050565b60006020820190506101776000830184610144565b92915050565b60006020820190506101926000830184610153565b92915050565b60006101a3826101b6565b9050919050565b60008115159050919050565b600073ffffffffffffffffffffffffffffffffffffffff82169050919050565b6101df81610198565b81146101ea57600080fd5b5056fea26469706673582212203c0111f98cd01c9c32b03b43839c4b8e187327fe0d82c9dc8ccccac676c1230064736f6c63430008000033",
  "immutableReferences": {},
  "source": "// SPDX-License-Identifier: MIT\npragma solidity ^0.8.0;\ncontract Admin{\n  address public admin;\n  \n  constructor(address _admin){\n    admin = _admin;\n  }\n\n  function isAdmin(address _account) public view returns (bool){\n    return _account == admin;\n  }\n  \n  modifier onlyAdmin{\n    require(msg.sender == admin);\n    _;\n  }\n}",
  "sourcePath": "/home/lakshya/Desktop/Projects/Blockchain/SupplyChain/supply-chain/src/Smart-Contract/Contracts/Admin.sol",
  "compiler": {
    "name": "solc",
    "version": "0.8.0+commit.c7dfd78e.Emscripten.clang"
  },
  "schemaVersion": "3.4.4",
  "updatedAt": "2022-05-18T12:04:12.809Z",
  "devdoc": {
    "kind": "dev",
    "methods": {},
    "version": 1
  },
  "userdoc": {
    "kind": "user",
    "methods": {},
    "version": 1
  }
}